:020000040800F2
:1000000000500020754D0008C98E0008CD8E0008F4
:10001000D18E0008D58E0008D98E0008000000009F
:10002000000000000000000000000000DD8E00085D
:10003000E18E000800000000E58E0008E98E00084F
:10004000B94D0008B94D0008B94D0008B94D000878
:10005000B94D0008B94D0008B94D0008B94D000868
:10006000B94D0008B94D0008B94D00085D4A0008B7
:10007000B94D0008B94D0008B94D0008B94D000848
:10008000B94D0008B94D0008C1490008B94D000834
:10009000B94D0008B94D0008B94D0008B94D000828
:1000A000B94D0008B94D0008B94D00086148000875
:1000B000B94D0008B94D0008B94D0008B94D000808
:1000C000B94D0008B94D0008B94D0008B94D0008F8
:1000D000B94D0008B94D0008B94D0008B94D0008E8
:1000E000B94D0008B94D0008B94D000800000000E6
:1000F0000000000000000000000000000000000000
:0C01000000000000000000005FF808F1A3
:1001100010F0030F38B5044612D10368A3F1013281
:1001200022EA030313F0803F0AD1031D184653F857
:10013000042BA2F1013525EA020212F0803FF5D02E
:1001400003782BB1431C184613F8012B002AFAD16F
:1001500000F002F8204638BD80EA0102844612F021
:10016000030F4FD111F0030F32D14DF8044D11F0B0
:10017000040F51F8043B0BD0A3F101329A4312F063
:10018000803F04BF4CF8043B51F8043B16D100BF3C
:1001900051F8044BA3F101329A4312F0803FA4F1CD
:1001A00001320BD14CF8043BA24312F0803F04BF54
:1001B00051F8043B4CF8044BEAD023460CF8013BC1
:1001C00013F0FF0F4FEA3323F8D15DF8044B70476B
:1001D00011F0010F06D011F8012B0CF8012B002AA9
:1001E00008BF704711F0020FBFD031F8022B12F098
:1001F000FF0F16BF2CF8022B8CF8002012F47F4F53
:10020000B3D1704711F8012B0CF8012B002AF9D15A
:10021000704700BF20F0030110F00300C0F10000A0
:1002200051F8043B00F1040C4FEACC0C6FF00002D3
:100230001CBF22FA0CF213434FF0010C4CEA0C2CB9
:100240004CEA0C4CA3EB0C0222EA030212EACC1299
:1002500004BF51F8043B0430F4D013F0FF0F1FBF6C
:10026000013013F47F4F013013F47F0F18BF0130BA
:10027000704700BF2DE9704F8AB004460D4600F06C
:100280004FF840F20006C2F2000696F90030B3F1D2
:10029000FF3F8046894631D02046294600F020F9AC
:1002A00000282BD04FF0000A4FF0000B20462946C3
:1002B00052465B4600F08EFD00B336784CF2F06398
:1002C000C0F6000301220193002300920893CDE9B8
:1002D0000445CDE90245B6B15046594652465B4603
:1002E00000F030FC022ECDE906010ED100F042F9FB
:1002F00021230360089B73B9DDE90689404649461E
:100300000AB0BDE8708FCDE906AB684600F030F961
:100310000028EFD1EAE700F02DF9089B0360EBE736
:100320004FF0000C02462DE9F843E046C7F6F07C9A
:10033000C7F6F07801EA0C0C0446C4450D460B469E
:100340000E46074600F0B080002940F3A0800A1551
:100350007ED026F07F4312F0010FA2F57E7C23F4BD
:100360007003ACF1070C43F4801362D0FA0F00263F
:1003700002EB43034FEA6C0C7F00162031464FF42A
:1003800000128C18FD0F9C424FEA4707DEBFC4EBFA
:100390000303A118B6185208013805EB4303F0D146
:1003A000202580464FF00042994202EB08040EDB04
:1003B0008B4214BF4FF000094FF00109BC428CBFC3
:1003C0004FF0000909F00109B9F1000F0ED004F057
:1003D000004904EB0208B9F1004F23D089465B1AAB
:1003E000BC4288BF013B3F1B80184946FC0F5208A6
:1003F0007F00013D04EB4303D6D13B431ED14008AF
:100400004FEA0C52731002F17E5216F0010F18BF22
:1004100040F0004002F5C002D518044620462946A7
:10042000BDE8F883B8F1000FA8BF01F10109D6DAE1
:10043000D4E7FA0F7F0002EB430397E7B0F1FF3FE9
:100440001CBF00F001031818D9D101362846D7E7A0
:10045000012216F4801335D17600013316F4801F83
:10046000FAD0C3F1200137FA01F1D21A0E439F40AE
:1004700026F07F4312F0010FA2F57E7C23F4700377
:10048000ACF1070C43F480137FF470AFD1E721F097
:10049000004C5CEA000CC1D0B9B9FE0A153B7F05DF
:1004A000002EFAD05A1CD4E700F022FA02460B467E
:1004B0002046294600F06AF804460D4620462946A3
:1004C000BDE8F88320210023CDE702460B4600F06B
:1004D0005BF802460B4600F035FB04460D469DE7EF
:1004E00050EA010310B43CD0D0F1010238BF002221
:1004F000B1F1004F14BF002302F00103002B30D1F3
:100500004FF6FF73A1F58010C7F6DF7301F1FE44CB
:10051000984204F570048CBF002001209C428CBFDF
:10052000034640F00103002B20D1B1F5801F01F1FB
:1005300000402CBF00230123B0F5801F38BF43F0DB
:1005400001038BB911F5801FC7F6F07314BF0020AB
:100550000120994214BF014640F0010102EA010066
:1005600000E0022010BC70470320FBE70420F9E7FD
:100570000020704740F20403C2F20003186870477D
:1005800081F0004102E000BF83F0004330B54FEA44
:1005900041044FEA430594EA050F08BF90EA020FB1
:1005A0001FBF54EA000C55EA020C7FEA645C7FEA44
:1005B000655C00F0E2804FEA5454D4EB5555B8BF67
:1005C0006D420CDD2C4480EA020281EA030382EAD8
:1005D000000083EA010180EA020281EA0303362D6A
:1005E00088BF30BD11F0004F4FEA01314FF4801C3D
:1005F0004CEA113102D0404261EB410113F0004F4F
:100600004FEA03334CEA133302D0524263EB430305
:1006100094EA050F00F0A780A4F10104D5F1200EA3
:100620000DDB02FA0EFC22FA05F2801841F10001FE
:1006300003FA0EF2801843FA05F359410EE0A5F1D2
:1006400020050EF1200E012A03FA0EFC28BF4CF003
:10065000020C43FA05F3C01851EBE37101F00045B9
:1006600007D54FF0000EDCF1000C7EEB00006EEBC6
:100670000101B1F5801F1BD3B1F5001F0CD3490850
:100680005FEA30004FEA3C0C04F101044FEA4452A7
:1006900012F5800F80F09A80BCF1004F08BF5FEA2E
:1006A000500C50F1000041EB045141EA050130BD0E
:1006B0005FEA4C0C404141EB010111F4801FA4F1B1
:1006C0000104E9D191F0000F04BF01460020B1FA06
:1006D00081F308BF2033A3F10B03B3F120020CDA3E
:1006E0000C3208DD02F1140CC2F10C0201FA0CF01C
:1006F00021FA02F10CE002F11402D8BFC2F1200C81
:1007000001FA02F120FA0CFCDCBF41EA0C01904036
:10071000E41AA2BF01EB0451294330BD6FEA04047F
:100720001F3C1CDA0C340EDC04F11404C4F120026A
:1007300020FA04F001FA02F340EA030021FA04F37C
:1007400045EA030130BDC4F10C04C4F1200220FAD3
:1007500002F001FA04F340EA0300294630BD21FA11
:1007600004F0294630BD94F0000F83F4801306BFD7
:1007700081F480110134013D4EE77FEA645C18BFCB
:100780007FEA655C29D094EA050F08BF90EA020F62
:1007900005D054EA000C04BF1946104630BD91EA5A
:1007A000030F1EBF0021002030BD5FEA545C05D15D
:1007B0004000494128BF41F0004130BD14F580049C
:1007C0003CBF01F5801130BD01F0004545F0FE4110
:1007D00041F470014FF0000030BD7FEA645C1ABF45
:1007E000194610467FEA655C1CBF0B46024650EA7C
:1007F000013406BF52EA033591EA030F41F40021A8
:1008000030BD00BF90F0000F04BF0021704730B52D
:100810004FF4806404F132044FF000054FF0000102
:1008200050E700BF90F0000F04BF0021704730B5C3
:100830004FF4806404F1320410F0004548BF404298
:100840004FF000013EE700BF42004FEAE2014FEAED
:1008500031014FEA02701FBF12F07F4393F07F4FC8
:1008600081F06051704792F0000F14BF93F07F4FFA
:10087000704730B54FF4607401F0004521F000413D
:1008800020E700BF50EA010208BF704730B54FF0C3
:1008900000050AE050EA010208BF704730B511F0C8
:1008A000004502D5404261EB41014FF4806404F100
:1008B00032045FEA915C3FF4DCAE4FF003025FEA82
:1008C000DC0C18BF03325FEADC0C18BF033202EB0A
:1008D000DC02C2F1200300FA03FC20FA02F001FA64
:1008E00003FE40EA0E0021FA02F11444C1E600BF03
:1008F00070B54FF0FF0C4CF4E06C1CEA11541DBFB6
:100900001CEA135594EA0C0F95EA0C0F00F0DEF880
:100910002C4481EA030621EA4C5123EA4C5350EA65
:10092000013518BF52EA033541F4801143F48013B6
:1009300038D0A0FB02CE4FF00005E1FB02E506F047
:100940000042E0FB03E54FF00006E1FB03569CF09C
:10095000000F18BF4EF0010EA4F1FF04B6F5007FA2
:1009600064F5407404D25FEA4E0E6D4146EB060614
:1009700042EAC62141EA55514FEAC52040EA5E509D
:100980004FEACE2EB4F1FD0C88BFBCF5E06F1ED847
:10099000BEF1004F08BF5FEA500E50F1000041EB7E
:1009A000045170BD06F0004646EA010140EA02002B
:1009B00081EA0301B4EB5C04C2BFD4EB0C0541EA4D
:1009C000045170BD41F480114FF0000E013C00F362
:1009D000AB8014F1360FDEBF002001F0004170BD86
:1009E000C4F10004203C35DA0C341BDC04F114049F
:1009F000C4F1200500FA05F320FA04F001FA05F22B
:100A000040EA020001F0004221F0004110EBD370F7
:100A100021FA04F642EB06015EEA430E08BF20EA23
:100A2000D37070BDC4F10C04C4F1200500FA04F3C6
:100A300020FA05F001FA04F240EA020001F0004158
:100A400010EBD37041F100015EEA430E08BF20EACB
:100A5000D37070BDC4F1200500FA05F24EEA020E13
:100A600020FA04F301FA05F243EA020321FA04F042
:100A700001F0004121FA04F220EA020000EBD370F9
:100A80005EEA430E08BF20EAD37070BD94F0000FF9
:100A90000FD101F00046400041EB010111F4801F2D
:100AA00008BF013CF7D041EA060195F0000F18BFDE
:100AB000704703F00046520043EB030313F4801F1A
:100AC00008BF013DF7D043EA0603704794EA0C0FD4
:100AD0000CEA135518BF95EA0C0F0CD050EA4106EA
:100AE00018BF52EA4306D1D181EA030101F0004167
:100AF0004FF0000070BD50EA410606BF104619468F
:100B000052EA430619D094EA0C0F02D150EA01369A
:100B100013D195EA0C0F05D152EA03361CBF1046DB
:100B200019460AD181EA030101F0004141F0FE417A
:100B300041F470014FF0000070BD41F0FE4141F4FE
:100B4000780170BD70B54FF0FF0C4CF4E06C1CEAFE
:100B500011541DBF1CEA135594EA0C0F95EA0C0FB3
:100B600000F0A7F8A4EB050481EA030E52EA03356E
:100B70004FEA013100F088804FEA03334FF080558F
:100B800045EA131343EA12634FEA022245EA1115BC
:100B900045EA10654FEA00260EF000419D4208BF6D
:100BA000964244F1FD0404F5407402D25B084FEA1A
:100BB0003202B61A65EB03055B084FEA32024FF4C6
:100BC00080104FF4002CB6EB020E75EB030E22BF23
:100BD000B61A754640EA0C005B084FEA3202B6EBE3
:100BE000020E75EB030E22BFB61A754640EA5C0092
:100BF0005B084FEA3202B6EB020E75EB030E22BF22
:100C0000B61A754640EA9C005B084FEA3202B6EB22
:100C1000020E75EB030E22BFB61A754640EADC00E1
:100C200055EA060E18D04FEA051545EA16754FEA43
:100C300006164FEAC30343EA52734FEAC2025FEA61
:100C40001C1CC0D111F4801F0BD141EA00014FF0F0
:100C500000004FF0004CB6E711F4801F04BF0143C1
:100C60000020B4F1FD0C88BFBCF5E06F3FF6AFAEDD
:100C7000B5EB030C04BFB6EB020C5FEA500C50F16D
:100C8000000041EB045170BD0EF0004E4EEA1131F0
:100C900014EB5C04C2BFD4EB0C0541EA045170BDF7
:100CA00041F480114FF0000E013C90E645EA060E3B
:100CB0008DE60CEA135594EA0C0F08BF95EA0C0F69
:100CC0003FF43BAF94EA0C0F0AD150EA01347FF4B1
:100CD00034AF95EA0C0F7FF425AF104619462CE788
:100CE00095EA0C0F06D152EA03353FF4FDAE1046EB
:100CF000194622E750EA410618BF52EA43067FF43C
:100D0000C5AE50EA41047FF40DAF52EA43057FF4CB
:100D1000EBAE12E74FF0FF3C06E000BF4FF0010CD6
:100D200002E000BF4FF0010C4DF804CD4FEA410C3A
:100D30007FEA6C5C4FEA430C18BF7FEA6C5C1BD007
:100D400001B050EA410C0CBF52EA430C91EA030F88
:100D500002BF90EA020F0020704710F1000F91EAE5
:100D6000030F58BF994208BF90422CBFD8176FEAB3
:100D7000E37040F0010070474FEA410C7FEA6C5C81
:100D800002D150EA013C07D14FEA430C7FEA6C5C88
:100D9000D6D152EA033CD3D05DF8040B704700BFB4
:100DA0008446104662468C461946634600E000BF02
:100DB00001B5FFF7B7FF002848BF10F1000F01BDD4
:100DC0004DF808EDFFF7F4FF0CBF012000205DF89F
:100DD00008FB00BF4DF808EDFFF7EAFF34BF012024
:100DE00000205DF808FB00BF4DF808EDFFF7E0FFBD
:100DF00094BF012000205DF808FB00BF4DF808ED0E
:100E0000FFF7CEFF94BF012000205DF808FB00BF74
:100E10004DF808EDFFF7C4FF34BF012000205DF856
:100E200008FB00BF4FEA410212F5001215D211D59E
:100E30006FF47873B3EB625212D94FEAC12343F0D7
:100E4000004343EA505311F0004F23FA02F018BF59
:100E5000404270474FF00000704750EA013005D122
:100E600011F0004008BF6FF0004070474FF00000E5
:100E7000704700BF4FEA4102B2F1E04324BFB3F52F
:100E8000001CDCF1FE5C0DD901F0004C4FEAC00201
:100E90004CEA5070B2F1004F40EB830008BF20F0E5
:100EA0000100704711F0804F21D113F13872BCBF9F
:100EB00001F00040704741F480114FEA5252C2F1F4
:100EC0001802C2F1200C10FA0CF320FA02F018BF3D
:100ED00040F001004FEAC1234FEAD32303FA0CFC90
:100EE00040EA0C0023FA02F34FEA4303CCE77FEA1F
:100EF000625307D150EA01331EBF4FF0FE4040F469
:100F00004000704701F0004040F0FE4040F4000017
:100F1000704700BF80F0004002E000BF81F0004158
:100F200042001FBF5FEA410392EA030F7FEA226C8F
:100F30007FEA236C6AD04FEA1262D2EB1363C1BF1F
:100F4000D218414048404140B8BF5B42192B88BF8E
:100F5000704710F0004F40F4000020F07F4018BFB1
:100F6000404211F0004F41F4000121F07F4118BFD1
:100F7000494292EA030F3FD0A2F1010241FA03FC79
:100F800010EB0C00C3F1200301FA03F100F0004361
:100F900002D5494260EB4000B0F5000F13D3B0F129
:100FA000807F06D340084FEA310102F10102FE2A98
:100FB00051D2B1F1004F40EBC25008BF20F0010008
:100FC00040EA03007047490040EB000010F4000FB6
:100FD000A2F10102EDD1B0FA80FCACF1080CB2EB49
:100FE0000C0200FA0CF0AABF00EBC25052421843A8
:100FF000BCBFD0401843704792F0000F81F400014D
:1010000006BF80F400000132013BB5E74FEA41031F
:101010007FEA226C18BF7FEA236C21D092EA030F8B
:1010200004D092F0000F08BF0846704790EA010F05
:101030001CBF0020704712F07F4F04D1400028BF32
:1010400040F00040704712F100723CBF00F5000014
:10105000704700F0004343F0FE4040F4000070474A
:101060007FEA226216BF08467FEA236301464202F6
:1010700006BF5FEA412390EA010F40F48000704709
:101080004FF0000304E000BF10F0004348BF4042AF
:101090005FEA000C08BF704743F0964301464FF0EB
:1010A00000001CE050EA010208BF70474FF0000347
:1010B0000AE000BF50EA010208BF704711F0004388
:1010C00002D5404261EB41015FEA010C02BF844658
:1010D0000146002043F0B64308BFA3F18053A3F5B7
:1010E0000003BCFA8CF2083AA3EBC25310DB01FAFE
:1010F00002FC634400FA02FCC2F12002BCF1004F82
:1011000020FA02F243EB020008BF20F00100704712
:1011100002F1200201FA02FCC2F1200250EA4C0066
:1011200021FA02F243EB020008BF20EADC707047AC
:101130004FF0FF0C1CEAD0521EBF1CEAD15392EABA
:101140000C0F93EA0C0F6FD01A4480EA010C400296
:1011500018BF5FEA41211ED04FF0006343EA5010F0
:1011600043EA5111A0FB01310CF00040B1F5000F32
:101170003EBF490041EAD3715B0040EA010062F1E1
:101180007F02FD2A1DD8B3F1004F40EBC25008BFCB
:1011900020F00100704790F0000F0CF0004C08BFE9
:1011A00049024CEA502040EA51207F3AC2BFD2F1B6
:1011B000FF0340EAC250704740F400004FF00003C4
:1011C000013A5DDC12F1190FDCBF00F000407047FE
:1011D000C2F10002410021FA02F1C2F1200200FA3C
:1011E00002FC5FEA310040F1000053EA4C0308BF03
:1011F00020EADC70704792F0000F00F0004C02BF54
:10120000400010F4000F013AF9D040EA0C0093F0CE
:10121000000F01F0004C02BF490011F4000F013B28
:10122000F9D041EA0C018FE70CEAD15392EA0C0F96
:1012300018BF93EA0C0F0AD030F0004C18BF31F001
:10124000004CD8D180EA010000F00040704790F0D7
:10125000000F17BF90F0004F084691F0000F91F07B
:10126000004F14D092EA0C0F01D142020FD193EA41
:101270000C0F03D14B0218BF084608D180EA0100C9
:1012800000F0004040F0FE4040F40000704740F0A5
:10129000FE4040F4400070474FF0FF0C1CEAD05273
:1012A0001EBF1CEAD15392EA0C0F93EA0C0F69D0CF
:1012B000A2EB030280EA010C49024FEA402037D03A
:1012C0004FF0805343EA111143EA10130CF0004031
:1012D0008B4238BF5B0042F17D024FF4000C8B4221
:1012E00024BF5B1A40EA0C00B3EB510F24BFA3EB01
:1012F000510340EA5C00B3EB910F24BFA3EB9103D1
:1013000040EA9C00B3EBD10F24BFA3EBD10340EA2A
:10131000DC001B0118BF5FEA1C1CE0D1FD2A3FF670
:1013200050AF8B4240EBC25008BF20F00100704725
:101330000CF0004C4CEA50207F32C2BFD2F1FF03C8
:1013400040EAC250704740F400004FF00003013AF9
:1013500037E792F0000F00F0004C02BF400010F49D
:10136000000F013AF9D040EA0C0093F0000F01F0B1
:10137000004C02BF490011F4000F013BF9D041EAD3
:101380000C0195E70CEAD15392EA0C0F08D1420206
:101390007FF47DAF93EA0C0F7FF470AF084676E7D9
:1013A00093EA0C0F04D14B023FF44CAF08466EE7B2
:1013B00030F0004C18BF31F0004CCAD130F0004280
:1013C0007FF45CAF31F000437FF43CAF5FE700BFD8
:1013D0004FF0FF3C06E000BF4FF0010C02E000BF01
:1013E0004FF0010C4DF804CD4FEA40024FEA4103A3
:1013F0007FEA226C18BF7FEA236C11D001B052EA59
:10140000530C18BF90EA010F58BFB2EB030088BF1E
:10141000C81738BF6FEAE17018BF40F0010070478D
:101420007FEA226C02D15FEA402C05D17FEA236C6F
:10143000E4D15FEA412CE1D05DF8040B704700BFB6
:10144000844608466146FFE70FB5FFF7C9FF00284D
:1014500048BF10F1000F0FBD4DF808EDFFF7F4FF86
:101460000CBF012000205DF808FB00BF4DF808ED1F
:10147000FFF7EAFF34BF012000205DF808FB00BF42
:101480004DF808EDFFF7E0FF94BF012000205DF864
:1014900008FB00BF4DF808EDFFF7D2FF94BF012015
:1014A00000205DF808FB00BF4DF808EDFFF7C8FF0E
:1014B00034BF012000205DF808FB00BF42000ED2BF
:1014C000B2F1FE4F0BD34FF09E03B3EB126209D47F
:1014D0004FEA002343F0004323FA02F070474FF035
:1014E0000000704712F1610F01D1420202D14FF0AA
:1014F000FF3070474FF00000704700BF0000000051
:1015000090B583B000AF041C081C111C1A1CBB1D35
:101510001C803B1D1880BB1C19803B1C1A802A2094
:1015200004F00CFFBB1D1B881B0A1B041B0C181CA2
:1015300004F01EFFBB1D1B88181C04F019FFBA1D08
:101540003B1D12881B88D3181B041A0CBB1D013AC3
:101550001A80BB1D1B881B0A1B041B0C181C04F0E3
:1015600007FFBB1D1B88181C04F002FF2B2004F092
:10157000E5FEBB1C1B881B0A1B041B0C181C04F07B
:10158000F7FEBB1C1B88181C04F0F2FEBA1C3B1CA7
:1015900012881B88D3181B041A0CBB1C013A1A8032
:1015A000BB1C1B881B0A1B041B0C181C04F0E0FE50
:1015B000BB1C1B88181C04F0DBFEBD4603B090BCAE
:1015C00001BC004790B585B002AF041C081C111C7B
:1015D0001A1CBB1D1C803B1D1880FB1C19703B1C7A
:1015E0001A80154B1A88154B9A4210D1BB1D1888CA
:1015F0003B1D1988FB1C1A783B1C1B883C1C1834AB
:1016000024880094FC69019400F01AF80FE0BB1DD7
:1016100018883B1D1988FB1C1A783B1C1B883C1C36
:10162000183424880094FC69019400F0DBF8BD466E
:1016300003B090BC01BC00470A03002041930000A6
:1016400090B587B000AF041C081C111C1A1CBB1DF0
:101650001C803B1D1880FB1C19703B1C1A80FB6A08
:101660001A68FB1C1978FB6ADB7AC91AFB6A9B882B
:101670000733002B00DA0733DB104B43F96A897913
:101680004B43D3183B61FB6A9988FB6A9B79BA1D6F
:1016900010883A1D1288FFF733FF4E4B80229201CB
:1016A0005A614C4B8022D2015A614B4B4A4AD16855
:1016B000FF2212020A402C210A43DA60454B8022A5
:1016C00012025A61434B802212021A61414B80225E
:1016D000D2011A61414B424A1A80FB6A9B88FA6A1E
:1016E00092795343002B00DA0733DB101A1C3B1CA2
:1016F00014331A805FE03B1C17333A6912781A7072
:101700003B1C163308221A7046E03B1C17331B782B
:101710001B061B16002B02DA3B1C1B8802E03B1C3D
:1017200028331B883A1C0E3213802B4B2A4AD1686F
:10173000FF22120211403A1C0E321288120A1204C1
:10174000120C0A43DA60234B802212025A61214BA9
:10175000802212021A61204B1F4AD168FF22120216
:1017600011403A1C0E3212880A43DA60194B80226B
:1017700012025A61174B802212021A613B1C173366
:101780003A1C1732127852001A703B1C16333A1C5E
:1017900016321278013A1A703B1C16331B78002B54
:1017A000B3D13B6901333B613B1C14333A1C143207
:1017B0001288013A1A803B1C14331B88002B9AD1E3
:1017C000044B802292011A61BD4607B090BC01BC57
:1017D0000047C04600100140000C014002030020F9
:1017E0004AECFFFF90B587B000AF041C081C111C29
:1017F0001A1CBB1D1C803B1D1880FB1C19703B1C58
:101800001A80FB6A1A68FB1C1978FB6ADB7AC91A12
:10181000FB6A9B880733002B00DA0733DB104B434E
:10182000F96A89794B43D3183B61BB1D1B88522051
:10183000191C03F0E1FFFB6A9A88BB1D1B88D318B3
:101840001B041B0C013B1B041B0C5320191C03F035
:10185000D3FF3B1D1B885020191C03F0CDFFFB6AF2
:101860009B791A1C3B1D1B88D3181B041B0C013BC6
:101870001B041B0C5120191C03F0BEFFBB1D1B8851
:101880002120191C03F0B8FF3B1D1B882020191CC8
:1018900003F0B2FF04F0FAF8404B8022D2011A6143
:1018A0003F4B404A1A80FB6A9B88FA6A92795343FD
:1018B000002B00DA0733DB101A1C3B1C14331A8090
:1018C0005FE03B1C17333A6912781A703B1C1633E1
:1018D00008221A7046E03B1C17331B781B061B16A8
:1018E000002B02DA3B1C1B8802E03B1C28331B88C0
:1018F0003A1C0E3213802C4B2B4AD168FF22120265
:1019000011403A1C0E321288120A1204120C0A43B9
:10191000DA60224B802212025A61204B802212028E
:101920001A61214B204AD168FF22120211403A1C51
:101930000E3212880A43DA60184B802212025A6172
:10194000164B802212021A613B1C17333A1C1732C5
:10195000127852001A703B1C16333A1C1632127859
:10196000013A1A703B1C16331B78002BB3D13B692C
:1019700001333B613B1C14333A1C14321288013A88
:101980001A803B1C14331B88002B9AD104F0A4F856
:10199000BD4607B090BC01BC0047C04600100140E6
:1019A000020300204AECFFFF000C014090B585B017
:1019B00002AF041C081C111C1A1CBB1D1C803B1D03
:1019C0001880BB1C19803B1C1A80BB1C1B88013B68
:1019D0001B041B0C1B041B0CBA1D0020115E3A1DBE
:1019E0000020125E1B041B14381C18300088009065
:1019F000081C111C1A1C012305F00EF83B1D1A8847
:101A00003B1C1B88D3181B041B0C013B1B041B0C29
:101A10001B041B0CBA1D0020115E1B041B14BA1CF6
:101A20000020125E381C183000880090081C191C19
:101A3000012304F0F1FF3B1C1B88013B1B041B0C22
:101A40001B041B0CBA1D0020115E3A1D0020125E03
:101A50001B041B14381C183000880090081C111C33
:101A6000012204F0D9FFBB1D1A88BB1C1B88D318A8
:101A70001B041B0C013B1B041B0C1B041A0C3B1C02
:101A80001B88013B1B041B0C1B041B0C12041214AF
:101A9000391D0020095E1B041B14381C18300088F7
:101AA0000090101C012204F0B7FFBD4603B090BCAB
:101AB00001BC004780B500AF204B80221A801F4B2D
:101AC00000229A801D4B17221A811C4B00229A81FA
:101AD0001A4B00221A82194B00229A82174B184A7D
:101AE0001A83164B00229A83144B11221A84134B2B
:101AF00000229A84114B00221A85104B0122524277
:101B00009A850E4B0F4A9A860C4B02221A870B4B72
:101B100000229A87094A40230021D152074A4823CC
:101B20000021D152054A4C230021D152034B81227E
:101B30001A80BD4680BC01BC0047C046002C014055
:101B4000013000008813000080B500AF8023DB0562
:101B500080221A808023DB0550229A808023DB05B7
:101B600000221A818023DB0500229A818023DB0575
:101B700000221A828023DB0500229A828023DB0563
:101B8000C022D2011A838023DB0500229A8380239E
:101B9000DB0510221A848023DB0500229A8480232F
:101BA000DB0508221A858023DB0509229A8580231C
:101BB000DB05104A9A868023DB0505221A878023DD
:101BC000DB0500229A878023DA0540230021D152C9
:101BD0008023DA0548230021D1528023DA054C23E3
:101BE0000021D1528023DB0580221A80BD4680BCB3
:101BF00001BC00478813000080B500AF214B0022D4
:101C00001A60204B00225A601E4B1F4A9A601D4BDF
:101C10000022DA601B4B00221A611A4B00225A6123
:101C2000184B00229A61174B0022DA61154B0022F3
:101C30001A62144B154A5A62124B00229A62114BD7
:101C40000022DA620F4B00221A630E4B00225A6305
:101C50000C4B00229A630B4B0A4A926804210A43F8
:101C60009A60C046074B9A6804231340002BF9D0B2
:101C7000044B044A926801210A439A60BD4680BC25
:101C800001BC00470024014000011600FF0F0000C6
:101C900080B500AF0A4B181C07F030FF084B094A0B
:101CA000128A5A60064B084A9A60054B074ADA6066
:101CB000034B074A1A60BD4680BC01BC0047C046C2
:101CC00008000240640300204C24014078030020F7
:101CD000A525000080B582B000AF3B1D1B221A7005
:101CE0003B1D00225A703B1D00229A703B1D0022B2
:101CF000DA703B1D181C07F0D1FB3B1D12221A7035
:101D00003B1D00225A703B1D00229A703B1D002291
:101D1000DA703B1D181C07F0C1FB3B1D0B221A702B
:101D20003B1D00225A703B1D00229A703B1D002271
:101D3000DA703B1D181C07F0B1FBBD4602B080BC39
:101D400001BC004780B584B002AFBB1D00221A80E1
:101D5000A0235B00BA1D12880092002000211A1CEB
:101D6000F02304F059FE414BBA1D12880092404AFC
:101D7000019218203221002204F0F0FF3B4BBA1DE3
:101D8000128800923B4A01926E203421002204F016
:101D9000E5FF364BBA1D12880092374A019218208F
:101DA0004B210022FFF70EFC344B0022DA80334B2C
:101DB00007221A71314B00225A71304B12221A70CD
:101DC0002E4B00229A722D4B0022DA722B4B0022EE
:101DD0009A812A4B8022D2001A82284BB5225200C7
:101DE0005A80264B1B8A5B081B041B0C1B041A0C15
:101DF000224BDA81214B00221A81214B214A9A6120
:101E00001F4B00225A801E4B00221A711C4B0022CD
:101E10001A801A4B5A881A4BDA80184B1B8A1B04FB
:101E20001A0C174B9A81184B00221A70174B184A3C
:101E30001A60184B134A1A60174B184A1A80184B2D
:101E400000221A80174B184A1A80184B00221A7069
:101E5000FFF730FEFFF778FEFFF7CEFEFFF718FF23
:101E6000BD4602B080BC01BC0047C046E0FF000098
:101E700044010020500100202C01002064030020B8
:101E8000D81C0020A4140020060300208420002079
:101E9000A5F30000F81C0020882000201027000077
:101EA000F41C00200E030020B80B00000C030020DF
:101EB00080B582B000AF0A1CBB1D011C19803B1D00
:101EC0001A80BA1D3B1D0021525E00215B5E9A42C2
:101ED00002DABB1D1B8801E03B1D1B881B041B1481
:101EE000181CBD4602B080BC02BC084780B582B059
:101EF00000AF0A1CBB1D011C19803B1D1A80BA1DB6
:101F00003B1D0021525E00215B5E9A4202DDBB1D3B
:101F10001B8801E03B1D1B881B041B14181CBD46BD
:101F200002B080BC02BC084780B584B000AF021C80
:101F30003960BB1D1A80BB1D1B88181C5C4902F050
:101F4000DBFD031C1B041A0C3B1C0F331A703B1CDB
:101F50000F331B78302213431B061A0E3B681A708E
:101F60003B1C0F331B781B041B0C1A1CD200D21A0B
:101F7000111C49018A1A1201D31A1B011B04190CE6
:101F8000BB1DBA1D12888A181A80BB1D1B88181C1D
:101F9000FA23990002F0B0FD031C1B041A0C3B1C31
:101FA0000F331A703B6801333A1C0F32127830211C
:101FB0000A431206120E1A703B1C0F331B781B04C7
:101FC0001B0C1A1C9201D21A9201D2185200D3187B
:101FD000DB001B04190CBB1DBA1D12888A181A805D
:101FE000BB1D1B88181C642102F086FD031C1B040A
:101FF0001A0C3B1C0F331A703B6802333A1C0F3229
:10200000127830210A431206120E1A703B1C0F334D
:102010001B781B041B0C1A1C5202D21A9200D218F5
:10202000D200D31A9B001B04190CBB1DBA1D1288C9
:102030008A181A80BB1D1B88181C0A2102F05CFD3F
:10204000031C1B041A0C3B1C0F331A703B68033330
:102050003A1C0F32127830210A431206120E1A70FF
:102060003B1C0F331B781B041B0C1A1C5203D21A87
:102070009200D31A5B001B04190CBB1DBA1D1288F9
:102080008A181A803B680433BA1D12881206120E91
:1020900030210A431206120E1A703B6805330022E3
:1020A0001A703B68181CBD4604B080BC02BC0847CF
:1020B0001027000080B500AF8023DB05144A12789A
:1020C00012061216511E134A49008A5A013A120486
:1020D000120C1A858023DB050D4A1278120612169F
:1020E000511E0D4A49008A5A013A1204120C9A856F
:1020F0008023DB058022D205928D1204120C520837
:102100001204120C1A87BD4680BC01BC0047C046B1
:1021100064030020300200206002002080B584B0FB
:1021200002AFB74B1B882B2293431B041A0CB44BF2
:102130001A80B34B1B881A1C04231340002B00D0B9
:1021400056E18023DB058022D20512881204120C8E
:1021500001218A431204120C1A80AA4BA94A9289BF
:102160001204120C06218A431204120C9A81A64B07
:10217000A54A126801218A431A60A34BA24A126839
:1021800006218A431A60A14BA04A52680F210A43D4
:102190005A609F4B9E4A526820218A435A609C4B4A
:1021A0009B4A126802218A431A609A4B1B781B06CD
:1021B0001B160D2B06DC944B974ADA60904B964A1F
:1021C0005A6105E0904B954ADA608D4B934A5A610B
:1021D0008D4B904A128A5A608B4B8B4A12680421AD
:1021E0000A431A60874B8B4A128A1A87854B854AA5
:1021F00092891204120C06218A431204120C9A814D
:10220000804B804A128A1204120C06218A4312045F
:10221000120C1A827F4B1B781B061B160D2B0DDD33
:102220007C4B9B7A002B09D1764B764A928912041B
:10223000120C04210A431204120C9A81784B1A687A
:10224000784B9A425DD1764B734A1A60BB1D0122CE
:1022500052421A80A0235B00BA1D1288009200200F
:1022600000211A1CF02304F0D7FBBB1D1B88009330
:102270006D4B01931420502100221F2304F06EFDAA
:10228000BB1D1B880093694B01931820732100220A
:10229000002304F063FDF8231B02BA1D128800928C
:1022A000634A01921420B421002204F057FDF82360
:1022B0001B02BA1D128800925E4A01925A20B22176
:1022C000002204F04BFDF8231B02BA1D1288009275
:1022D000594A01925A20C821002204F03FFD574B71
:1022E000574A1A804B4B1B781B061A0E554B1A7017
:1022F000554B00221A70554B00221A80404B002289
:102300005A80FFF7D7FE434B1B781B061B160D2B7D
:102310000CDC3F4B3E4A526820210A435A603C4B3A
:102320003B4A91684A4A0A409A6006E0384B384A6C
:102330009268802149000A439A60364BDB7A1B067B
:102340001B16012B0AD12F4B2E4A128C1204120C91
:1023500002218A431204120C1A8409E0294B294AEB
:10236000128C1204120C02210A431204120C1A8459
:10237000354B1B78002B3DD0344B1A88354B9A4295
:1023800012D1324B00221A80334B1B78002B03D121
:102390001B4BFF225A8007E0194B5B88082213432E
:1023A0001B041A0C164B5A80154B1B8880221343B2
:1023B0001B041A0C124B1A80164B1B781B061B169B
:1023C0000D2B05DD104B104A126801210A431A60DB
:1023D0000C4B00229A848023DB058022D2051288D0
:1023E0001204120C01210A431204120C1A8002E09A
:1023F000C04600E0C046BD4602B080BC01BC0047FC
:10240000D81C0020002C01400800024000000240BF
:102410000024014064030020A4140020780300205D
:1024200084200020A5F30000380100202C010020AA
:102430000801002014010020200100200E030020CC
:102440007C1500000603002007030020541F002015
:10245000FFFEFFFFDC05000000030020F0B547464B
:1024600080B486B000AF934B802212021A61924B67
:102470001B881A1C02231340002B43D008E08E4B0C
:102480001A8A8E4B1B8AD31A1B041A0C8A4B1A8287
:10249000894B1A8A894B1B8A9A42F0D2884BDA6898
:1024A000864B1B8A191C854BDB891B041B14CB1A1A
:1024B000191C814B1B8ACB185B00D3181A1C7E4B4E
:1024C0005A617D4B5A697E4BD9687C4B1B8A5B00F5
:1024D000CB189A4208D3784B5A69784B1B8A5B0019
:1024E0005B42D218744B5A61744B9B7A1B061B16C5
:1024F000022B07D1704B1B88202213431B041A0C9C
:102500006D4B1A806C4B1B881A1C04231340002B44
:1025100001D000F0D7FE694B1B781B061B16162B4B
:1025200040DC654B5B697B61664B3B610023BB60B4
:102530003B1C0E33614A128A1A8022E07B691B8899
:102540009B081B041A0C3B691A807B691B88BA68BC
:10255000D318BB603B6902333B617B6902337B610B
:10256000564B1B8A5A00584BD2187B699A4201D8A5
:10257000554B7B613B1C0E333A1C0E321288013ADC
:102580001A803B1C0E331B88002BD7D14B4B1B8A68
:10259000B868191C02F0B0FA031C9B081B041A0C43
:1025A000454BDA81454B1B781B061B16172B07D0B2
:1025B000424B1B781B061B16182B01D000F07FFE28
:1025C000414B7B610023BB603B1C0E3300221A8011
:1025D0000EE07B691B88BA68D318BB607B69023345
:1025E0007B613B1C0E333A1C0E32128801321A807A
:1025F000324B1B8A3A1C0E3212889A42E9D32F4B77
:102600001B8AB868191C02F077FA031C9A08BB1CD5
:102610001A80BB1C1A88284BDA81274B5B697B61C7
:102620002A4B7B603B1C0E3300221A8026E07B691C
:102630001B889B081B041A0CBB1C1B88D31A1B0489
:102640001B0C1B041A0C7B681A807B6802337B60AE
:102650007B6902337B61194B1B8A5B001A1C1A4B86
:10266000D3181A1C7B699A4201D8174B7B613B1C1B
:102670000E333A1C0E32128801321A800F4B1B8A1D
:102680003A1C0E3212889A42D1D3104B7B600D4B0C
:102690003B610A4B1B781B061B16172B04D0182B0B
:1026A00000D104E300F00BFE3B1C0E3300221A8025
:1026B000EDE2C04600080140D81C00206403002061
:1026C00008000240A414002078030020780B0020AA
:1026D0007B6804331B881B041A0CBB1C1B88D31893
:1026E0001B041A0C3B691A803B69023398467B68CD
:1026F0001B881B041B14181CFEF7C6FC031C181CAB
:10270000FEF7A2F8031C0C1C181C211CED4BEC4A14
:10271000FEF7EEF8031C0C1C1D1C261C7B68023304
:102720001B881B041B14181CFEF7AEFC031C181C92
:10273000FEF78AF8031C0C1C181C211CE24AE34B10
:10274000FEF7D6F8031C0C1C281C311C1A1C231C79
:10275000FDF71CFF031C0C1C1D1C261C7B6804338E
:102760001B881B041B14181CFEF78EFC031C181C72
:10277000FEF76AF8031C0C1C181C211CD44AD54B0C
:10278000FEF7B6F8031C0C1C281C311C1A1C231C59
:10279000FDF7FCFE031C0C1C1D1C261C7B6806336D
:1027A0001B881B041B14181CFEF76EFC031C181C52
:1027B000FEF74AF8031C0C1C181C211CC64AC74B08
:1027C000FEF796F8031C0C1C281C311C1A1C231C39
:1027D000FDF7DCFE031C0C1C1D1C261C7B6808334B
:1027E0001B881B041B14181CFEF74EFC031C181C32
:1027F000FEF72AF8031C0C1C181C211CB84AB94B04
:10280000FEF776F8031C0C1C281C311C1A1C231C18
:10281000FDF7BCFE031C0C1C181C211CFEF702FB60
:10282000031C1B041B0C1B041A0CBB1C1B88D31899
:102830001B041B0C424613803B69043398467B689B
:1028400002331B881B041B14181CFEF71DFC031C01
:10285000181CFDF7F9FF031C0C1C181C211CA04AB6
:10286000A04BFEF745F8031C0C1C1D1C261C7B68A6
:1028700004331B881B041B14181CFEF705FC031CE7
:10288000181CFDF7E1FF031C0C1C181C211C964AA8
:10289000964BFEF72DF8031C0C1C281C311C1A1C2F
:1028A000231CFDF773FE031C0C1C1D1C261C7B68DF
:1028B00006331B881B041B14181CFEF7E5FB031CC6
:1028C000181CFDF7C1FF031C0C1C181C211C884A96
:1028D000884BFEF70DF8031C0C1C281C311C1A1C1D
:1028E000231CFDF753FE031C0C1C1D1C261C7B68BF
:1028F00008331B881B041B14181CFEF7C5FB031CA4
:10290000181CFDF7A1FF031C0C1C181C211C7A4A83
:102910007A4BFDF7EDFF031C0C1C281C311C1A1C04
:10292000231CFDF733FE031C0C1C1D1C261C7B689E
:102930000A331B881B041B14181CFEF7A5FB031C81
:10294000181CFDF781FF031C0C1C181C211C5D4B7F
:102950005B4AFDF7CDFF031C0C1C281C311C1A1C04
:10296000231CFDF713FE031C0C1C181C211CFEF776
:1029700059FA031C1B041B0C1B041A0CBB1C1B88E0
:10298000D3181B041B0C424613803B690633984640
:102990007B6802331B881B041B14181CFEF774FB96
:1029A000031C181CFDF750FF031C0C1C181C211CD9
:1029B000444B434AFDF79CFF031C0C1C1D1C261CAA
:1029C0007B6804331B881B041B14181CFEF75CFB7C
:1029D000031C181CFDF738FF031C0C1C181C211CC1
:1029E000454A464BFDF784FF031C0C1C281C311C78
:1029F0001A1C231CFDF7CAFD031C0C1C1D1C261CE5
:102A00007B6806331B881B041B14181CFEF73CFB59
:102A1000031C181CFDF718FF031C0C1C181C211CA0
:102A2000334A344BFDF764FF031C0C1C281C311C7B
:102A30001A1C231CFDF7AAFD031C0C1C1D1C261CC4
:102A40007B6808331B881B041B14181CFEF71CFB37
:102A5000031C181CFDF7F8FE031C0C1C181C211C81
:102A6000214A224BFDF744FF031C0C1C281C311C7F
:102A70001A1C231CFDF78AFD031C0C1C1D1C261CA4
:102A80007B680A331B881B041B14181CFEF7FCFA16
:102A9000031C181CFDF7D8FE031C0C1C181C211C61
:102AA000084B074AFDF724FF031C0C1C281C311C93
:102AB0001A1C231CFDF76AFD031C0C1C20E0C046F9
:102AC0000000000000000000AF946588635DB4BFA3
:102AD0000E2DB29DEFA7E63F4772F90FE9B7DB3F36
:102AE0000E2DB29DEFA7A6BF0E2DB29DEFA7C63F3C
:102AF000738577B988EFED3F4F232D95B723B4BF8A
:102B0000181C211CFEF78EF9031C1B041B0C1B0454
:102B10001A0CBB1C1B88D3181B041B0C42461380C9
:102B20003B690822D21890467B6804331B881B043B
:102B30001B14181CFEF7A8FA031C181CFDF784FED2
:102B4000031C0C1C181C211C5C4B5B4AFDF7D0FEBF
:102B5000031C0C1C1D1C261C7B6806331B881B04D5
:102B60001B14181CFEF790FA031C181CFDF76CFED2
:102B7000031C0C1C181C211C514A524BFDF7B8FEBB
:102B8000031C0C1C281C311C1A1C231CFDF7FEFC0A
:102B9000031C0C1C1D1C261C7B6808331B881B0493
:102BA0001B14181CFEF770FA031C181CFDF74CFED2
:102BB000031C0C1C181C211C434A444BFDF798FEB7
:102BC000031C0C1C281C311C1A1C231CFDF7DEFCEA
:102BD000031C0C1C1D1C261C7B680A331B881B0451
:102BE0001B14181CFEF750FA031C181CFDF72CFED2
:102BF000031C0C1C181C211C354A364BFDF778FEB3
:102C0000031C0C1C281C311C1A1C231CFDF7BEFCC9
:102C1000031C0C1C1D1C261C7B680C331B881B040E
:102C20001B14181CFEF730FA031C181CFDF70CFED1
:102C3000031C0C1C181C211C274A284BFDF758FEAE
:102C4000031C0C1C281C311C1A1C231CFDF79EFCA9
:102C5000031C0C1C181C211CFEF7E4F8031C1B04AD
:102C60001B0C1B041A0CBB1C1B88D3181B041B0C4D
:102C7000424613807B6804337B603B690A333B61C7
:102C80003B1C0E333A1C0E32128801321A80144B50
:102C90001B8A181C052101F02FFF031C1B041B0CB1
:102CA0003A1C0E3212889A4200D211E507E33B1C0F
:102CB0000E3300221A80F2E20E2DB29DEFA7A6BFBE
:102CC0004772F90FE9B7DB3F0E2DB29DEFA7E63F44
:102CD000AF946588635DB4BF000000000000000091
:102CE000640300207B6804331B881B041A0CBB1C84
:102CF0001B88D3181B041A0C3B691A803B690233EA
:102D000098467B681B881B041B14181CFEF7BCF933
:102D1000031C181CFDF798FD031C0C1C181C211C1F
:102D2000EC4BEB4AFDF7E4FD031C0C1C1D1C261CA0
:102D30007B6802331B881B041B14181CFEF7A4F9C4
:102D4000031C181CFDF780FD031C0C1C181C211C07
:102D5000E14AE24BFDF7CCFD031C0C1C281C311C86
:102D60001A1C231CFDF712FC031C0C1C1D1C261C2A
:102D70007B6804331B881B041B14181CFEF784F9A2
:102D8000031C181CFDF760FD031C0C1C181C211CE7
:102D9000D34AD44BFDF7ACFD031C0C1C281C311C82
:102DA0001A1C231CFDF7F2FB031C0C1C1D1C261C0B
:102DB0007B6806331B881B041B14181CFEF764F980
:102DC000031C181CFDF740FD031C0C1C181C211CC7
:102DD000C54AC64BFDF78CFD031C0C1C281C311C7E
:102DE0001A1C231CFDF7D2FB031C0C1C1D1C261CEB
:102DF0007B6808331B881B041B14181CFEF744F95E
:102E0000031C181CFDF720FD031C0C1C181C211CA6
:102E1000B74AB84BFDF76CFD031C0C1C281C311C79
:102E20001A1C231CFDF7B2FB031C0C1C181C211CD4
:102E3000FDF7F8FF031C1B041B0C1B041A0CBB1C26
:102E40001B88D3181B041B0C424613803B690433B8
:102E500098467B681B881B041B14181CFEF714F98A
:102E6000031C181CFDF7F0FC031C0C1C181C211C77
:102E7000984B974AFDF73CFD031C0C1C1D1C261C9F
:102E80007B6802331B881B041B14181CFEF7FCF81C
:102E9000031C181CFDF7D8FC031C0C1C181C211C5F
:102EA000954A964BFDF724FD031C0C1C281C311C75
:102EB0001A1C231CFDF76AFB031C0C1C1D1C261C82
:102EC0007B6804331B881B041B14181CFEF7DCF8FA
:102ED000031C181CFDF7B8FC031C0C1C181C211C3F
:102EE000874A884BFDF704FD031C0C1C281C311C71
:102EF0001A1C231CFDF74AFB031C0C1C1D1C261C62
:102F00007B6806331B881B041B14181CFEF7BCF8D7
:102F1000031C181CFDF798FC031C0C1C181C211C1E
:102F2000794A7A4BFDF7E4FC031C0C1C281C311C6D
:102F30001A1C231CFDF72AFB031C0C1C1D1C261C41
:102F40007B6808331B881B041B14181CFEF79CF8B5
:102F5000031C181CFDF778FC031C0C1C181C211CFE
:102F6000634A644BFDF7C4FC031C0C1C281C311C79
:102F70001A1C231CFDF70AFB031C0C1C181C211C2B
:102F8000FDF750FF031C1B041B0C1B041A0CBB1C7D
:102F90001B88D3181B041B0C424613803B69063365
:102FA00098467B6802331B881B041B14181CFEF711
:102FB0006BF8031C181CFDF747FC031C0C1C181CA9
:102FC000211C4B4A4B4BFDF793FC031C0C1C1D1C96
:102FD000261C7B6804331B881B041B14181CFEF77B
:102FE00053F8031C181CFDF72FFC031C0C1C181CA9
:102FF000211C454A454BFDF77BFC031C0C1C281C7F
:10300000311C1A1C231CFDF7C1FA031C0C1C1D1CCF
:10301000261C7B6806331B881B041B14181CFEF738
:1030200033F8031C181CFDF70FFC031C0C1C181CA8
:10303000211C334A334BFDF75BFC031C0C1C281C82
:10304000311C1A1C231CFDF7A1FA031C0C1C1D1CAF
:10305000261C7B6808331B881B041B14181CFEF7F6
:1030600013F8031C181CFDF7EFFB031C0C1C181CA9
:10307000211C214A214BFDF73BFC031C0C1C281C86
:10308000311C1A1C231CFDF781FA031C0C1C1D1C8F
:10309000261C7B680A331B881B041B14181CFDF7B5
:1030A000F3FF031C181CFDF7CFFB031C0C1C181CA2
:1030B000211C084B064AFDF71BFC031C0C1C281C9A
:1030C000311C1A1C231CFDF761FA031C0C1C1FE0A9
:1030D00000000000000000004F232D95B723B4BF6F
:1030E000738577B988EFED3F0E2DB29DEFA7C63FF0
:1030F0000E2DB29DEFA7A6BFAF946588635DB4BFE8
:103100000E2DB29DEFA7E63F4772F90FE9B7DB3FFF
:10311000181C211CFDF786FE031C1B041B0C1B0442
:103120001A0CBB1C1B88D3181B041B0C42461380B3
:103130003B690822D21890467B6802331B881B0427
:103140001B14181CFDF7A0FF031C181CFDF77CFBCB
:10315000031C0C1C181C211C6E4B6D4AFDF7C8FB90
:10316000031C0C1C1D1C261C7B6804331B881B04C1
:103170001B14181CFDF788FF031C181CFDF764FBCB
:10318000031C0C1C181C211C634A644BFDF7B0FB8C
:10319000031C0C1C281C311C1A1C231CFDF7F6F9FF
:1031A000031C0C1C1D1C261C7B6806331B881B047F
:1031B0001B14181CFDF768FF031C181CFDF744FBCB
:1031C000031C0C1C181C211C554A564BFDF790FB88
:1031D000031C0C1C281C311C1A1C231CFDF7D6F9DF
:1031E000031C0C1C1D1C261C7B6808331B881B043D
:1031F0001B14181CFDF748FF031C181CFDF724FBCB
:10320000031C0C1C181C211C474A484BFDF770FB83
:10321000031C0C1C281C311C1A1C231CFDF7B6F9BE
:10322000031C0C1C1D1C261C7B680A331B881B04FA
:103230001B14181CFDF728FF031C181CFDF704FBCA
:10324000031C0C1C181C211C394A3A4BFDF750FB7F
:10325000031C0C1C281C311C1A1C231CFDF796F99E
:10326000031C0C1C181C211CFDF7DCFD031C1B049B
:103270001B0C1B041A0CBB1C1B88D3181B041B0C37
:10328000424613807B6802337B603B690A333B61B3
:103290003B1C0E333A1C0E32128801321A80264B28
:1032A0001B8A181C052101F027FC031C1B041B0CA6
:1032B0003A1C0E3212889A4200D213E5C0461F4BC8
:1032C0001F4A9A611D4B1B881A1C20231340002B98
:1032D00017D01A4B1B88042213431B041A0C174BDC
:1032E0001A80164B1B88202293431B041A0C134B85
:1032F0001A80124B5B88022213431B041A0C0F4BDB
:103300005A80BD4606B004BC9046F0BC01BC0047E4
:103310000E2DB29DEFA7A6BF0E2DB29DEFA7C63F03
:10332000738577B988EFED3F4F232D95B723B4BF51
:10333000000000000000000064030020D81C0020F2
:10334000A414002080B500AF114B1B8808229343C2
:103350001B041A0C0E4B1A800E4B9B7A002B06D0C6
:103360000B4B1B881A1C02231340002B0BD0084B5D
:103370005A69074B9A61064B5B88042213431B046E
:103380001A0C034B5A80BD4680BC01BC0047C046A6
:10339000D81C00206403002080B500AF8023DB052B
:1033A0008022D20512881204120C01218A431204D1
:1033B000120C1A80BD4680BC01BC004780B582B0AB
:1033C00000AF021CFB1D1A70FB1D1B781B061B1691
:1033D0000C2B02DDFB1D0C221A70FB1D1B781B063B
:1033E0001B16032B02DCFB1D04221A70064BFA1D70
:1033F00012781A71044B1B791B061B16181CBD464C
:1034000002B080BC02BC08476403002080B500AF56
:10341000044B1B791B061B16181CBD4680BC02BC46
:103420000847C0466403002080B582B000AF021C8C
:10343000FB1D1A70FB1D1B781B061B16022B02DDE1
:10344000FB1D02221A70FB1D1B787F2B02D9FB1D6E
:1034500000221A70064BFA1D12785A71044B5B79E0
:103460001B061B16181CBD4602B080BC02BC0847D8
:103470006403002080B500AF044B5B791B061B166C
:10348000181CBD4680BC02BC0847C046640300202F
:1034900080B582B000AF021CBB1D1A80BB1D00218D
:1034A0005A5E0F4B9A4202DABB1D0D4A1A80BB1DB1
:1034B00000215A5EFA235B009A4203DDBB1DFA220B
:1034C00052001A80074BBA1D1288DA80BB1D1B8878
:1034D0001B041B14181CBD4602B080BC02BC08476C
:1034E0000CFEFFFF6403002080B500AF044BDB88B7
:1034F0001B041B14181CBD4680BC02BC0847C046F8
:103500006403002080B582B000AF021CFB1D1A705E
:10351000FB1D1B781B061B16002B02DCFB1D01226A
:103520001A70FB1D1B781B061B16182B02DDFB1DDA
:1035300018221A70064BFA1D12781A70044B1B7869
:103540001B061B16181CBD4602B080BC02BC0847F7
:103550006403002080B500AF044B1B781B061B16CC
:10356000181CBD4680BC02BC0847C046640300204E
:1035700080B582B000AF021CBB1D1A80BB1D0021AC
:103580005B5E002B02DABB1D00221A80BB1D0021EE
:103590005A5E0E4B1B8A2E3BFF3B9A4207DD0B4BBC
:1035A0001B8A2E3BFF3B1B041A0CBB1D1A80074BCA
:1035B000BA1D12885A80054B5B881B041B14181C0B
:1035C000BD4602B080BC02BC0847C0466403002070
:1035D00080B500AF044B5B881B041B14181CBD4650
:1035E00080BC02BC0847C0466403002080B582B09E
:1035F00000AF021CFB1D1A70FB1D1B787F2B02D92C
:10360000FB1D00221A70FB1D1B781B061B16022BCC
:1036100002DDFB1D02221A70064BFA1D12789A7207
:10362000044B9B7A1B061B16181CBD4602B080BCBF
:1036300002BC08476403002080B500AF044B9B7AAE
:103640001B061B16181CBD4680BC02BC0847C046A2
:103650006403002080B582B000AF021CFB1D1A700D
:10366000FB1D1B787F2B02D9FB1D00221A70FB1D4E
:103670001B781B061B16012B02DDFB1D01221A7095
:10368000064BFA1D1278DA72044BDB7A1B061B1606
:10369000181CBD4602B080BC02BC08476403002071
:1036A00080B500AF044BDB7A1B061B16181CBD4609
:1036B00080BC02BC0847C0466403002080B582B0CD
:1036C00000AF021CBB1D1A80BB1D00215A5E0F4BB0
:1036D0009A4202DABB1D0D4A1A80BB1D00215A5EB8
:1036E0009623DB009A4203DDBB1D9622D2001A808E
:1036F000074BBA1D12889A81054B9B891B041B142A
:10370000181CBD4602B080BC02BC084750FBFFFF3E
:103710006403002080B500AF044B9B891B041B147D
:10372000181CBD4680BC02BC0847C046640300208C
:1037300080B582B000AF021CBB1D1A80BB1D1A8869
:103740000E4B9A4203D8BB1D802292001A80BB1DEB
:103750001A888023DB009A4203D9BB1D8022D20045
:103760001A80074BBA1D12881A82054B1B8A181C37
:10377000BD4602B080BC02BC0847C046FF01000045
:103780006403002080B500AF034B1B8A181CBD46A4
:1037900080BC02BC0847C0466403002080B582B0EC
:1037A00000AF021CFB1D1A70FB1D1B78052B02D9F4
:1037B000FB1D05221A70064BFA1D12781A71044B74
:1037C0001B79181CBD4602B080BC02BC0847C0462D
:1037D000D81C002080B500AF034B1B79181CBD46D8
:1037E00080BC02BC0847C046D81C002080B500AF92
:1037F000034B1B88181CBD4680BC02BC0847C04652
:10380000D81C002080B500AF054B1B880422134351
:103810001B041A0C024B1A80BD4680BC01BC004739
:10382000D81C002080B500AF054B1B8804229343B1
:103830001B041A0C024B1A80BD4680BC01BC004719
:10384000D81C002080B500AF044BDB891B041B147F
:10385000181CBD4680BC02BC0847C046D81C0020CE
:1038600080B582B000AF021CBB1D1A80BB1D0021B9
:103870005A5E0F4B9A4202DABB1D0D4A1A80BB1DDD
:1038800000215A5EFA235B009A4203DDBB1DFA2237
:1038900052001A80074BBA1D12881A81BB1D1B8863
:1038A0001B041B14181CBD4602B080BC02BC084798
:1038B0000CFEFFFF6403002080B500AF044B1B89A2
:1038C0001B041B14181CBD4680BC02BC0847C04624
:1038D0006403002080B582B000AF021CBB1D1A80BB
:1038E000064B5A88BB1D1B8813431B041A0C034B41
:1038F0005A80BD4602B080BC01BC0047D81C0020E5
:1039000080B500AFBD4680BC01BC0047F0B587B0B4
:1039100002AFC94B1B78002B00D097E0C74B1A6849
:1039200080235B021340002B00D18FE0C44B1B8827
:1039300001331B041A0CC24B1A80C24B00225A805E
:10394000BF4B1A88C04B9A4265D13B1C0C330022F6
:103950001A8002F009FE3B1C0C331B880093BB4B02
:1039600001936520192100221F2303F0F7F93B1C66
:103970000C331A88B64B0092B64A019205203C21BE
:10398000002203F0EBF93B1C0C331A88B04B009279
:10399000B14A019214205021002203F0DFF93B1CB0
:1039A0000C331A88AA4B0092AC4A0192052064217C
:1039B000002203F0D3F93B1C0C331A88A44B00926D
:1039C000A74A019228207821002203F0C7F93B1C66
:1039D0000C331A889E4B0092A24A01920A208C2135
:1039E000002203F0BBF93B1C0C331A889E4B00925B
:1039F0009E4A01923C20B421002203F0AFF93B1C07
:103A00000C331A88984B0092994A01924820C82199
:103A1000002203F0A3F98A4B1A88964B9A4215D1DB
:103A2000954B1B781B061A0E834B1A70854B5B88CF
:103A3000032213431B041A0C824B5A80814B1B88B0
:103A4000012213431B041A0C7E4B1A808B4B1B78EC
:103A5000002B02D17B4B00225A807A4B5B881A1CC8
:103A600008231340002B09D0764B5B880822934330
:103A70001B041A0C734B5A8002F076FD714B5B8865
:103A80001A1C012313401B061B0E002B0BD06D4B81
:103A90005B88012293431B041A0C6A4B5A8002F084
:103AA00063FD00F0EFFB674B5B881A1C0223134099
:103AB000002B01D100F0B6FB624B5B8802229343DE
:103AC0001B041A0C5F4B5A80A0235B00002200925B
:103AD0000020DA211A1C162302F09EFF6849664B6B
:103AE0001B791B061A16131C9B009B18143BCA1843
:103AF0005D4B00210091634901911020E12103F009
:103B0000CDF8614A5C4B5B791B061B169B00D218F3
:103B1000554B002100915B4901913C20E12103F0CC
:103B2000BDF85A49544B1B781B061B165A1E131C12
:103B30005B009B185B00CA18FC23DB00002100918E
:103B4000504901917320E12103F0A8F850494A4BF4
:103B50009B7A1B061A16131C9B009B18CA184D4B08
:103B60000021009147490191C320E12103F096F81B
:103B7000414BDB7A1B061A0E82235900454B00206D
:103B8000009045480190081CE32103F0E7F82D4B15
:103B90001B79022B31D83B1C0F332A4A12791A7039
:103BA0003B1C0F331A783D4BD200D05A3B1C0F33CD
:103BB0001A783A490223D2008A18D31819883B1C74
:103BC0000F331A78354C0423D200A218D3181A8860
:103BD0003B1C0F331C78314D0623E4002C19E318ED
:103BE0001B880004001409040914120412141B0495
:103BF0001B142B4C0094FDF7D9FE2A4B0022009297
:103C0000204A01920E2000211A1C002303F046F8DE
:103C10000C4B1B881A1C04231340002B46D0224B4C
:103C200000220092174A01920E2000211A1C1F2325
:103C300003F034F845E0C0460703002010E000E040
:103C4000541F0020D81C0020DC0500007401002057
:103C5000FFFF0000800100208C010020980100205F
:103C6000A4010020B0010020FF070000BC010020DB
:103C7000C801002088130000640300200603002010
:103C800030B300089802002084B3000890B3000805
:103C900028B400085FB300000C02002018020020C6
:103CA000E0FF000038B4000844B40008CD4AFC230B
:103CB000DB0000210091CC4901910E20002102F08F
:103CC000EDFFCA4B1A88CA4B9A4258D0C94B1B8881
:103CD00001331B041A0CC74B1A80C64B1B88462B9A
:103CE0004DD13B1C0C3300221A803B1C0C331A882C
:103CF000A0235B000092002000211A1CF02302F098
:103D00008BFE3B1C0C331B880093BB4B0193142090
:103D1000502100221F2303F021F83B1C0C331A888A
:103D2000B64B0092B64A019218207321002203F08C
:103D300015F83B1C0C331A88B04B0092B14A019223
:103D40001420B421002203F009F83B1C0C331A881C
:103D5000AA4B0092AC4A01925A20B221002202F0F2
:103D6000FDFF3B1C0C331A88A44B0092A74A01921A
:103D70005A20C821002202F0F1FF00F0B9FEA44B46
:103D80001B891B041B0C033B1B041B0C0022009211
:103D9000A04A01920220191C0122002302F0DEFF3A
:103DA0009D4BDB881B041B0C7522D31A1B041A0CB9
:103DB0003B1C0C331A803B1C0C3300229B5E102BE7
:103DC00003DC3B1C0C3311221A803B1C0C330022F9
:103DD0009B5ED92B03DD3B1C0C33D9221A808C4B04
:103DE0001B79052B01D1854B00E08C4B3A1C0A3224
:103DF00013803B1C0C331B88033B1B041A0C3B1C1D
:103E00000A331B8800210091824901910220111C74
:103E1000012202F0A3FF7E4B3A1C0C3212881A8159
:103E20007B4BDA887A4B5B79120412141B041B1447
:103E300000210091101C08211A1C052302F0ECFD42
:103E4000FC23DB0000936B2006210122082302F0F3
:103E5000E3FDFC23DB0000936B20062104220123F9
:103E600002F0DAFDFC23DB0000936B200E2104221C
:103E7000012302F0D1FDFC23DB000093D5200621B5
:103E80000122082302F0C8FDFC23DB000093D220AE
:103E900006210422012302F0BFFDFC23DB00009376
:103EA000D2200E210422012302F0B6FDFC23DB0008
:103EB00000936E200A216522012302F0ADFD564BCE
:103EC0005B881B041B14652253431A1C524B1B8A2C
:103ED000101C191C00F010FE031C1B061A0E3B1CC4
:103EE0000F336E321A704C4B1B8A4D48191C00F070
:103EF00003FE031C1B041A0C3B1C0E331A70444BAC
:103F00001B79042B01D13D4B01E0FC23DB003A1C63
:103F10000A3213803B1C0F331B781B041A0C3B1C0A
:103F20000E331B781B041B0C120412141B041B14ED
:103F3000391C0A3109880091101C08211A1C05231C
:103F400002F06AFD3B1C0F331B781B041A0C304B2C
:103F5000DA802F4B3A1C0E3212785A712C4B5B8947
:103F60001B041B0C033B1B041B0C2E4A002100915D
:103F700028490191101C191C0222002302F0EEFEB8
:103F8000254B9B891B041B149B101B041B0C1B043F
:103F90001A0C214BDB881B041B0CD3181B041B0CB5
:103FA0007522D31A1B041A0C3B1C0C331A803B1CC1
:103FB0000C3300229B5E102B03DC3B1C0C331122C4
:103FC0001A803B1C0C3300229B5ED92B03DD3B1C6B
:103FD0000C33D9221A800E4B1B79032B24D1074BAB
:103FE00023E0C0464CB400089802002002030020E1
:103FF0004AEC00000403002038010020E0FF00002C
:104000002C010020080100201401002020010020C4
:10401000D81C0020EC01002064030020FF070000F2
:104020005C760000370100008B4B3A1C0A3213808B
:104030003B1C0C331B88033B1B041A0C87493B1C9D
:104040000A331B880020009085480190081C111C31
:10405000022202F083FE834B3A1C0C3212885A81F2
:10406000814B9B891B041B149B101B041B0C1B0402
:104070001B14181CFDF708F8031C181CFCF7E4FBC4
:10408000031C0C1C181C211C724B714AFCF730FCE1
:10409000031C0C1C1D1C261C734B1B791B061B16BA
:1040A0001A1F724B9200D358181CFCF7CDFB031C4F
:1040B0000C1C281C311C1A1C231CFCF719FC031CAB
:1040C0000C1C181C211CFCF7D5FE031C7B60012373
:1040D0001C1C78686649FDF7DDF9031C002B01D133
:1040E00000231C1C23061B0E002B0BD03B1C0F3384
:1040F00020221A703C1C0A347868FDF7DFF9031C93
:1041000023800EE03B1C0F332D221A707B68802227
:10411000120653403C1C0A34181CFDF7CFF9031C4F
:1041200023803B1C0A331A88524B101C191CFDF7C4
:10413000FBFE4D4B1B791B061B16092B1DDC4E4B42
:104140001A794D4B5A714C4BDA784B4B1A714A4BDA
:104150002E22DA70484B56229A71474B0022DA71B0
:10416000454B3A1C0F3212781A70434B5B78302B58
:104170004ED1414B20225A704AE03F4B20221A7008
:104180003D4B9A783C4B5A703B4BDA783A4B9A70DD
:10419000394B1A79384BDA70374B5A79364B1A71DA
:1041A000354B6D225A71344B56229A71324B002294
:1041B000DA713B1C0E3301221A7013E03B1C0E33E4
:1041C0001B782D4AD35C302B12D13B1C0E331B784D
:1041D000294A2021D1543B1C0E333A1C0E3212784E
:1041E00001321A703B1C0E331B78032BE6D900E01A
:1041F000C0463B1C0E333A1C0E321278013A1A703C
:104200003B1C0E331B781C4A391C0F310978D154E2
:10421000194A1A4B0021009119490191F0200021FF
:1042200002F03CFD0F4B5B881A1C04231340002B4B
:1042300009D00C4B5B88042293431B041A0C094BD6
:104240005A8000F0F1F8BD4605B0F0BC01BC004753
:104250000000000000C8E93F5FB300003701000024
:10426000EC010020D81C00206403002060B300088B
:1042700000000000A51C0020A41C00201E840000DB
:104280009802002080B584B002AFFB1D01221A7095
:1042900021E0FB1D1B781B041B0C1A1C9200D31879
:1042A0001A1C91001A1C0B1CD3181B041B0C0A337C
:1042B0001B041B0C1B041B0C1B041B14584A0092F0
:1042C000181C11210122C82302F0A6FBFB1DFA1DB8
:1042D000127801321A70FB1D1B780B2BD9D9FB1DEC
:1042E00001221A7022E0FB1D1B781B041B0C1A1CF8
:1042F0009200D3181A1C91001A1C0B1CD3181B0413
:104300001B0C11331B041B0C1B041B0C1B041B1468
:1043100096225200424900910A20191C012302F002
:104320007BFBFB1DFA1D127801321A70FB1D1B78F6
:10433000072BD8D996235B003A4A00920A20112114
:104340001A1C012302F068FB96235B00354A009299
:104350000A20D9211A1C012302F05EFB314B009385
:104360000A2011210122C82302F056FB9B235B0087
:104370002C4A0092181C11210122C82302F04CFB88
:10438000FB1D01221A701CE0FB1D1B781B041B0C7B
:104390001A1C9200D3181B041B0C0A331B041B0CA1
:1043A0001B041B0C1B041B141D4A0092181C7321B8
:1043B0000122052302F030FBFB1DFA1D12780132A9
:1043C0001A70FB1D1B783B2BDED9FB1D01221A70D6
:1043D0001CE0FB1D1B781B041B0C1A1C9200D3183D
:1043E0001B041B0C11331B041B0C1B041B0C1B0498
:1043F0001B140B4A00929E20191C0522012302F077
:104400000BFBFB1DFA1D127801321A70FB1D1B7885
:10441000272BDED9BD4602B080BC01BC0047C04698
:10442000CB5A0000FBDE000090B58BB002AFA94B69
:104430001B881A1C40231340002B04D0A64B7B6121
:10444000A64B3B6103E0A64B7B61A64B3B61A14BB6
:104450009A69A54B5B881B041B145B00D318FB6097
:10446000A14B1B8A5A00A14BD218FB689A4206D86E
:104470009D4B1B8A5B005B42FA68D318FB609A4B2A
:10448000DB881B041A0C984B1B891B041B0CD31ACA
:104490001B041A0C3B1C0A331A80FB681A883B1C4D
:1044A0000A331B88D3181B041A0C3B1C1A331A80BE
:1044B0003B1C1A3300215A5E8D4B9A4203DD3B1C94
:1044C0001A338B4A1A803B1C1A3300215A5E894BDF
:1044D0009A4204DC3B1C1A33CE2252001A803B1C49
:1044E0001E330B221A8081E0FB681A883B1C1C33A8
:1044F0001A803B1C1C331A883B1C0A331B88D318B8
:104500001B041A0C3B1C1C331A803B1C1C3300215F
:104510005A5E774B9A4203DD3B1C1C33744A1A8067
:104520003B1C1C3300215A5E724B9A4204DC3B1C3C
:104530001C33CE2252001A803C1C08343B1C1C3316
:1045400000215A5E3B1C1A3300215B5E101C191CB3
:10455000FDF7AEFC031C2380BC1D3B1C1C3300215B
:104560005A5E3B1C1A3300215B5E101C191CFDF7C0
:10457000BDFC031C23803B1C1A333A1C1C321288DE
:104580001A80BB1D1B881B061B0E7522D31A1B0627
:104590001A0E7B691A707B6901337B61BB1D1B8816
:1045A0001B061A0E3B1C08331B881B061B0ED31A56
:1045B0001B061B0E01331B061A0E3B691A703B6962
:1045C00001333B61FB680233FB60474B1B8A5A0097
:1045D000464BD218FB689A4201D8444BFB603B1C07
:1045E0001E333A1C1E32128801321A803B1C1E33C5
:1045F0001A88414B9A4200D876E7404B1B88002B23
:1046000016D03E4B1B88013B1B041A0C3B4B1A80F7
:104610003A4B1B88002B0BD12E4B1B8810221343C7
:104620001B041A0C2B4B1A80354BFA2252001A80AD
:10463000002000F06DF8FFF725FE264B1B88402276
:1046400053401B041A0C234B1A802E4B181C00F0ED
:104650005FF82B4B1B88002B2AD0294B1B88013B72
:104660001B041A0C264B1A80254B1B88002B1FD1CC
:10467000184B1B88102293431B041A0C154B1A80ED
:1046800000230093204B01930B20CC210022002318
:1046900002F064FB002300931C4B0193C420CD2146
:1046A0000022002302F05AFB144BFA2292001A80D7
:1046B000124B1B88002B07D1114B1B88002B03D1F9
:1046C0000E4BFA2292001A80BD4609B090BC01BC84
:1046D0000047C046D81C0020281E00207813002068
:1046E000581F0020FC1C002064030020A41400209C
:1046F000630200009B0100003501000088200020BB
:10470000F41C0020FF0700005C010020680100206D
:1047100080B588B002AF021CBB1D1A80474B1B88B6
:104720001A1C40231340002B51D0454B3B61454B95
:10473000FB603B1C16330B221A8022E03B1C163315
:1047400019883B691B781A1C3B6901333B61FB6884
:104750001B78F8680130F860090409141204121477
:104760001B041B14B81D00880090081C111C01229A
:1047700002F052F93B1C16333A1C163212880132F1
:104780001A803B1C16331A882F4B9A42D6D92B4BD2
:104790001B881A1C10231340002B4AD0BB1D1B88FA
:1047A000002B46D0294B00220092294A01920B206F
:1047B000CC21002202F0D2FA244B00220092254A9A
:1047C0000192C420CD21002202F0C8FA31E0224B30
:1047D0003B61224BFB603B1C16330B221A8022E00C
:1047E0003B1C163319883B691B781A1C3B69013343
:1047F0003B61FB681B78F8680130F8600904091414
:10480000120412141B041B14B81D00880090081C0D
:10481000111C012202F000F93B1C16333A1C16321F
:10482000128801321A803B1C16331A88064B9A42B2
:10483000D6D9BD4606B080BC01BC0047D81C0020BC
:10484000581F0020FC1C002035010000CB5A00003E
:104850005C01002068010020281E00207813002041
:1048600080B500AF514B1B8A1B041B0C1A1C022382
:104870001340002B5DD04D4B9B8E1B041A0C4C4BF0
:104880001A824A4B494A92891204120C02218A4325
:104890001204120C9A81454B444A128C1204120CD9
:1048A00001218A431204120C1A84404B404A118A97
:1048B000404A108A3F4AD2891204120C821A12040A
:1048C000120C8A181204120C1A87384B374A128AB3
:1048D0001204120C04218A431204120C1A82354B62
:1048E0001B781B061B160D2B03DC324B9B7A002B0F
:1048F00009D02E4B2D4A92891204120C04210A432E
:104900001204120C9A812A4B1B88022213431B04A7
:104910001A0C274B1A80254B244A128A1204120CB7
:1049200002218A431204120C1A82234B80221202A3
:104930005A611E4B1B8A1B041B0C1A1C04231340B8
:10494000002B2FD01D4B1D4A126801218A431A608B
:10495000164B164A128A1204120C04218A431204BE
:10496000120C1A82114B114A92891204120C042162
:104970008A431204120C9A818023DB058022D2051F
:1049800012881204120C01218A431204120C1A809C
:10499000FDF764FD064B1B88012213431B041A0C10
:1049A000034B1A80BD4680BC01BC0047002C01406F
:1049B000D81C0020640300200008014008000240C9
:1049C00080B582B000AF204B1A6802231340002B41
:1049D00035D01D4B1C4A126802218A431A601A4BBB
:1049E000DA6CBB1D1A80194B5B69BA1D12889208DC
:1049F0001204120C1A80154B5A69154B1A60134B8E
:104A00005B699A1C114B5A61104B5A69114BD9685A
:104A1000114B1B8A5B00CB189A4208D30B4B5A6987
:104A20000D4B1B8A5B005B42D218084B5A61074B47
:104A30001B88082213431B041A0C044B1A80BD4622
:104A400002B080BC01BC004700240140D81C0020FB
:104A5000F81C0020080002406403002080B500AF6D
:104A60001F4B1A6802231340002B05D01C4B1C4A15
:104A7000526802210A435A60194B1A6804231340F2
:104A8000002B29D0174B174A128A1204110C164A10
:104A90000A401204120C1A82114B114A5268042166
:104AA0000A435A60114B114A126804218A431A6062
:104AB0000C4B0C4A92891204120C02210A43120474
:104AC000120C9A81074B074A128C1204120C012116
:104AD0000A431204120C1A84BD4680BC01BC004774
:104AE00000000240002C0140FDFDFFFF08000240D5
:104AF00080B500AFFEE7C0464A1E08BF7047C0F051
:104B00002481884240F21681114200F01781B0FAE8
:104B100080F3B1FA81F2A2EB0303C3F11F0304A2F5
:104B200002EB03134FF000029F4600BFAFF300807B
:104B3000B0EBC17F00BF42EB020228BFA0EBC17007
:104B4000B0EB817F00BF42EB020228BFA0EB817077
:104B5000B0EB417F00BF42EB020228BFA0EB4170E7
:104B6000B0EB017F00BF42EB020228BFA0EB017057
:104B7000B0EBC16F00BF42EB020228BFA0EBC160E7
:104B8000B0EB816F00BF42EB020228BFA0EB816057
:104B9000B0EB416F00BF42EB020228BFA0EB4160C7
:104BA000B0EB016F00BF42EB020228BFA0EB016037
:104BB000B0EBC15F00BF42EB020228BFA0EBC150C7
:104BC000B0EB815F00BF42EB020228BFA0EB815037
:104BD000B0EB415F00BF42EB020228BFA0EB4150A7
:104BE000B0EB015F00BF42EB020228BFA0EB015017
:104BF000B0EBC14F00BF42EB020228BFA0EBC140A7
:104C0000B0EB814F00BF42EB020228BFA0EB814016
:104C1000B0EB414F00BF42EB020228BFA0EB414086
:104C2000B0EB014F00BF42EB020228BFA0EB0140F6
:104C3000B0EBC13F00BF42EB020228BFA0EBC13086
:104C4000B0EB813F00BF42EB020228BFA0EB8130F6
:104C5000B0EB413F00BF42EB020228BFA0EB413066
:104C6000B0EB013F00BF42EB020228BFA0EB0130D6
:104C7000B0EBC12F00BF42EB020228BFA0EBC12066
:104C8000B0EB812F00BF42EB020228BFA0EB8120D6
:104C9000B0EB412F00BF42EB020228BFA0EB412046
:104CA000B0EB012F00BF42EB020228BFA0EB0120B6
:104CB000B0EBC11F00BF42EB020228BFA0EBC11046
:104CC000B0EB811F00BF42EB020228BFA0EB8110B6
:104CD000B0EB411F00BF42EB020228BFA0EB411026
:104CE000B0EB011F00BF42EB020228BFA0EB011096
:104CF000B0EBC10F00BF42EB020228BFA0EBC10026
:104D0000B0EB810F00BF42EB020228BFA0EB810095
:104D1000B0EB410F00BF42EB020228BFA0EB410005
:104D2000B0EB010F00BF42EB020228BFA0EB010075
:104D3000104670470CBF012000207047B1FA81F285
:104D4000C2F11F0220FA02F0704708B14FF0FF30A5
:104D500000F00EB80029F8D02DE90340FFF7CCFE93
:104D6000BDE8064002FB00F3A1EB0301704700BF62
:104D7000704700BF002103E00A4B5B5843500431E9
:104D800009480A4B42189A42F6D3094A02E0002326
:104D900042F8043B074B9A42F9D304F0FDFA00F0C5
:104DA0000DF87047FCC6000800000020000300203A
:104DB000000300208C200020FEE700002DE9F04FCA
:104DC0005A4C87B05A4F5B4EB847B047A2686FEA5B
:104DD00012316FEA013083B213F4004FADF8163090
:104DE00001D1554B98474FF6DC70544CA047544EB8
:104DF00054494FF6DC707160A047B06810F4004F62
:104E000001D1514A904751484D4E514B70609847DF
:104E1000504A90475049514F884751485149B847E7
:104E200051485049B84751484E49B847504E4D49EE
:104E30005048B847B0475048504E8047504B98476D
:104E4000504F708B0DF11601B847BDF81630032B8B
:104E500003D90027ADF8167000234B4931F81390A1
:104E600049F22833994500F0E8821933994500F05A
:104E700009831C3B994500F0E082DFF84C81434FE9
:104E8000DFF848A1DFF84891002D00F0E982404C9E
:104E90002580404D4049414B0222208898470026FA
:104EA0003F4A404C9047A0473F4C18206421314A6C
:104EB0004FF6FF73ADF8166000960195A047BDF858
:104EC000167018207821394A4FF6FF730097019524
:104ED000A047BDF8167018208C21354A4FF6FF7395
:104EE00000970195A047BDF8167098208C21314A93
:104EF0004FF6FF7300970195A047BDF81670182074
:104F00002D4A4FF6FF73B42100970195A047DFF8B3
:104F1000B4902A4988472A488047DFF8B8B0DFF8BC
:104F2000B880DFF8B8A0A9F8006063E0000C014089
:104F300061550008ED550008A5760008D964000801
:104F40000010014000003083857D000800003033F0
:104F500091990008C190000859560008C1560008F0
:104F600054B4000800380140F4B40008E0B400086C
:104F700081570008CCB40008E1560008C4020020A4
:104F80002D5700083590000890020020A563000806
:104F90000A03002098020020300300200165000869
:104FA000995700085D6E00089D6C0008F80000200D
:104FB00060B400083203002070B4000801760008D5
:104FC0004D64000848030020815B000889580008F0
:104FD000E95A00080C0300204C030020D98A00087D
:104FE000BDF8163013F0010F40F0048113F0080FE4
:104FF00040F0E2808848894E8047B04710F0800F2B
:10500000ADF8160000F0C0808549B1F800E01EF050
:10501000010F00F0B98083484FF29E770688824ADC
:1050200016F0040F4FF000063B464FF0CD004FF056
:105030001401009601950CBF4FF01F09B946A04717
:10504000DFF83CC27949BCF90000D0471421024680
:105050004B46F72000960195A047754A3B46CD2068
:10506000242100960195A047DFF818E26F49BEF9A8
:105070000000D047242102464B46F72000960195B8
:10508000A0476C4ACD2034213B4600960195A047AD
:10509000694B6649B3F90000D047342102464B46BC
:1050A000F72000960195A0473B46CD204421634A56
:1050B00000960195A047624A5C49B2F90000D047CA
:1050C000442102464B46F72000960195A0475D4AD1
:1050D0003B46CD20542100960195A047DFF8A8C19A
:1050E0005249BCF90000D047542102464B46F720F4
:1050F00000960195A0470F20534A14213B46009685
:105100000195A0470F202421504A3B460096019567
:10511000A0470F2034214E4A3B4600960195A047F8
:105120000F2044213B464B4A00960195A047DFF8EB
:10513000F4C0BCF8003013F0020F40F0A98013F067
:10514000080600F04E81002639201421424A4FF211
:105150009E7300960195A047392024213E4A4FF2C4
:105160009E7300960195A047392034213A4A4FF2A8
:105170009E7300960195A04739204421364A4FF28C
:105180009E7300960195A0479BF8002052BBB8F88B
:10519000003013F0010F1DD1B8F8066096B9DFF8A2
:1051A000DCE0BEF8000000283FF41AAFBDF816306E
:1051B00013F0080F3FF41EAFDFF8B4C0274FE047ED
:1051C000B84717E7264BDFF89C9098470022A9F8CC
:1051D0000620E4E7234F23F0010CA7F800C0224982
:1051E0008847D9E7DFF8A4E000208EF800001F4BC5
:1051F0009847CCE71E4A90471E4E04201E4FB047EA
:10520000B84781B2122940F2FA801C482821BDF823
:1052100016300180EAE600BF0D390008ED370008BE
:105220002C030020480300207CB400083003002039
:1052300084B400088CB400081803002094B400085B
:10524000460300209CB40008A4B40008ACB40008D5
:10525000B4B40008B8B40008C4B40008453300086A
:10526000657C00084C030020D16F00081D21000858
:1052700089840008D5380008553500080E03002041
:105280001003002026030020220300200C0300202E
:105290009A4803210A46DFF878C2994B0068E04734
:1052A000DFF898E2974ABEF80030974F52F8231083
:1052B0009348B847924895498847DFF8849287B267
:1052C000B9F800209742C0F0A880DFF874C24FF010
:1052D0000009ACF8007039201421894A4FF29E73FE
:1052E000CDF800900195A047DFF858E203210A4667
:1052F000DEF80000824B864EB0478648DFF804C2D5
:105300000388814A5CF823107D4890477F4F7C4892
:10531000B847814986B20A88964275D3DFF8F8E12A
:105320000027AEF8006039202421754A4FF29E73A1
:10533000DFF8149200970195A04703210A46704BAD
:10534000D9F80000724EB047DFF8C8C1DFF8B4E109
:10535000BCF800906C4B5EF82910694898476B4A7E
:10536000674890476D4986B20A8896425DD3DFF858
:10537000ACC14FF00009ACF8006039203421604A1C
:105380004FF29E73CDF800900195A047DFF8BCE185
:1053900003210122DEF80000594B5D4EB0475B4B04
:1053A00057489847DFF8A8C107469CF80220BCF888
:1053B00000E00392524A442122F807E0039F1618A6
:1053C000CDF800903920B7704FF29E730195A04739
:1053D000DFF850C1BCF8001021F00800ACF8000064
:1053E000D2E6142139207822462300964C4FB84744
:1053F0004C49B1F8009049F008000880A3E64A4BF8
:105400009847BDF81630D3E639202421D200102366
:10541000CDF80090424FB84780E70096392014211C
:10542000D20010233E4EB0474FE700973920342179
:10543000D20010233A4FB84799E7DFF818A1DFF8F8
:105440001891D047C84749F2253883B243450546ED
:1054500044D049F2283B5B4540D0DFF80081334F10
:10546000C047B84749F2413580B2A84219D1304C03
:105470000022ADF816202080708BBDF816102D4E3E
:10548000B04706E5DFF8D480284FC047B8471FFA79
:1054900080FACA4505461CD0DFF8B8A0DFF8B890FE
:1054A000DEE7D047C84749F2253983B24B451FD0C4
:1054B00049F2283C634515D01F4EB04764254FF68E
:1054C000E850A047013D4FF6E850A047013DF6D116
:1054D000F3E7DFF880A0DFF88090D5E4DFF87C8088
:1054E000124FD1E4124C0227ADF816702080C3E7AA
:1054F0000F4C0123ADF816302080BDE71C030020BF
:1055000030030020A4020020110100081502000849
:105510006D8C000820030020902000208C200020AB
:10552000196A0008480300201D210008A56300082F
:105530000A030020B9920008017600082403002025
:105540008E20002060030020140300202803002088
:10555000C0B4000889580008E95A0008815B0008B7
:1055600010B51D4B1D4C1E491C60002059601522B2
:10557000072444F63D619860D86018615A61DC6187
:105580009961186258621A6812F4003F1FD05A6875
:1055900022F0030058605C6844F0010159605A68C9
:1055A00042F4803058600C4C0E494CF2503021606F
:1055B0000D4A9047236813F0007F07D0616821F0FF
:1055C00003026260636843F00200606010BD5C68C3
:1055D00024F480315960E6E70010024081000100A8
:1055E00000841D0081000101D964000830B4134813
:1055F000134D4FF6FF72056005F1004574354560A7
:105600001049C2604FF0333000F1AA4C08600CF52D
:10561000AA00883048600C4C0C48CA600C49606095
:105620000C4B4420E26008605A6822F0E061596047
:10563000586840F000725A6030BC70470008014062
:10564000404444B4000C01400010014000003033DD
:10565000001401400000014010B5002384B00C4C40
:10566000ADF80430ADF80630ADF80830ADF80C30C8
:105670004FF416420C23694620460092ADF80A30DA
:10568000044A904720460121034B984704B010BDBF
:10569000003801408D9500086D97000870B5064DE3
:1056A00006460C4620468021A8470028FAD020460E
:1056B0003146024B984770BD3D980008E1970008BD
:1056C00070B5044600780D4630B1044E2946B04707
:1056D00014F8010F0028F9D170BD00BF9D560008D5
:1056E000114B8020188000224FF4405C10209A80DB
:1056F00005211A819A811A829A82A3F818C09A8386
:1057000040F60F6C188409209A84A3F828C0988565
:10571000998619879A87A3F84020A3F84820A3F810
:105720004C2081221A80704700040040134B8022D5
:105730001A80002046F2600C4FF4885140F6FF7248
:1057400098801881188298821883A3F81CC0198445
:1057500040F2FF7C988440F2FF3118859A858122BF
:1057600098861887A3F83CC0A3F84010A3F8480017
:10577000A3F84C0098811A80704700BF00080040D1
:10578000034B044A00210720996018605A60704753
:1057900010E000E040190100104B002240F6FF71BC
:1057A0001A605A609A60DA601A615A619A61DA6125
:1057B0001A6259629A62DA621A635A639A63986843
:1057C000194640F004029A608B68044A13F0040FF3
:1057D000FAD0916841F001009060704700280140C4
:1057E0004163816841F001038360026812F0020F97
:1057F000FBD0C06C80B270472DE9F84F1F4C204D94
:105800004FF400564FF4804881461E4F02206661D7
:10581000C4F814808B46B847E9684FF4004A01F495
:105820007F4C4CEA1920E860C4F814A0C4F810A01A
:10583000EB68022003F47F4249EA0201E960C4F800
:1058400014A0C4F810A0C4F81080B847EB6803F4A3
:105850007F4C4CEA1B22EA60C4F814A0C4F810A0E4
:10586000E96801F47F404BEA0003EB60C4F814A040
:10587000C4F810A02661BDE8F88F00BF00100140F9
:10588000000C0140D964000870B57D4C4FF40066EF
:105890007C4D266141F28830A84766614FF6E8509A
:1058A000A8474FF6FF70A8474FF6FF70A84726613C
:1058B0004FF6FF70A8474FF6FF70A8474FF6FF70EE
:1058C000A8474FF6FF70A8474FF6FF70A8474FF65E
:1058D000FF70A8474FF6FF70A8474FF6FF70A84724
:1058E0004FF6FF70A8474FF6FF70A84741F2883087
:1058F000654CA84701204FF48071A04702204FF467
:10590000E061A04703203821A04704200021A047E0
:10591000082040F20721A04709200021A0470021CC
:105920000A20A0470C200021A0470D200021A047FD
:105930000F200021A04710200021A047112007219F
:10594000A04712200021A04713200021A0470720D4
:105950000121A04720210720A0474CF25030A84742
:105960004CF25030A847102041F29021A04740F25D
:1059700021211120A0474CF25030A8474CF2503062
:10598000A84781211220A0474CF25030A8474CF282
:105990005030A84713204FF4A851A04729200C21CC
:1059A000A0470D212B20A0474CF25030A8474CF2C5
:1059B0005030A84720200021A04721204FF48071BB
:1059C000A047302040F20331A04731200621A047F4
:1059D00032200121A04735204FF40171A047362025
:1059E0000421A047372040F20741A047382000217A
:1059F000A047392040F20441A0473C2040F2024138
:105A0000A0473D200421A04750200021A04751205D
:105A1000EF21A04752200021A047532040F23F1120
:105A2000A04760204FF41C51A04761200121A047EE
:105A300000216A20A04780200021A047812000216A
:105A4000A04782200021A04783200021A047842076
:105A50000021A04785200021A04790201021A047C9
:105A600092204FF4C061A047072040F23311A047B5
:105A70004CF25030A8474CF25030A84770BD00BFE0
:105A8000000C0140D9640008F9570008F8B50F4C24
:105A90000F4E4FF400514FF48045616102200D4FCD
:105AA0006561B847F3684FF4004503F47F42F26044
:105AB000022065612561B847F16801F47F4040F03C
:105AC0002203F36065612561F8BD00BF001001404D
:105AD000000C0140D9640008024B4FF400521A61D7
