:020000040800F2
:1000000000500020E14000081D5B0008215B000853
:10001000255B0008295B00082D5B0008000000003C
:10002000000000000000000000000000315B00083C
:10003000355B000800000000395B00083D5B0008EC
:1000400025410008254100082541000825410008F8
:1000500025410008254100082541000825410008E8
:1000600025410008254100082541000811320008FB
:1000700025410008254100082541000825410008C8
:100080002541000825410008AD3100082541000840
:1000900025410008254100082541000825410008A8
:1000A0002541000825410008254100088530000849
:1000B0002541000825410008254100082541000888
:1000C0002541000825410008254100082541000878
:1000D0002541000825410008254100082541000868
:1000E00025410008254100082541000800000000C6
:1000F0000000000000000000000000000000000000
:0C01000000000000000000005FF808F1A3
:1001100090B583B000AF041C081C111C1A1CBB1D39
:100120001C803B1D1880BB1C19803B1C1A802A2098
:1001300004F0E6FDBB1D1B881B0A1B041B0C181CCE
:1001400004F0F8FDBB1D1B88181C04F0F3FDBA1D5C
:100150003B1D12881B88D3181B041A0CBB1D013AC7
:100160001A80BB1D1B881B0A1B041B0C181C04F0E7
:10017000E1FDBB1D1B88181C04F0DCFD2B2004F0E6
:10018000BFFDBB1C1B881B0A1B041B0C181C04F0A6
:10019000D1FDBB1C1B88181C04F0CCFDBA1C3B1CF9
:1001A00012881B88D3181B041A0CBB1C013A1A8036
:1001B000BB1C1B881B0A1B041B0C181C04F0BAFD7B
:1001C000BB1C1B88181C04F0B5FDBD4603B090BCD9
:1001D00001BC004790B587B000AF041C081C111C7F
:1001E0001A1CBB1D1C803B1D1880FB1C19703B1C7E
:1001F0001A80FB6A1A68FB1C1978FB6A1B7AC91AF9
:10020000FB6A1B790733002B00DA0733DB104B4303
:10021000F96A49794B43D3183B61FB6A1B79191C76
:10022000FB6A5B79BA1D10883A1D1288FFF770FFD0
:100230004D4B802292015A614B4B8022D2015A6170
:100240004A4B4A4AD168FF2212020A402C210A4333
:10025000DA60454B802212025A61434B802212021F
:100260001A61414B8022D2011A61414B414A1A80E6
:10027000FB6A1B79FA6A52795343002B00DA073381
:10028000DB101A1C3B1C14331A805FE03B1C173335
:100290003A6912781A703B1C163308221A7046E02D
:1002A0003B1C17331B781B061B16002B02DA3B1C6A
:1002B0001B8802E03B1C28331B883A1C0E3213803B
:1002C0002A4B2A4AD168FF22120211403A1C0E32F0
:1002D0001288120A1204120C0A43DA60224B80229E
:1002E00012025A61204B802212021A611F4B1F4AD0
:1002F000D168FF22120211403A1C0E3212880A43C2
:10030000DA60194B802212025A61174B80221202C6
:100310001A613B1C17333A1C1732127852001A70BC
:100320003B1C16333A1C16321278013A1A703B1CE9
:1003300016331B78002BB3D13B6901333B613B1C67
:1003400014333A1C14321288013A1A803B1C1433BD
:100350001B88002B9AD1044B802292011A61BD4662
:1003600007B090BC01BC004700100140000C0140E8
:10037000820100204AECFFFF90B585B002AF041C5B
:10038000081C111C1A1CBB1D1C803B1D1880BB1CAB
:1003900019803B1C1A80BB1C1B88013B1B041B0CD7
:1003A0001B041B0CBA1D0020115E3A1D0020125EBA
:1003B0001B041B14381C183000880090081C111CEA
:1003C0001A1C012304F054FD3B1D1A883B1C1B889A
:1003D000D3181B041B0C013B1B041B0C1B041B0C24
:1003E000BA1D0020115E1B041B14BA1C0020125EF3
:1003F000381C183000880090081C191C012304F0D8
:1004000037FD3B1C1B88013B1B041B0C1B041B0CF6
:10041000BA1D0020115E3A1D0020125E1B041B1441
:10042000381C183000880090081C111C012204F0B0
:100430001FFDBB1D1A88BB1C1B88D3181B041B0C7B
:10044000013B1B041B0C1B041A0C3B1C1B88013BAF
:100450001B041B0C1B041B0C12041214391D00205E
:10046000095E1B041B14381C183000880090101CF7
:10047000012204F0FDFCBD4603B090BC01BC004766
:1004800080B500AF204B80221A801F4B00229A803B
:100490001D4B17221A811C4B00229A811A4B0022F5
:1004A0001A82194B00229A82174B184A1A83164B4C
:1004B00000229A83144B11221A84134B00229A842F
:1004C000114B00221A85104B012252429A850E4B85
:1004D0000F4A9A860C4B02221A870B4B00229A87EE
:1004E000094A40230021D152074A48230021D15212
:1004F000054A4C230021D152034B81221A80BD466C
:1005000080BC01BC0047C046002C01400130000007
:100510008813000080B500AF8023DB0580221A809D
:100520008023DB0550229A808023DB0500221A817C
:100530008023DB0500229A818023DB0500221A82BA
:100540008023DB0500229A828023DB05C022D201B2
:100550001A838023DB0500229A838023DB05102287
:100560001A848023DB0500229A848023DB0508227D
:100570001A858023DB0509229A858023DB05104A32
:100580009A868023DB0505221A878023DB0500225B
:100590009A878023DA0540230021D1528023DA058F
:1005A00048230021D1528023DA054C230021D15267
:1005B0008023DB0580221A80BD4680BC01BC004739
:1005C0008813000080B500AF214B00221A60204B39
:1005D00000225A601E4B1F4A9A601D4B0022DA60AF
:1005E0001B4B00221A611A4B00225A61184B002241
:1005F0009A61174B0022DA61154B00221A62144BE4
:10060000154A5A62124B00229A62114B0022DA629A
:100610000F4B00221A630E4B00225A630C4B002230
:100620009A630B4B0A4A926804210A439A60C046B7
:10063000074B9A6804231340002BF9D0044B044A5B
:10064000926801210A439A60BD4680BC01BC004704
:100650000024014000011600FF0F000080B500AF2C
:100660000A4B181C06F074F8084B094A128A5A60A3
:10067000064B084A9A60054B074ADA60034B074A63
:100680001A60BD4680BC01BC0047C046080002405D
:10069000D80100204C240140EC010020A5250000D9
:1006A00080B582B000AF3B1D1B221A703B1D00229B
:1006B0005A703B1D00229A703B1D0022DA703B1DD0
:1006C000181C05F015FD3B1D12221A703B1D00225F
:1006D0005A703B1D00229A703B1D0022DA703B1DB0
:1006E000181C05F005FD3B1D0B221A703B1D002256
:1006F0005A703B1D00229A703B1D0022DA703B1D90
:10070000181C05F0F5FCBD4602B080BC01BC0047DA
:1007100080B584B002AFBB1D00221A80A0235B000D
:10072000BA1D12880092002000211A1CF02304F048
:100730009FFB414BBA1D12880092404A019218203B
:100740003221002204F01EFC3B4BBA1D128800929D
:100750003B4A01926E203421002204F013FC364BF8
:10076000BA1D12880092374A019218204B210022AC
:10077000FFF730FD344B0022DA80334B07221A7129
:10078000314B00225A71304B12221A702E4B00222C
:100790009A722D4B0022DA722B4B00229A812A4B3F
:1007A0008022D2001A82284BB52252005A80264B52
:1007B0001B8A5B081B041B0C1B041A0C224BDA81DE
:1007C000214B00221A81214B214A9A611F4B0022A2
:1007D0005A801E4B00221A711C4B00221A801A4BA1
:1007E0005A881A4BDA80184B1B8A1B041A0C174BB9
:1007F0009A81184B00221A70174B184A1A60184B2E
:10080000134A1A60174B184A1A80184B00221A8094
:10081000174B184A1A80184B00221A70FFF730FE47
:10082000FFF778FEFFF7CEFEFFF718FFBD4602B0D8
:1008300080BC01BC0047C046E0FF00004C00002027
:100840005800002034000020D8010020181B002090
:100850001813002086010020C41E0020A5F300000C
:10086000381B0020C81E002010270000341B002069
:10087000BE010020B80B00008A01002080B582B0C4
:1008800000AF0A1CBB1D011C19803B1D1A80BA1D3C
:100890003B1D0021525E00215B5E9A4202DABB1DC5
:1008A0001B8801E03B1D1B881B041B14181CBD4644
:1008B00002B080BC02BC084780B582B000AF0A1C01
:1008C000BB1D011C19803B1D1A80BA1D3B1D002158
:1008D000525E00215B5E9A4202DDBB1D1B8801E077
:1008E0003B1D1B881B041B14181CBD4602B080BC9A
:1008F00002BC084780B584B000AF021C3960BB1D44
:100900001A80BB1D1B88181C5C4902F0C5FC031C27
:100910001B041A0C3B1C0F331A703B1C0F331B7843
:10092000302213431B061A0E3B681A703B1C0F3310
:100930001B781B041B0C1A1CD200D21A111C490173
:100940008A1A1201D31A1B011B04190CBB1DBA1DF4
:1009500012888A181A80BB1D1B88181CFA2399005C
:1009600002F09AFC031C1B041A0C3B1C0F331A7078
:100970003B6801333A1C0F32127830210A431206C9
:10098000120E1A703B1C0F331B781B041B0C1A1C15
:100990009201D21A9201D2185200D318DB001B0424
:1009A000190CBB1DBA1D12888A181A80BB1D1B8822
:1009B000181C642102F070FC031C1B041A0C3B1C65
:1009C0000F331A703B6802333A1C0F321278302111
:1009D0000A431206120E1A703B1C0F331B781B04BD
:1009E0001B0C1A1C5202D21A9200D218D200D31A2F
:1009F0009B001B04190CBB1DBA1D12888A181A8093
:100A0000BB1D1B88181C0A2102F046FC031C1B049A
:100A10001A0C3B1C0F331A703B6803333A1C0F321D
:100A2000127830210A431206120E1A703B1C0F3343
:100A30001B781B041B0C1A1C5203D21A9200D31AE7
:100A40005B001B04190CBB1DBA1D12888A181A8082
:100A50003B680433BA1D12881206120E30210A4375
:100A60001206120E1A703B68053300221A703B689A
:100A7000181CBD4604B080BC02BC0847102700000B
:100A800080B500AF8023DB05144A127812061216D7
:100A9000511E134A49008A5A013A1204120C1A854F
:100AA0008023DB050D4A127812061216511E0D4ADC
:100AB00049008A5A013A1204120C9A858023DB05F8
:100AC0008022D205928D1204120C52081204120CCC
:100AD0001A87BD4680BC01BC0047C046D801002033
:100AE000D80000200801002080B584B002AFA44BDC
:100AF0001B882B2293431B041A0CA14B1A80A04B7A
:100B00001B881A1C04231340002B00D030E18023E3
:100B1000DB058022D20512881204120C01218A43BF
:100B20001204120C1A80974B964A126801218A43CC
:100B30001A60944B934A126806218A431A60924BBA
:100B4000914A52680F210A435A60904B1B781B064A
:100B50001B160D2B06DC8B4B8D4ADA60884B8C4ABA
:100B60005A6105E0874B8B4ADA60854B894A5A61A6
:100B7000844B864A128A5A60824B824A1268042148
:100B80000A431A60844B814A128A1A87824B824A2E
:100B900092891204120C06218A431204120C9A81C3
:100BA0007D4B7D4A128A1204120C06218A431204DC
:100BB000120C1A82754B1B781B061B160D2B0DDDB4
:100BC000724B9B7A002B09D1734B734A92891204A2
:100BD000120C04210A431204120C9A816F4B1A68FA
:100BE0006F4B9A425DD16D4B694A1A60BB1D012261
:100BF00052421A80A0235B00BA1D12880092002086
:100C000000211A1CF02304F033F9BB1D1B8800934C
:100C1000644B01931420502100221F2304F0B2F9E9
:100C2000BB1D1B880093604B019318207321002289
:100C3000002304F0A7F9F8231B02BA1D12880092C2
:100C40005A4A01921420B421002204F09BF9F8239F
:100C50001B02BA1D12880092554A01925A20B221F5
:100C6000002204F08FF9F8231B02BA1D12880092AB
:100C7000504A01925A20C821002204F083F94E4BB9
:100C80004E4A1A80414B1B781B061A0E4C4B1A70A9
:100C90004C4B00221A704C4B00221A80384B002219
:100CA0005A804A4B494A526820218A435A60474B2E
:100CB000464A126802218A431A60344B1B781B068D
:100CC0001B160D2B05DC414B404A526820210A437C
:100CD0005A60FFF7D5FE2D4BDB7A1B061B16012B46
:100CE0000AD12D4B2C4A128C1204120C02218A4379
:100CF0001204120C1A8409E0274B274A128C1204A2
:100D0000120C02210A431204120C1A842D4B1B7878
:100D1000002B2FD02C4B1A882D4B9A4212D12A4BE4
:100D200000221A802B4B1B78002B03D1144BFF227F
:100D30005A8007E0124B5B88082213431B041A0CED
:100D40000F4B5A800F4B0F4A126801210A431A6059
:100D5000114B00229A848023DB058022D205128861
:100D60001204120C01210A431204120C1A8002E030
:100D7000C04600E0C046BD4602B080BC01BC004792
:100D8000181B00200800024000000240D80100208B
:100D900018130020EC010020002C0140C41E00208C
:100DA000A5F30000400000203400002010000020C7
:100DB0001C00002028000020BE010020B80B00000D
:100DC0008601002087010020941D0020002401409E
:100DD000DC05000080010020F0B5474680B486B0F5
:100DE00000AF8B4B802212021A618A4B1B881A1C9F
:100DF00002231340002B3AD008E0864B1A8A864B18
:100E00001B8AD31A1B041A0C824B1A82814B1A8A32
:100E1000814B1B8A9A42F0D2804BDA687D4B1B8A49
:100E20005B00D31802331A1C7A4B5A61794B5A690A
:100E30007A4BD968784B1B8A5B00CB189A4208D34F
:100E4000744B5A69744B1B8A5B005B42D218714B1E
:100E50005A61714B9B7A1B061B16022B07D16D4BF7
:100E60001B88202213431B041A0C6A4B1A80694BFF
:100E70001B881A1C04231340002B01D000F0D2FE63
:100E8000654B1B781B061B16162B3CDC614B5B6904
:100E90007B61634B3B610023BB603B1C0E335E4AAE
:100EA000128A1A801FE07B691A883B691A807B6965
:100EB0001B88BA68D318BB603B6902333B617B690E
:100EC00002337B61544B1B8A5A00564BD2187B6904
:100ED0009A4201D8534B7B613B1C0E333A1C0E32B5
:100EE0001288013A1A803B1C0E331B88002BDAD182
:100EF000494B1B8AB868191C02F0CEF9031C1B046D
:100F00001A0C444BDA81444B1B781B061B16172B1B
:100F100007D0414B1B781B061B16182B01D000F085
:100F20007EFE404B7B610023BB603B1C0E330022E6
:100F30001A800EE07B691B88BA68D318BB607B6996
:100F400002337B613B1C0E333A1C0E321288013295
:100F50001A80314B1B8A3A1C0E3212889A42E9D30E
:100F60002D4B1B8AB868191C02F096F9031C1A1C39
:100F7000BB1C1A80BB1C1A88264BDA81254B5B6987
:100F80007B61294B7B603B1C0E3300221A8023E0DF
:100F90007B691A88BB1C1B88D31A1B041B0C1B04FF
:100FA0001A0C7B681A807B6802337B607B69023392
:100FB0007B61194B1B8A5B001A1C1A4BD3181A1C35
:100FC0007B699A4201D8174B7B613B1C0E333A1C5C
:100FD0000E32128801321A800F4B1B8A3A1C0E32D5
:100FE00012889A42D4D3104B7B600D4B3B610A4B65
:100FF0001B781B061B16172B04D0182B00D106E3F9
:1010000000F00DFE3B1C0E3300221A80EFE2C046BA
:1010100000080140181B0020D801002008000240F1
:1010200018130020EC010020EC0900207B68043339
:101030001B881B041A0CBB1C1B88D3181B041A0C1E
:101040003B691A803B69023398467B681B881B0406
:101050001B14181C02F05AFF031C181C02F0BEFBE4
:10106000031C0C1C181C211CEE4BED4A02F00AFC60
:10107000031C0C1C1D1C261C7B6802331B881B04D4
:101080001B14181C02F042FF031C181C02F0A6FBE4
:10109000031C0C1C181C211CE34AE44B02F0F2FB5D
:1010A000031C0C1C281C311C1A1C231C02F038FACF
:1010B000031C0C1C1D1C261C7B6804331B881B0492
:1010C0001B14181C02F022FF031C181C02F086FBE4
:1010D000031C0C1C181C211CD54AD64B02F0D2FB59
:1010E000031C0C1C281C311C1A1C231C02F018FAAF
:1010F000031C0C1C1D1C261C7B6806331B881B0450
:101100001B14181C02F002FF031C181C02F066FBE3
:10111000031C0C1C181C211CC74AC84B02F0B2FB54
:10112000031C0C1C281C311C1A1C231C02F0F8F98F
:10113000031C0C1C1D1C261C7B6808331B881B040D
:101140001B14181C02F0E2FE031C181C02F046FBE4
:10115000031C0C1C181C211CB94ABA4B02F092FB50
:10116000031C0C1C281C311C1A1C231C02F0D8F96F
:10117000031C0C1C181C211C02F096FD031C1B04F4
:101180001B0C1B041A0CBB1C1B88D3181B041B0C48
:10119000424613803B69043398467B6802331B88C0
:1011A0001B041B14181C02F0B1FE031C181C02F0D7
:1011B00015FB031C0C1C181C211CA14AA14B02F09E
:1011C00061FB031C0C1C1D1C261C7B6804331B8844
:1011D0001B041B14181C02F099FE031C181C02F0BF
:1011E000FDFA031C0C1C181C211C974A974B02F09B
:1011F00049FB031C0C1C281C311C1A1C231C02F06C
:101200008FF9031C0C1C1D1C261C7B6806331B88D5
:101210001B041B14181C02F079FE031C181C02F09E
:10122000DDFA031C0C1C181C211C894A894B02F096
:1012300029FB031C0C1C281C311C1A1C231C02F04B
:101240006FF9031C0C1C1D1C261C7B6808331B88B3
:101250001B041B14181C02F059FE031C181C02F07E
:10126000BDFA031C0C1C181C211C7B4A7B4B02F092
:1012700009FB031C0C1C281C311C1A1C231C02F02B
:101280004FF9031C0C1C1D1C261C7B680A331B8891
:101290001B041B14181C02F039FE031C181C02F05E
:1012A0009DFA031C0C1C181C211C5E4B5C4A02F0AE
:1012B000E9FA031C0C1C281C311C1A1C231C02F00C
:1012C0002FF9031C0C1C181C211C02F0EDFC031C44
:1012D0001B041B0C1B041A0CBB1C1B88D3181B04FF
:1012E0001B0C424613803B69063398467B680233E9
:1012F0001B881B041B14181C02F008FE031C181C7E
:1013000002F06CFA031C0C1C181C211C454B444AAF
:1013100002F0B8FA031C0C1C1D1C261C7B6804334D
:101320001B881B041B14181C02F0F0FD031C181C66
:1013300002F054FA031C0C1C181C211C464A474B93
:1013400002F0A0FA031C0C1C281C311C1A1C231CC4
:1013500002F0E6F8031C0C1C1D1C261C7B680633DF
:101360001B881B041B14181C02F0D0FD031C181C46
:1013700002F034FA031C0C1C181C211C344A354B97
:1013800002F080FA031C0C1C281C311C1A1C231CA4
:1013900002F0C6F8031C0C1C1D1C261C7B680833BD
:1013A0001B881B041B14181C02F0B0FD031C181C26
:1013B00002F014FA031C0C1C181C211C224A234B9B
:1013C00002F060FA031C0C1C281C311C1A1C231C84
:1013D00002F0A6F8031C0C1C1D1C261C7B680A339B
:1013E0001B881B041B14181C02F090FD031C181C06
:1013F00002F0F4F9031C0C1C181C211C094B084AB0
:1014000002F040FA031C0C1C281C311C1A1C231C63
:1014100002F086F8031C0C1C22E0C046C046C04601
:101420000000000000000000AF946588635DB4BF59
:101430000E2DB29DEFA7E63F4772F90FE9B7DB3FEC
:101440000E2DB29DEFA7A6BF0E2DB29DEFA7C63FF2
:10145000738577B988EFED3F4F232D95B723B4BF40
:10146000181C211C02F020FC031C1B041B0C1B0479
:101470001A0CBB1C1B88D3181B041B0C4246138080
:101480003B690822D21890467B6804331B881B04F2
:101490001B14181C02F03AFD031C181C02F09EF9E4
:1014A000031C0C1C181C211C5C4B5B4A02F0EAF963
:1014B000031C0C1C1D1C261C7B6806331B881B048C
:1014C0001B14181C02F022FD031C181C02F086F9E4
:1014D000031C0C1C181C211C514A524B02F0D2F95F
:1014E000031C0C1C281C311C1A1C231C02F018F8AD
:1014F000031C0C1C1D1C261C7B6808331B881B044A
:101500001B14181C02F002FD031C181C02F066F9E3
:10151000031C0C1C181C211C434A444B02F0B2F95A
:10152000031C0C1C281C311C1A1C231C01F0F8FF86
:10153000031C0C1C1D1C261C7B680A331B881B0407
:101540001B14181C02F0E2FC031C181C02F046F9E4
:10155000031C0C1C181C211C354A364B02F092F956
:10156000031C0C1C281C311C1A1C231C01F0D8FF66
:10157000031C0C1C1D1C261C7B680C331B881B04C5
:101580001B14181C02F0C2FC031C181C02F026F9E4
:10159000031C0C1C181C211C274A284B02F072F952
:1015A000031C0C1C281C311C1A1C231C01F0B8FF46
:1015B000031C0C1C181C211C02F076FB031C1B04D2
:1015C0001B0C1B041A0CBB1C1B88D3181B041B0C04
:1015D000424613807B6804337B603B690A333B617E
:1015E0003B1C0E333A1C0E32128801321A80144B07
:1015F0001B8A181C052101F04FFE031C1B041B0C49
:101600003A1C0E3212889A4200D20FE507E33B1CC7
:101610000E3300221A80F2E20E2DB29DEFA7A6BF74
:101620004772F90FE9B7DB3F0E2DB29DEFA7E63FFA
:10163000AF946588635DB4BF000000000000000047
:10164000D80100207B6804331B881B041A0CBB1CC8
:101650001B88D3181B041A0C3B691A803B690233A0
:1016600098467B681B881B041B14181C02F04EFC58
:10167000031C181C02F0B2F8031C0C1C181C211CC3
:10168000EC4BEB4A02F0FEF8031C0C1C1D1C261C44
:101690007B6802331B881B041B14181C02F036FCE9
:1016A000031C181C02F09AF8031C0C1C181C211CAB
:1016B000E14AE24B02F0E6F8031C0C1C281C311C2A
:1016C0001A1C231C01F02CFF031C0C1C1D1C261CC7
:1016D0007B6804331B881B041B14181C02F016FCC7
:1016E000031C181C02F07AF8031C0C1C181C211C8B
:1016F000D34AD44B02F0C6F8031C0C1C281C311C26
:101700001A1C231C01F00CFF031C0C1C1D1C261CA6
:101710007B6806331B881B041B14181C02F0F6FBA5
:10172000031C181C02F05AF8031C0C1C181C211C6A
:10173000C54AC64B02F0A6F8031C0C1C281C311C21
:101740001A1C231C01F0ECFE031C0C1C1D1C261C87
:101750007B6808331B881B041B14181C02F0D6FB83
:10176000031C181C02F03AF8031C0C1C181C211C4A
:10177000B74AB84B02F086F8031C0C1C281C311C1D
:101780001A1C231C01F0CCFE031C0C1C181C211C71
:1017900002F08AFA031C1B041B0C1B041A0CBB1C52
:1017A0001B88D3181B041B0C424613803B6904336F
:1017B00098467B681B881B041B14181C02F0A6FBB0
:1017C000031C181C02F00AF8031C0C1C181C211C1A
:1017D000984B974A02F056F8031C0C1C1D1C261C43
:1017E0007B6802331B881B041B14181C02F08EFB41
:1017F000031C181C01F0F2FF031C0C1C181C211CFC
:10180000954A964B02F03EF8031C0C1C281C311C18
:101810001A1C231C01F084FE031C0C1C1D1C261C1E
:101820007B6804331B881B041B14181C02F06EFB1E
:10183000031C181C01F0D2FF031C0C1C181C211CDB
:10184000874A884B02F01EF8031C0C1C281C311C14
:101850001A1C231C01F064FE031C0C1C1D1C261CFE
:101860007B6806331B881B041B14181C02F04EFBFC
:10187000031C181C01F0B2FF031C0C1C181C211CBB
:10188000794A7A4B01F0FEFF031C0C1C281C311C0A
:101890001A1C231C01F044FE031C0C1C1D1C261CDE
:1018A0007B6808331B881B041B14181C02F02EFBDA
:1018B000031C181C01F092FF031C0C1C181C211C9B
:1018C000634A644B01F0DEFF031C0C1C281C311C16
:1018D0001A1C231C01F024FE031C0C1C181C211CC8
:1018E00002F0E2F9031C1B041B0C1B041A0CBB1CAA
:1018F0001B88D3181B041B0C424613803B6906331C
:1019000098467B6802331B881B041B14181C02F0CA
:10191000FDFA031C181C01F061FF031C0C1C181CB1
:10192000211C4B4A4B4B01F0ADFF031C0C1C1D1C32
:10193000261C7B6804331B881B041B14181C02F034
:10194000E5FA031C181C01F049FF031C0C1C181CB1
:10195000211C454A454B01F095FF031C0C1C281C1B
:10196000311C1A1C231C01F0DBFD031C0C1C1D1C6C
:10197000261C7B6806331B881B041B14181C02F0F2
:10198000C5FA031C181C01F029FF031C0C1C181CB1
:10199000211C334A334B01F075FF031C0C1C281C1F
:1019A000311C1A1C231C01F0BBFD031C0C1C1D1C4C
:1019B000261C7B6808331B881B041B14181C02F0B0
:1019C000A5FA031C181C01F009FF031C0C1C181CB1
:1019D000211C214A214B01F055FF031C0C1C281C23
:1019E000311C1A1C231C01F09BFD031C0C1C1D1C2C
:1019F000261C7B680A331B881B041B14181C02F06E
:101A000085FA031C181C01F0E9FE031C0C1C181CB1
:101A1000211C084B064A01F035FF031C0C1C281C36
:101A2000311C1A1C231C01F07BFD031C0C1C1FE045
:101A300000000000000000004F232D95B723B4BF25
:101A4000738577B988EFED3F0E2DB29DEFA7C63FA6
:101A50000E2DB29DEFA7A6BFAF946588635DB4BF9E
:101A60000E2DB29DEFA7E63F4772F90FE9B7DB3FB6
:101A7000181C211C02F018F9031C1B041B0C1B046E
:101A80001A0CBB1C1B88D3181B041B0C424613806A
:101A90003B690822D21890467B6802331B881B04DE
:101AA0001B14181C02F032FA031C181C01F096FEDD
:101AB000031C0C1C181C211C6E4B6D4A01F0E2FE2D
:101AC000031C0C1C1D1C261C7B6804331B881B0478
:101AD0001B14181C02F01AFA031C181C01F07EFEDD
:101AE000031C0C1C181C211C634A644B01F0CAFE29
:101AF000031C0C1C281C311C1A1C231C01F010FD9B
:101B0000031C0C1C1D1C261C7B6806331B881B0435
:101B10001B14181C02F0FAF9031C181C01F05EFEDD
:101B2000031C0C1C181C211C554A564B01F0AAFE24
:101B3000031C0C1C281C311C1A1C231C01F0F0FC7B
:101B4000031C0C1C1D1C261C7B6808331B881B04F3
:101B50001B14181C02F0DAF9031C181C01F03EFEDD
:101B6000031C0C1C181C211C474A484B01F08AFE20
:101B7000031C0C1C281C311C1A1C231C01F0D0FC5B
:101B8000031C0C1C1D1C261C7B680A331B881B04B1
:101B90001B14181C02F0BAF9031C181C01F01EFEDD
:101BA000031C0C1C181C211C394A3A4B01F06AFE1C
:101BB000031C0C1C281C311C1A1C231C01F0B0FC3B
:101BC000031C0C1C181C211C02F06EF8031C1B04C7
:101BD0001B0C1B041A0CBB1C1B88D3181B041B0CEE
:101BE000424613807B6802337B603B690A333B616A
:101BF0003B1C0E333A1C0E32128801321A80264BDF
:101C00001B8A181C052101F047FB031C1B041B0C3D
:101C10003A1C0E3212889A4200D213E5C0461F4B7E
:101C20001F4A9A611D4B1B881A1C20231340002B4E
:101C300017D01A4B1B88042213431B041A0C174B92
:101C40001A80164B1B88202293431B041A0C134B3B
:101C50001A80124B5B88022213431B041A0C0F4B91
:101C60005A80BD4606B004BC9046F0BC01BC00479B
:101C70000E2DB29DEFA7A6BF0E2DB29DEFA7C63FBA
:101C8000738577B988EFED3F4F232D95B723B4BF08
:101C90000000000000000000D8010020181B0020F8
:101CA0001813002080B500AF114B1B880822934306
:101CB0001B041A0C0E4B1A800E4B9B7A002B06D07D
:101CC0000B4B1B881A1C02231340002B0BD0084B14
:101CD0005A69074B9A61064B5B88042213431B0425
:101CE0001A0C034B5A80BD4680BC01BC0047C0465D
:101CF000181B0020D801002080B500AF8023DB0531
:101D00008022D20512881204120C01218A43120487
:101D1000120C1A80BD4680BC01BC004780B582B061
:101D200000AF021CFB1D1A70FB1D1B781B061B1647
:101D30000C2B02DDFB1D0C221A70FB1D1B781B06F1
:101D40001B16032B02DCFB1D04221A70064BFA1D26
:101D500012781A71044B1B791B061B16181CBD4602
:101D600002B080BC02BC0847D801002080B500AF9B
:101D7000044B1B791B061B16181CBD4680BC02BCFD
:101D80000847C046D801002080B582B000AF021CD1
:101D9000FB1D1A70FB1D1B781B061B16022B02DD98
:101DA000FB1D02221A70FB1D1B787F2B02D9FB1D25
:101DB00000221A70064BFA1D12785A71044B5B7997
:101DC0001B061B16181CBD4602B080BC02BC08478F
:101DD000D801002080B500AF044B5B791B061B16B1
:101DE000181CBD4680BC02BC0847C046D801002074
:101DF00080B582B000AF021CBB1D1A80BB1D002243
:101E00009B5E1A1CFF3203DABB1DFF2252421A806E
:101E1000BB1D00229B5EFF2B02DDBB1DFF221A8033
:101E2000064BBA1D1288DA80BB1D1B881B041B14CD
:101E3000181CBD4602B080BC02BC0847D801002077
:101E400080B500AF044BDB881B041B14181CBD4677
:101E500080BC02BC0847C046D801002080B582B0D3
:101E600000AF021CFB1D1A70FB1D1B781B061B1606
:101E7000002B02DCFB1D01221A70FB1D1B781B06C8
:101E80001B16182B02DDFB1D18221A70064BFA1DBB
:101E900012781A70044B1B781B061B16181CBD46C3
:101EA00002B080BC02BC0847D801002080B500AF5A
:101EB000044B1B781B061B16181CBD4680BC02BCBD
:101EC0000847C046D801002080B582B000AF021C90
:101ED000BB1D1A80BB1D00215B5E002B02DABB1DFF
:101EE00000221A80BB1D00215A5E0E4B1B8A2E3B1E
:101EF000FF3B9A4207DD0B4B1B8A2E3BFF3B1B042B
:101F00001A0CBB1D1A80074BBA1D12885A80054B4C
:101F10005B881B041B14181CBD4602B080BC02BCAD
:101F20000847C046D801002080B500AF044B5B884D
:101F30001B041B14181CBD4680BC02BC0847C046CD
:101F4000D801002080B582B000AF021CFB1D1A70C2
:101F5000FB1D1B787F2B02D9FB1D00221A70FB1D75
:101F60001B781B061B16022B02DDFB1D02221A70BA
:101F7000064BFA1D12789A72044B9B7A1B061B16AD
:101F8000181CBD4602B080BC02BC0847D801002026
:101F900080B500AF044B9B7A1B061B16181CBD4670
:101FA00080BC02BC0847C046D801002080B582B082
:101FB00000AF021CFB1D1A70FB1D1B787F2B02D982
:101FC000FB1D00221A70FB1D1B781B061B16012B24
:101FD00002DDFB1D01221A70064BFA1D1278DA721F
:101FE000044BDB7A1B061B16181CBD4602B080BCD6
:101FF00002BC0847D801002080B500AF044BDB7A53
:102000001B061B16181CBD4680BC02BC0847C046F8
:10201000D801002080B582B000AF021CBB1D1A8021
:10202000BB1D00215A5E0F4B9A4202DABB1D0D4ABE
:102030001A80BB1D00215A5E96235B009A4203DD85
:10204000BB1D962252001A80074BBA1D12889A8136
:10205000054B9B891B041B14181CBD4602B080BC99
:1020600002BC0847D4FEFFFFD801002080B500AFB6
:10207000044B9B891B041B14181CBD4680BC02BC6E
:102080000847C046D801002080B582B000AF021CCE
:10209000BB1D1A80BB1D1A880E4B9A4203D8BB1D6C
:1020A000802292001A80BB1D1A888023DB009A428E
:1020B00003D9BB1D8022D2001A80074BBA1D12889B
:1020C0001A82054B1B8A181CBD4602B080BC02BC9C
:1020D0000847C046FF010000D801002080B500AFCE
:1020E000034B1B8A181CBD4680BC02BC0847C04677
:1020F000D801002080B582B000AF021CFB1D1A7011
:10210000FB1D1B78052B02D9FB1D05221A70064BFF
:10211000FA1D12781A71044B1B79181CBD4602B0C7
:1021200080BC02BC0847C046181B002080B500AF29
:10213000034B1B79181CBD4680BC02BC0847C04637
:10214000181B002080B500AF034B1B88181CBD4630
:1021500080BC02BC0847C046181B002080B500AFF9
:10216000054B1B88042213431B041A0C024B1A80D4
:10217000BD4680BC01BC0047181B002080B500AFE5
:10218000054B1B88042293431B041A0C024B1A8034
:10219000BD4680BC01BC0047181B002080B500AFC5
:1021A000044BDB891B041B14181CBD4680BC02BCFD
:1021B0000847C046181B002080B582B000AF021C43
:1021C000BB1D1A80BB1D00229B5E1A1CFF3203DA66
:1021D000BB1DFF2252421A80BB1D00229B5EFF2BBB
:1021E00002DDBB1DFF221A80064BBA1D12881A8120
:1021F000BB1D1B881B041B14181CBD4602B080BCF1
:1022000002BC0847D801002080B500AF044B1B89F1
:102210001B041B14181CBD4680BC02BC0847C046EA
:10222000D801002080B582B000AF021CBB1D1A800F
:10223000064B5A88BB1D1B8813431B041A0C034B07
:102240005A80BD4602B080BC01BC0047181B00206C
:1022500080B500AFBD4680BC01BC0047F0B587B07B
:1022600002AF8A4B1B78002B1BD1894B1A68802345
:102270005B021340002B14D0864B1B8801331B04D8
:102280001A0C844B1A80844B00225A80814B1A8886
:10229000824B9A4205D1824B1B781B061A0E7B4B50
:1022A0001A70804B1B78002B02D17B4B00225A8086
:1022B000794B5B881A1C08231340002B09D0764BFE
:1022C0005B88082293431B041A0C734B5A8002F05C
:1022D00049FE714B5B881A1C012313401B061B0E21
:1022E000002B0BD06C4B5B88012293431B041A0C10
:1022F000694B5A8002F036FE00F0E0FB664B5B88CB
:102300001A1C02231340002B00D1A4E3624B5B880C
:10231000022293431B041A0C5F4B5A80A0235B00DC
:10232000002200920020DA211A1C162302F0A0FDE0
:102330005D495B4B1B791B061A16131C9B009B18EF
:10234000143BCA18594B00210091594901911020A2
:10235000E12102F041FF574A514B5B791B061B16E6
:102360009B00D218514B00210091514901913C2012
:10237000E12102F031FF5049494B1B781B061B1627
:102380005A1E131C5B009B185B00CA18FC23DB0061
:1023900000210091464901917320E12102F01CFFC8
:1023A00046493F4B9B7A1B061A16131C9B009B1831
:1023B000CA18434B002100913D490191C320E121FE
:1023C00002F00AFF364BDB7A1B061A0E82235900F5
:1023D0003B4B002000903B480190081CE32102F099
:1023E000D1FD2D4B1B79022B31D83B1C0F332A4AD0
:1023F00012791A703B1C0F331A78334BD200D05A23
:102400003B1C0F331A7830490223D2008A18D318A4
:1024100019883B1C0F331A782B4C0423D200A218C6
:10242000D3181A883B1C0F331C78274D0623E40071
:102430002C19E3181B880004001409040914120461
:1024400012141B041B14214C0094FDF795FF204B24
:1024500000220092164A01920E2000211A1C00232D
:1024600002F0BAFE0C4B1B881A1C04231340002BED
:1024700032D0184B002200920D4A01920E2000210A
:102480001A1C1F2302F0A8FE31E0C046870100207D
:1024900010E000E0941D0020181B0020DC05000067
:1024A000D80100208601002064720008FF070000A8
:1024B00038010020B8720008C47200085C7300087C
:1024C0005FB30000B4000020C0000020E0FF000067
:1024D0006C73000878730008D14AFC23DB000021EC
:1024E0000091D04901910E20002102F075FECE4BE3
:1024F0001A88CE4B9A4258D0CD4B1B8801331B040F
:102500001A0CCB4B1A80CA4B1B88462B4DD13B1C57
:102510000C3300221A803B1C0C331A88A0235B006A
:102520000092002000211A1CF02302F0A1FC3B1CA9
:102530000C331B880093BF4B0193142050210022C1
:102540001F2302F01FFD3B1C0C331A88BA4B00926C
:10255000BA4A019218207321002202F013FD3B1C9D
:102560000C331A88B44B0092B54A01921420B4215E
:10257000002202F007FD3B1C0C331A88AE4B009280
:10258000B04A01925A20B221002202F0FBFC3B1C0F
:102590000C331A88A84B0092AB4A01925A20C821EA
:1025A000002202F0EFFC00F073FEA84B1B891B0415
:1025B0001B0C033B1B041B0C00220092A44A01923B
:1025C0000220191C0122002302F0DCFCA14BDB8855
:1025D0001B041A0C9F4B1B891B041B0CD3181B04D8
:1025E0001B0C7522D31A1B041A0C3B1C0C331A80CB
:1025F0003B1C0C3300229B5E102B03DC3B1C0C337A
:1026000011221A803B1C0C3300229B5ED92B03DD68
:102610003B1C0C33D9221A808C4B1B79052B01D122
:10262000854B00E08C4B3A1C0A3213803B1C0C3368
:102630001B88033B1B041A0C3B1C0A331B8800211C
:102640000091834901910220111C012202F09AFCA1
:102650007E4B3A1C0C3212881A817C4BDA887B4BF9
:102660005B79120412141B041B1400210091101C2E
:1026700008211A1C052302F0FBFBFC23DB0000935E
:102680006B2006210122082302F0F2FBFC23DB0071
:1026900000936B2006210422012302F0E9FBFC23B6
:1026A000DB0000936B200E210422012302F0E0FBEB
:1026B000FC23DB000093D52006210122082302F031
:1026C000D7FBFC23DB000093D22006210422012348
:1026D00002F0CEFBFC23DB000093D2200E2104226B
:1026E000012302F0C5FBFC23DB0000936E200A21CE
:1026F0006522012302F0BCFB564B5B881B041B14B4
:10270000652253431A1C534B1B8A101C191C00F0E2
:10271000C3FD031C1B061A0E3B1C0F336E321A70CE
:102720004C4B1B8A4D48191C00F0B6FD031C1B04C2
:102730001A0C3B1C0E331A70444B1B79042B01D12D
:102740003D4B01E0FC23DB003A1C0A3213803B1CAA
:102750000F331B781B041A0C3B1C0E331B781B0415
:102760001B0C120412141B041B14391C0A31098897
:102770000091101C08211A1C052302F079FB3B1C58
:102780000F331B781B041A0C304BDA802F4B3A1C8A
:102790000E3212785A712D4B5B891B041B0C033BC4
:1027A0001B041B0C2E4A0021009129490191101C89
:1027B000191C0222002302F0E5FB264B9B891B0417
:1027C0001A0C244BDB881B041B0CD3181B041A0C9B
:1027D000204B1B891B041B0CD3181B041B0C7522DC
:1027E000D31A1B041A0C3B1C0C331A803B1C0C33F1
:1027F00000229B5E102B03DC3B1C0C3311221A8041
:102800003B1C0C3300229B5ED92B03DD3B1C0C339D
:10281000D9221A800D4B1B79032B23D1064B22E0C2
:102820008073000838010020820100204AEC00007B
:102830008401002040000020E0FF00003400002060
:10284000100000201C00002028000020181B002081
:1028500094000020D8010020FF0700005C760000F3
:10286000370100008A4B3A1C0A3213803B1C0C33A0
:102870001B88033B1B041A0C86493B1C0A331B882C
:102880000020009084480190081C111C022202F0D4
:1028900079FB824B3A1C0C3212885A81804B9B89FF
:1028A0001B041B14181C01F031FB031C181C00F046
:1028B00095FF031C0C1C181C211C744B724A00F061
:1028C000E1FF031C0C1C1D1C261C754B1B791B06F1
:1028D0001B161A1F734B9200D358181C00F07EFF72
:1028E000031C0C1C281C311C1A1C231C00F0CAFFE2
:1028F000031C0C1C181C211C01F0FEF9031C7B603E
:1029000001231C1C7868684901F0B6FB031C002BEE
:1029100001D100231C1C23061B0E002B0BD03B1CDB
:102920000F3320221A703C1C0A34786801F0B8FB7F
:10293000031C23800EE03B1C0F332D221A707B6892
:102940008022120653403C1C0A34181C01F0A8FBDC
:10295000031C23803B1C0A331A88544B101C191C7F
:10296000FDF7C8FF4E4B1B791B061B16092B1DDC00
:102970004F4B1A794E4B5A714D4BDA784C4B1A71BA
:102980004B4B2E22DA704A4B56229A71484B00224A
:10299000DA71474B3A1C0F3212781A70444B5B784D
:1029A000302B4ED1424B20225A704AE0404B20221D
:1029B0001A703F4B9A783E4B5A703D4BDA783C4B3D
:1029C0009A703B4B1A793A4BDA70394B5A79384B3B
:1029D0001A71374B6D225A71354B56229A71344B0E
:1029E0000022DA713B1C0E3301221A7013E03B1CEB
:1029F0000E331B782E4AD35C302B12D13B1C0E3386
:102A00001B782B4A2021D1543B1C0E333A1C0E322A
:102A1000127801321A703B1C0E331B78032BE6D957
:102A200000E0C0463B1C0E333A1C0E321278013ACD
:102A30001A703B1C0E331B781D4A391C0F31097864
:102A4000D1541B4A1B4B002100911B490191F020DE
:102A5000002102F0C1FB114B5B881A1C04231340B8
:102A6000002B09D00D4B5B88042293431B041A0CE6
:102A70000A4B5A8000F0F4F8BD4605B0F0BC01BC2A
:102A80000047C046C046C0460000000000C8E93FFD
:102A90005FB300003701000094000020181B0020E5
:102AA000D801002094720008000000008D01002071
:102AB0008C0100201E8400003801002080B584B005
:102AC00002AFFB1D01221A7021E0FB1D1B781B04C5
:102AD0001B0C1A1C9200D3181A1C91001A1C0B1CF8
:102AE000D3181B041B0C0A331B041B0C1B041B0CEC
:102AF0001B041B14584A0092181C11210122C823E0
:102B000002F0B6F9FB1DFA1D127801321A70FB1D96
:102B10001B780B2BD9D9FB1D01221A7022E0FB1D5B
:102B20001B781B041B0C1A1C9200D3181A1C910052
:102B30001A1C0B1CD3181B041B0C11331B041B0C7D
:102B40001B041B0C1B041B149622520042490091CB
:102B50000A20191C012302F08BF9FB1DFA1D1278C3
:102B600001321A70FB1D1B78072BD8D996235B0006
:102B70003A4A00920A2011211A1C012302F078F926
:102B800096235B00354A00920A20D9211A1C0123A2
:102B900002F06EF9314B00930A2011210122C82363
:102BA00002F066F99B235B002C4A0092181C11214D
:102BB0000122C82302F05CF9FB1D01221A701CE0FF
:102BC000FB1D1B781B041B0C1A1C9200D3181B0442
:102BD0001B0C0A331B041B0C1B041B0C1B041B14B7
:102BE0001D4A0092181C73210122052302F040F9AE
:102BF000FB1DFA1D127801321A70FB1D1B783B2B4E
:102C0000DED9FB1D01221A701CE0FB1D1B781B0482
:102C10001B0C1A1C9200D3181B041B0C11331B0431
:102C20001B0C1B041B0C1B041B140B4A00929E2044
:102C3000191C0522012302F01BF9FB1DFA1D127855
:102C400001321A70FB1D1B78272BDED9BD4602B05E
:102C500080BC01BC0047C046CB5A0000FBDE000030
:102C600090B58BB002AFA34B1B881A1C8023134076
:102C7000002B04D0A04B7B61A04B3B6103E0A04B39
:102C80007B61A04B3B619B4B9A699F4B5B881B040C
:102C90001B145B00D318FB609B4B1B8A5A009B4B99
:102CA000D218FB689A4206D8974B1B8A5B005B429E
:102CB000FA68D318FB603B1C0A33934AD2881A8007
:102CC000FB681A883B1C0A331B88D3181B041A0C98
:102CD0003B1C1A331A803B1C1A3300215A5E8C4B62
:102CE0009A4203DD3B1C1A33894A1A803B1C1A3373
:102CF00000215A5E874B9A4203DC3B1C1A33864AFA
:102D00001A803B1C1E330B221A8080E0FB681A8855
:102D10003B1C1C331A803B1C1C331A883B1C0A3397
:102D20001B88D3181B041A0C3B1C1C331A803B1C39
:102D30001C3300215A5E764B9A4203DD3B1C1C3348
:102D4000734A1A803B1C1C3300215A5E714B9A4215
:102D500003DC3B1C1C33704A1A803C1C08343B1CAF
:102D60001C3300215A5E3B1C1A3300215B5E101C91
:102D7000191CFDF783FD031C2380BC1D3B1C1C3369
:102D800000215A5E3B1C1A3300215B5E101C191C8B
:102D9000FDF792FD031C23803B1C1A333A1C1C32A6
:102DA00012881A80BB1D1B881B061B0E7522D31AA6
:102DB0001B061A0E7B691A707B6901337B61BB1D90
:102DC0001B881B061A0E3B1C08331B881B061B0E98
:102DD000D31A1B061B0E01331B061A0E3B691A7011
:102DE0003B6901333B61FB680233FB60464B1B8A46
:102DF0005A00464BD218FB689A4201D8434BFB60FD
:102E00003B1C1E333A1C1E32128801321A803B1CB6
:102E10001E331A88414B9A4200D877E7404B1B88F3
:102E2000002B16D03E4B1B88013B1B041A0C3C4B5D
:102E30001A803B4B1B88002B0BD12E4B1B8810227A
:102E400013431B041A0C2B4B1A80364BFA225200E8
:102E50001A80002000F06EF8FFF730FE254B1B882B
:102E6000802253401B041A0C224B1A802E4B181C34
:102E700000F060F82B4B1B88002B2AD0294B1B88B5
:102E8000013B1B041A0C274B1A80264B1B88002B76
:102E90001FD1184B1B88102293431B041A0C154B8F
:102EA0001A8000230093214B01930B20CC21002298
:102EB000002302F067F8002300931D4B0193C42008
:102EC000CD210022002302F05DF8154BFA2292007A
:102ED0001A80134B1B88002B07D1124B1B88002B29
:102EE00003D10F4BFA2292001A80BD4609B090BC64
:102EF00001BC0047181B0020681C0020EC110020BA
:102F0000981D00203C1B0020D80100201813002031
:102F1000630800009B0700009C07000035010000CB
:102F2000C81E0020341B0020FF07000064000020A2
:102F30007000002080B588B002AF021CBB1D1A8053
:102F4000474B1B881A1C80231340002B51D0454B44
:102F50003B61454BFB603B1C16330B221A8022E081
:102F60003B1C163319883B691B781A1C3B690133DB
:102F70003B61FB681B78F8680130F86009040914AC
:102F8000120412141B041B14B81D00880090081CA6
:102F9000111C012201F06CFF3B1C16333A1C163247
:102FA000128801321A803B1C16331A882F4B9A4222
:102FB000D6D92B4B1B881A1C10231340002B4AD048
:102FC000BB1D1B88002B46D0294B00220092294AAA
:102FD00001920B20CC21002201F0D4FF244B0022CF
:102FE0000092254A0192C420CD21002201F0CAFF9F
:102FF00031E0224B3B61224BFB603B1C16330B2222
:103000001A8022E03B1C163319883B691B781A1C76
:103010003B6901333B61FB681B78F8680130F8605D
:1030200009040914120412141B041B14B81D00888F
:103030000090081C111C012201F01AFF3B1C1633E2
:103040003A1C1632128801321A803B1C16331A8839
:10305000064B9A42D6D9BD4606B080BC01BC00479B
:10306000181B0020981D00203C1B0020350100008B
:10307000CB5A00006400002070000020681C002073
:10308000EC11002080B500AF444B1B8A1B041B0CC5
:103090001A1C02231340002B49D0404B9B8E1B046B
:1030A0001A0C3F4B1A823D4B3C4A92891204120C77
:1030B00002218A431204120C9A81384B384A118A31
:1030C000384A108A374AD2891204120C821A120422
:1030D000120C8A181204120C1A87324B1B781B062A
:1030E0001B160D2B03DC2F4B9B7A002B09D02B4B8F
:1030F0002A4A92891204120C04210A431204120C67
:103100009A81274B1B88022213431B041A0C244B61
:103110001A80224B214A128A1204120C02218A437D
:103120001204120C1A82204B802212025A611B4B8D
:103130001B8A1B041B0C1A1C04231340002B29D0D0
:10314000164B164A128A1204120C04218A431204E6
:10315000120C1A82114B114A92891204120C04218A
:103160008A431204120C9A818023DB058022D20547
:1031700012881204120C01218A431204120C1A80C4
:10318000FDF72AFE064B1B88012213431B041A0C71
:10319000034B1A80BD4680BC01BC0047002C014097
:1031A000181B0020D80100200008014080B500AFA6
:1031B000134B1B88082213431B041A0C104B1A8054
:1031C0000F4B5A690F4B1A600D4B5B699A1C0C4BE5
:1031D0005A610B4B5A690C4BD9680C4B1B8A5B002C
:1031E000CB189A4208D3064B5A69084B1B8A5B00DE
:1031F0005B42D218024B5A61BD4680BC01BC0047FD
:10320000181B0020381B002008000240D8010020B5
:1032100080B500AF1A4B1A6802231340002B05D06B
:10322000174B174A526802210A435A60144B1A6816
:1032300004231340002B1FD0124B124A128A12048F
:10324000110C114A0A401204120C1A820C4B0C4A3F
:10325000526804210A435A600C4B0C4A126804213C
:103260008A431A60074B074A92891204120C022102
:103270000A431204120C9A81BD4680BC01BC00476F
:1032800000000240002C0140FDFDFFFF080002404D
:1032900080B500AFFEE7C0464A1E08BF7047C0F0C9
:1032A0002481884240F21681114200F01781B0FA61
:1032B00080F3B1FA81F2A2EB0303C3F11F0304A26E
:1032C00002EB03134FF000029F4600BFAFF30080F4
:1032D000B0EBC17F00BF42EB020228BFA0EBC17080
:1032E000B0EB817F00BF42EB020228BFA0EB8170F0
:1032F000B0EB417F00BF42EB020228BFA0EB417060
:10330000B0EB017F00BF42EB020228BFA0EB0170CF
:10331000B0EBC16F00BF42EB020228BFA0EBC1605F
:10332000B0EB816F00BF42EB020228BFA0EB8160CF
:10333000B0EB416F00BF42EB020228BFA0EB41603F
:10334000B0EB016F00BF42EB020228BFA0EB0160AF
:10335000B0EBC15F00BF42EB020228BFA0EBC1503F
:10336000B0EB815F00BF42EB020228BFA0EB8150AF
:10337000B0EB415F00BF42EB020228BFA0EB41501F
:10338000B0EB015F00BF42EB020228BFA0EB01508F
:10339000B0EBC14F00BF42EB020228BFA0EBC1401F
:1033A000B0EB814F00BF42EB020228BFA0EB81408F
:1033B000B0EB414F00BF42EB020228BFA0EB4140FF
:1033C000B0EB014F00BF42EB020228BFA0EB01406F
:1033D000B0EBC13F00BF42EB020228BFA0EBC130FF
:1033E000B0EB813F00BF42EB020228BFA0EB81306F
:1033F000B0EB413F00BF42EB020228BFA0EB4130DF
:10340000B0EB013F00BF42EB020228BFA0EB01304E
:10341000B0EBC12F00BF42EB020228BFA0EBC120DE
:10342000B0EB812F00BF42EB020228BFA0EB81204E
:10343000B0EB412F00BF42EB020228BFA0EB4120BE
:10344000B0EB012F00BF42EB020228BFA0EB01202E
:10345000B0EBC11F00BF42EB020228BFA0EBC110BE
:10346000B0EB811F00BF42EB020228BFA0EB81102E
:10347000B0EB411F00BF42EB020228BFA0EB41109E
:10348000B0EB011F00BF42EB020228BFA0EB01100E
:10349000B0EBC10F00BF42EB020228BFA0EBC1009E
:1034A000B0EB810F00BF42EB020228BFA0EB81000E
:1034B000B0EB410F00BF42EB020228BFA0EB41007E
:1034C000B0EB010F00BF42EB020228BFA0EB0100EE
:1034D000104670470CBF012000207047B1FA81F2FE
:1034E000C2F11F0220FA02F0704708B14FF0FF301E
:1034F00000F00EB80029F8D02DE90340FFF7CCFE0C
:10350000BDE8064002FB00F3A1EB0301704700BFDA
:10351000704700BF81F0004102E000BF83F000432C
:1035200030B54FEA41044FEA430594EA050F08BF5E
:1035300090EA020F1FBF54EA000C55EA020C7FEA22
:10354000645C7FEA655C00F0E2804FEA5454D4EB9F
:103550005555B8BF6D420CDD2C4480EA020281EA69
:10356000030382EA000083EA010180EA020281EAA1
:103570000303362D88BF30BD11F0004F4FEA0131F3
:103580004FF4801C4CEA113102D0404261EB410102
:1035900013F0004F4FEA03334CEA133302D0524288
:1035A00063EB430394EA050F00F0A780A4F1010444
:1035B000D5F1200E0DDB02FA0EFC22FA05F280187E
:1035C00041F1000103FA0EF2801843FA05F3594164
:1035D0000EE0A5F120050EF1200E012A03FA0EFCE3
:1035E00028BF4CF0020C43FA05F3C01851EBE3710D
:1035F00001F0004507D54FF0000EDCF1000C7EEB2A
:1036000000006EEB0101B1F5801F1BD3B1F5001F67
:103610000CD349085FEA30004FEA3C0C04F1010486
:103620004FEA445212F5800F80F09A80BCF1004FAF
:1036300008BF5FEA500C50F1000041EB045141EA31
:10364000050130BD5FEA4C0C404141EB010111F432
:10365000801FA4F10104E9D191F0000F04BF0146DD
:103660000020B1FA81F308BF2033A3F10B03B3F1BB
:1036700020020CDA0C3208DD02F1140CC2F10C024B
:1036800001FA0CF021FA02F10CE002F11402D8BFA9
:10369000C2F1200C01FA02F120FA0CFCDCBF41EA75
:1036A0000C019040E41AA2BF01EB0451294330BD44
:1036B0006FEA04041F3C1CDA0C340EDC04F1140421
:1036C000C4F1200220FA04F001FA02F340EA0300F8
:1036D00021FA04F345EA030130BDC4F10C04C4F13E
:1036E000200220FA02F001FA04F340EA030029461E
:1036F00030BD21FA04F0294630BD94F0000F83F468
:10370000801306BF81F480110134013D4EE77FEA4A
:10371000645C18BF7FEA655C29D094EA050F08BF96
:1037200090EA020F05D054EA000C04BF1946104677
:1037300030BD91EA030F1EBF0021002030BD5FEABB
:10374000545C05D14000494128BF41F0004130BDE3
:1037500014F580043CBF01F5801130BD01F0004537
:1037600045F0FE4141F470014FF0000030BD7FEAAA
:10377000645C1ABF194610467FEA655C1CBF0B46A5
:10378000024650EA013406BF52EA033591EA030FBC
:1037900041F4002130BD00BF90F0000F04BF0021B4
:1037A000704730B54FF4806404F132044FF00005E7
:1037B0004FF0000150E700BF90F0000F04BF002160
:1037C000704730B54FF4806404F1320410F00045C6
:1037D00048BF40424FF000013EE700BF42004FEAC1
:1037E000E2014FEA31014FEA02701FBF12F07F433E
:1037F00093F07F4F81F06051704792F0000F14BF3B
:1038000093F07F4F704730B54FF4607401F000457E
:1038100021F0004120E700BF50EA010208BF7047D5
:1038200030B54FF000050AE050EA010208BF7047CA
:1038300030B511F0004502D5404261EB41014FF433
:10384000806404F132045FEA915C3FF4DCAE4FF037
:1038500003025FEADC0C18BF03325FEADC0C18BF1E
:10386000033202EBDC02C2F1200300FA03FC20FA6F
:1038700002F001FA03FE40EA0E0021FA02F11444BC
:10388000C1E600BF70B54FF0FF0C4CF4E06C1CEAD1
:1038900011541DBF1CEA135594EA0C0F95EA0C0F46
:1038A00000F0DEF82C4481EA030621EA4C5123EAB9
:1038B0004C5350EA013518BF52EA033541F48011E8
:1038C00043F4801338D0A0FB02CE4FF00005E1FB9B
:1038D00002E506F00042E0FB03E54FF00006E1FBE5
:1038E00003569CF0000F18BF4EF0010EA4F1FF0428
:1038F000B6F5007F64F5407404D25FEA4E0E6D4168
:1039000046EB060642EAC62141EA55514FEAC52078
:1039100040EA5E504FEACE2EB4F1FD0C88BFBCF5F4
:10392000E06F1ED8BEF1004F08BF5FEA500E50F1A5
:10393000000041EB045170BD06F0004646EA01016B
:1039400040EA020081EA0301B4EB5C04C2BFD4EB9D
:103950000C0541EA045170BD41F480114FF0000E96
:10396000013C00F3AB8014F1360FDEBF002001F004
:10397000004170BDC4F10004203C35DA0C341BDC7E
:1039800004F11404C4F1200500FA05F320FA04F050
:1039900001FA05F240EA020001F0004221F0004184
:1039A00010EBD37021FA04F642EB06015EEA430EF7
:1039B00008BF20EAD37070BDC4F10C04C4F1200527
:1039C00000FA04F320FA05F001FA04F240EA0200DA
:1039D00001F0004110EBD37041F100015EEA430EAB
:1039E00008BF20EAD37070BDC4F1200500FA05F2CB
:1039F0004EEA020E20FA04F301FA05F243EA02034A
:103A000021FA04F001F0004121FA04F220EA020058
:103A100000EBD3705EEA430E08BF20EAD37070BD9E
:103A200094F0000F0FD101F00046400041EB01017E
:103A300011F4801F08BF013CF7D041EA060195F060
:103A4000000F18BF704703F00046520043EB03031A
:103A500013F4801F08BF013DF7D043EA0603704707
:103A600094EA0C0F0CEA135518BF95EA0C0F0CD012
:103A700050EA410618BF52EA4306D1D181EA030158
:103A800001F000414FF0000070BD50EA410606BF52
:103A90001046194652EA430619D094EA0C0F02D197
:103AA00050EA013613D195EA0C0F05D152EA0336DC
:103AB0001CBF104619460AD181EA030101F00041FA
:103AC00041F0FE4141F470014FF0000070BD41F043
:103AD000FE4141F4780170BD70B54FF0FF0C4CF41D
:103AE000E06C1CEA11541DBF1CEA135594EA0C0F3C
:103AF00095EA0C0F00F0A7F8A4EB050481EA030E89
:103B000052EA03354FEA013100F088804FEA03336F
:103B10004FF0805545EA131343EA12634FEA02223D
:103B200045EA111545EA10654FEA00260EF00041FE
:103B30009D4208BF964244F1FD0404F5407402D250
:103B40005B084FEA3202B61A65EB03055B084FEAE1
:103B500032024FF480104FF4002CB6EB020E75EBDE
:103B6000030E22BFB61A754640EA0C005B084FEA06
:103B70003202B6EB020E75EB030E22BFB61A754683
:103B800040EA5C005B084FEA3202B6EB020E75EBCE
:103B9000030E22BFB61A754640EA9C005B084FEA46
:103BA0003202B6EB020E75EB030E22BFB61A754653
:103BB00040EADC0055EA060E18D04FEA051545EA42
:103BC00016754FEA06164FEAC30343EA52734FEAEB
:103BD000C2025FEA1C1CC0D111F4801F0BD141EA64
:103BE00000014FF000004FF0004CB6E711F4801FC9
:103BF00004BF01430020B4F1FD0C88BFBCF5E06FA9
:103C00003FF6AFAEB5EB030C04BFB6EB020C5FEAB8
:103C1000500C50F1000041EB045170BD0EF0004E0D
:103C20004EEA113114EB5C04C2BFD4EB0C0541EA3F
:103C3000045170BD41F480114FF0000E013C90E63C
:103C400045EA060E8DE60CEA135594EA0C0F08BF00
:103C500095EA0C0F3FF43BAF94EA0C0F0AD150EAFF
:103C600001347FF434AF95EA0C0F7FF425AF104692
:103C700019462CE795EA0C0F06D152EA03353FF4BA
:103C8000FDAE1046194622E750EA410618BF52EA37
:103C900043067FF4C5AE50EA41047FF40DAF52EA0B
:103CA00043057FF4EBAE12E74FEA410212F5001232
:103CB00015D211D56FF47873B3EB625212D94FEA73
:103CC000C12343F0004343EA505311F0004F23FA5D
:103CD00002F018BF404270474FF00000704750EAB2
:103CE000013005D111F0004008BF6FF0004070476F
:103CF0004FF00000704700BF4FEA4102B2F1E043CD
:103D000024BFB3F5001CDCF1FE5C0DD901F0004CC2
:103D10004FEAC0024CEA5070B2F1004F40EB830012
:103D200008BF20F00100704711F0804F21D113F13E
:103D30003872BCBF01F00040704741F480114FEA77
:103D40005252C2F11802C2F1200C10FA0CF320FA00
:103D500002F018BF40F001004FEAC1234FEAD3231D
:103D600003FA0CFC40EA0C0023FA02F34FEA430387
:103D7000CCE77FEA625307D150EA01331EBF4FF010
:103D8000FE4040F44000704701F0004040F0FE402B
:103D900040F40000704700BF80F0004002E000BF28
:103DA00081F0004142001FBF5FEA410392EA030F26
:103DB0007FEA226C7FEA236C6AD04FEA1262D2EB70
:103DC0001363C1BFD218414048404140B8BF5B4275
:103DD000192B88BF704710F0004F40F4000020F00E
:103DE0007F4018BF404211F0004F41F4000121F024
:103DF0007F4118BF494292EA030F3FD0A2F101026E
:103E000041FA03FC10EB0C00C3F1200301FA03F1AB
:103E100000F0004302D5494260EB4000B0F5000FCE
:103E200013D3B0F1807F06D340084FEA310102F18D
:103E30000102FE2A51D2B1F1004F40EBC25008BF3F
:103E400020F0010040EA03007047490040EB000009
:103E500010F4000FA2F10102EDD1B0FA80FCACF138
:103E6000080CB2EB0C0200FA0CF0AABF00EBC25037
:103E700052421843BCBFD0401843704792F0000F25
:103E800081F4000106BF80F400000132013BB5E778
:103E90004FEA41037FEA226C18BF7FEA236C21D0EE
:103EA00092EA030F04D092F0000F08BF0846704753
:103EB00090EA010F1CBF0020704712F07F4F04D121
:103EC000400028BF40F00040704712F100723CBF34
:103ED00000F50000704700F0004343F0FE4040F45E
:103EE000000070477FEA226216BF08467FEA23631C
:103EF0000146420206BF5FEA412390EA010F40F407
:103F0000800070474FF0000304E000BF10F0004352
:103F100048BF40425FEA000C08BF704743F0964339
:103F200001464FF000001CE050EA010208BF704754
:103F30004FF000030AE000BF50EA010208BF7047DB
:103F400011F0004302D5404261EB41015FEA010CF0
:103F500002BF84460146002043F0B64308BFA3F1E8
:103F60008053A3F50003BCFA8CF2083AA3EBC253CA
:103F700010DB01FA02FC634400FA02FCC2F12002E9
:103F8000BCF1004F20FA02F243EB020008BF20F020
:103F90000100704702F1200201FA02FCC2F1200286
:103FA00050EA4C0021FA02F243EB020008BF20EA7B
:103FB000DC7070474FF0FF3C06E000BF4FF0010C93
:103FC00002E000BF4FF0010C4DF804CD4FEA400273
:103FD0004FEA41037FEA226C18BF7FEA236C11D0BD
:103FE00001B052EA530C18BF90EA010F58BFB2EB70
:103FF000030088BFC81738BF6FEAE17018BF40F0F0
:10400000010070477FEA226C02D15FEA402C05D1A3
:104010007FEA236CE4D15FEA412CE1D05DF8040B28
:10402000704700BF844608466146FFE70FB5FFF7BB
:10403000C9FF002848BF10F1000F0FBD4DF808ED73
:10404000FFF7F4FF0CBF012000205DF808FB00BF64
:104050004DF808EDFFF7EAFF34BF012000205DF8BE
:1040600008FB00BF4DF808EDFFF7E0FF94BF01200B
:1040700000205DF808FB00BF4DF808EDFFF7D2FF08
:1040800094BF012000205DF808FB00BF4DF808ED4B
:10409000FFF7C8FF34BF012000205DF808FB00BF18
:1040A00042000ED2B2F1FE4F0BD34FF09E03B3EBA2
:1040B000126209D44FEA002343F0004323FA02F0CE
:1040C00070474FF00000704712F1610F01D14202BA
:1040D00002D14FF0FF3070474FF00000704700BF33
:1040E000002103E00A4B5B584350043109480A4B56
:1040F00042189A42F6D3094A02E0002342F8043BF0
:10410000074B9A42F9D301F071FF00F00DF87047A8
:10411000BC840008000000208001002080010020F5
:10412000CC1E0020FEE700002DE9F04F454A83B089
:104130009047454988474548836813F4004F01D1AB
:10414000434CA04743488047434D444B444C984719
:10415000444FA847444EA04744484549B847B04754
:10416000444A904744498847444C45488047002585
:10417000444B9847444F18207821444A4FF6FF7328
:1041800000950194B84718208C21414A4FF6FF73DF
:1041900000950194B8473F4E1820B4213E4A4FF68F
:1041A000FF73009501943D4DB847B047A8473C4D7B
:1041B0003C4F3D4EDFF80891DFF808B1DFF8088189
:1041C000AA460FE02B8813F0010F17D1E888F0B949
:1041D000C0473388044613B910F0010F1DD114F005
:1041E000080F2AD1C84739780029EBD02D4A00247E
:1041F0001470D8472B8813F0010FE7D023F0010C7F
:10420000AAF800C0294B9847E8880028E0D0284A3F
:1042100090470021AAF80610DAE7042025498847CC
:10422000254880471FFA80FCBCF1120F08D91E4BAD
:10423000282214F0080F1A80D4D0204CA047D1E7D0
:10424000D847CCE7CD42000839430008000C0140B4
:104250004D5A0008E565000845450008155D000851
:10426000A54300080D440008CD44000888730008E9
:10427000003801402D44000879440008380100202E
:10428000E544000839520008D95100089473000829
:1042900000000020D1590008A87300086D4D0008E7
:1042A000C40100208A010020BE010020195400082A
:1042B0006D59000825220008AD1E0008A51C000845
:1042C0005D220008E90A000845210008164B174A3C
:1042D00017491A60174A5960002015211A60986022
:1042E0000722D8601861596144F63D61DA6199612D
:1042F000186258621A6812F4003F07D0586820F01C
:1043000003025A60596841F001005860064B196871
:1043100011F0007F07D05A6822F0030159605868F5
:1043200040F002025A607047001002408100010014
:1043300000841D008100010130B41348134D4FF675
:10434000FF72056005F10045743545601049C26093
:104350004FF0333000F1AA4C08600CF5AA00883009
:1043600048600C4C0C48CA600C4960600C4B4420FF
:10437000E26008605A6822F0E0615960586840F0D5
:1043800000725A6030BC704700080140404444B499
:10439000000C0140001001400000303300140140C7
:1043A0000000014010B5002384B00C4CADF804307F
:1043B000ADF80630ADF80830ADF80C304FF41642C9
:1043C0000C23694620460092ADF80A30044A904713
:1043D00020460121034B984704B010BD003801402E
:1043E000E1610008C163000870B5064D06460C4641
:1043F00020468021A8470028FAD020463146024BAB
:10440000984770BD916400083564000870B5044693
:1044100000780D4630B1044E2946B04714F8010F1C
:104420000028F9D170BD00BFE9430008114B80207E
:10443000188000224FF4405C10209A8005211A81D8
:104440009A811A829A82A3F818C09A8340F60F6C58
:10445000188409209A84A3F828C09885998619871A
:104460009A87A3F84020A3F84820A3F84C20812283
:104470001A80704700040040134B80221A800020ED
:1044800046F2600C4FF4885140F6FF729880188114
:10449000188298821883A3F81CC0198440F2FF7C0C
:1044A000988440F2FF3118859A8581229886188772
:1044B000A3F83CC0A3F84010A3F84800A3F84C00B0
:1044C00098811A80704700BF00080040034B044ADF
:1044D00000210720996018605A60704710E000E0E2
:1044E00040190100104B002240F6FF711A605A601B
:1044F0009A60DA601A615A619A61DA611A625962E5
:104500009A62DA621A635A639A639868194640F0AD
:1045100004029A608B68044A13F0040FFAD0916881
:1045200041F00100906070470028014041638168BC
:1045300041F001038360026812F0020FFBD0C06CEF
:1045400080B27047F8B59E4C4FF400659D4E41F225
:1045500088302561B0474FF6E8506561B0474FF6A7
:10456000FF702561B0474FF6FF70B0474FF6FF7000
:10457000B0474FF6FF70B0474FF6FF70B0474FF6A9
:10458000FF70B0474FF6FF70B0474FF6FF70B0476F
:104590004FF6FF70B0474FF6FF70B0478A4B4FF4AD
:1045A00000524FF480405A615861E7684FF400416F
:1045B00007F47F4C4CF0CF05E56059611961186133
:1045C0001A615A611861E768642507F47F47E7605C
:1045D000596119611A615A611861E76807F47F4CE3
:1045E0004CF0C107E760596119611A615A6118619D
:1045F000E76807F47F4C4CF03007E76059611961B8
:104600001A615A615861E76807F47F4C4CF0ED0776
:10461000E7605961196118611A615A611861E768A8
:1046200007F47F4C4CF06707E760596119611A6124
:104630005A611861E76807F47F4C4CF00307E760A4
:10464000596119611A615A611861E76807F47F4C72
:104650004CF01207E760596119611A615A611861DB
:10466000E76807F47F4C4CF08107E76059611961F6
:104670001A615A615861E76807F47F4C4CF0CB0728
:10468000E7605961196118611A615A611861E76838
:1046900007F47F4C4CF03907E760596119611A61E2
:1046A0005A611861E76807F47F4C4CF02C07E7600B
:1046B000596119611A615A611861E76807F47F4707
:1046C000E760596119611A615A611861E76807F476
:1046D0007F4C4CF03407E760596119611A615A61E7
:1046E0001861E76807F47F4C4CF00207E7605961F6
:1046F00019611A615A615861E76807F47F4C4CF000
:10470000EA07E7605961196118611A615A61186115
:10471000E76807F47F47E760596119611A615A61D8
:104720001861E76807F47F47E760596119611A610A
:104730005A615861E76807F47F4C4CF0E807E7607E
:104740005961196118611A615A611861E76807F4C3
:104750007F4C4CF08507E760596119611A615A6115
:104760001861E76807F47F4C4CF00A07E76059616D
:1047700019611A615A611861E76807F47F4C4CF0BF
:104780007807E760596119611A615A615861E768F1
:1047900007F47F4C4CF0F707E76059611961186125
:1047A0001A615A611861E76807F47F4C4CF02007E2
:1047B000E760596119611A615A61586106E000BFEA
:1047C000000C0140F54D000800100140E76807F4B7
:1047D0007F4C4CF0C007E7605961196118611A619C
:1047E0005A611861E76807F47F4C4CF02607E760D0
:1047F000596119611A615A615861E76807F47F4C81
:104800004CF0C107E7605961196118611A615A617A
:104810001861E76807F47F4C4CF00107E7605961C5
:1048200019611A615A615861E76807F47F4C4CF0CE
:10483000C507E7605961196118611A615A61186109
:10484000E76807F47F4C4CF02B07E760596119616A
:104850001A615A611861E76807F47F4C4CF02F0722
:10486000E760596119611A615A615861E76807F494
:104870007F4C4CF0C707E7605961196118611A61F4
:104880005A611861E76807F47F4C4CF0C707E7608E
:10489000596119611A615A615861E76807F47F4CE0
:1048A0004CF03A07E7605961196118611A615A6161
:1048B0001861E76807F47F4C4CF05507E7605961D1
:1048C00019611A615A615861E76807F47F4C4CF02E
:1048D0003607E7605961196118611A615A611861F8
:1048E000E76807F47F4C4CF02007E76059611961D5
:1048F0001A615A615861E76807F47F4C4CF0B107C0
:10490000E7605961196118611A615A611861E768B5
:1049100007F47F47E760596119611A615A611861AC
:10492000E76807F47F4C4CF01807E760596119619C
:104930001A615A615861E76807F47F4C4CF0B6077A
:10494000E7605961196118611A615A611861E76875
:1049500007F47F4C4CF00A07E760596119611A614E
:104960005A611861E76807F47F4C4CF0E207E76092
:10497000596119611A615A615861E76807F47F4CFF
:104980004CF0F207E7605961196118611A615A61C8
:104990001861E76807F47F47E760596119611A6198
:1049A0005A615861E76807F47F4C4CF02607E760CE
:1049B0005961196118611A615A611861E76807F451
:1049C0007F4C4CF00107E760596119611A615A6127
:1049D0005861E76807F47F4C4CF0E007E7605961E5
:1049E000196118611A615A611861E76807F47F4C10
:1049F0004CF00F07E760596119611A615A6118613B
:104A0000E76807F47F4C4CF01D07E76059611961B6
:104A10001A615A611861E76807F47F4C4CF01A0775
:104A2000E760596119611A615A611861E76807F412
:104A30007F4C4CF00907E760596119611A615A61AE
:104A40001861E76807F47F4C4CF00F07E760596185
:104A500019611A615A611861E76807F47F4C4CF0DC
:104A60000907E760596119611A615A611861E768BD
:104A700007F47F4C4CF04607E760596119611A61F1
:104A80005A611861E76807F47F4C4CF08807E760CB
:104A9000596119611A615A611861E76807F47F4C1E
:104AA0004CF03907E760596119611A615A61186160
:104AB000E76807F47F4C4CF00507E760596119611E
:104AC0001A615A611861E76807F47F4C4CF00F07D0
:104AD000E760596119611A615A611861E76807F462
:104AE0007F4C4CF00307E760596119611A615A6104
:104AF0001861E76807F47F4C4CF00707E7605961DD
:104B000019611A615A611861E76807F47F4C4CF02B
:104B10000507E760596119611A615A611861E76810
:104B200007F47F47E760596119611A615A6158615A
:104B3000E76807F47F4C4CF0E107E76059611961C1
:104B400018611A615A611861E76807F47F47E760E6
:104B5000596119611A615A611861E76807F47F4C5D
:104B60004CF02207E760596119611A615A611861B6
:104B7000E76807F47F4C4CF02507E760596119613D
:104B80001A615A611861E76807F47F4C4CF0060718
:104B9000E760596119611A615A611861E76807F4A1
:104BA0007F4C4CF01007E760596119611A615A6136
:104BB0001861E76807F47F4C4CF00607E76059611D
:104BC00019611A615A611861E76807F47F4C4CF06B
:104BD0003907E760596119611A615A611861E7681C
:104BE00007F47F4C4CF02207E760596119611A61A4
:104BF0005A611861E76807F47F4C4CF04A07E76098
:104C0000596119611A615A611861E76807F47F4CAC
:104C10004CF00A07E760596119611A615A6118611D
:104C2000E76807F47F4C4CF01007E76059611961A1
:104C30001A615A611861E76807F47F4C4CF00C0761
:104C4000E760596119611A615A611861E76807F4F0
:104C50007F4C4CF03807E760596119611A615A615D
:104C60001861E76807F47F4C4CF03A07E760596138
:104C700019611A615A611861E76807F47F4C4CF0BA
:104C80000F07E760596119611A615A615861E76855
:104C900007F47F4C4CF01107E76059611961186106
:104CA0001A614CF25030B0476B1EDCB24CF25030FF
:104CB000B047621ED5B20F4C002DF2D10E4B4FF40F
:104CC00000524FF480410D4E5A615961F0684FF423
:104CD000004500F47F4E4EF02907F7604CF250304B
:104CE0005D611D6119611A61A0474CF25030A04707
:104CF000F8BD00BFF54D000800100140000C014058
:104D00000A4B70B44FF400524FF48041084D5A6181
:104D10005961EE684FF4004406F47F463043E86082
:104D20005C611C6119611A6170BC70470010014020
:104D3000000C01400A4B30B44FF40052094C4FF4C0
:104D400080415A611961E5684FF4004105F47F45DF
:104D50002843E060596119611A6130BC704700BF97
:104D600000100140000C0140704700BF70B50021E9
:104D700082B04FF00060144CA047012600241B2293
:104D800001A8124D8DF804208DF805408DF80640DD
:104D90008DF80760A84701A812218DF804108DF83E
:104DA00005408DF806408DF80760A8470B2301A841
:104DB0008DF804308DF805408DF806408DF80760B9
:104DC000A84702B070BD00BF95610008F1600008FF
:104DD00010B505498847044604488047044B241809
:104DE00004F500649C8710BD6D20000809220008AE
:104DF0000008004082B0ADF80600BDF8060083B29E
:104E00004BB1BDF80600431EADF80630BDF80620D4
:104E100091B20029F5D102B0704700BF2DE9F843E7
:104E20000446114D2A2016460F469946DFF83C806D
:104E3000A847200AC047E0B2013CE719BFB2C0470B
:104E4000380AC047F8B2C0472B20A847300AC047ED
:104E5000F0B2C047701E00EB0906B6B2300AC04778
:104E6000F0B2C047BDE8F883014D0008354D000899
:104E7000F8B516461D468AB280B2B1B29BB2364F23
:104E8000BDF81840B847354B4FF4804034494FF4D3
:104E900000525A615861CA6806FB05F502F47F4664
:104EA00046F02C064FF40042CE605A611A61186138
:104EB000002D4BD0C868270A00F47F4E47EA0E0643
:104EC000CE605A611A61C868013D00F47F4C44EA23
:104ED0000C062846CE6005F001055A611A610028CB
:104EE00034D08DB1CD68013805F47F4C47EA0C050C
:104EF000CD605A611A61CD6805F47F4E44EA0E0513
:104F0000CD605A611A6121D0CD68023805F47F4C1A
:104F100047EA0C05CD605A611A61CD6805F47F4EF1
:104F200044EA0E05CD605A611A61CD6805F47F4CE4
:104F300047EA0C05CD605A611A61CD6805F47F45DA
:104F400044EA0505CD605A611A61DDD1034B4FF487
:104F500000511961F8BD00BF1D4E0008001001404E
:104F6000000C014010B5002482B020462146009478
:104F70004FF4A072F023024CA04702B010BD00BF56
:104F8000714E00082DE9F04F83B00D9E0D46376835
:104F900096F8048096F805904146019792468B4F0B
:104FA0002A461C464B4696F808B0BDF83050B84724
:104FB000874B4FF4804087494FF400525A61586143
:104FC000CF684FF4004207F47F4747F02C07CF60CB
:104FD0005A611A61186196F805C0367906FB0CF023
:104FE000C60800F0EB8008F10700C71009FB07F9BD
:104FF0000198CBEB0A0808FB0900013EB7B27E1C02
:10500000371810F801EBD1F80CC01EF0800F0CBF60
:105010002E4626460CF47F4848EA162CC1F80CC0F0
:105020005A611A61D1F80C804FEA4E0E08F47F4C99
:1050300046EA0C06CE605A611A61D1F80C805FFA1C
:105040008EFE1EF0800F0CBF2E46264608F47F48C9
:1050500048EA162CC1F80CC05A611A61D1F80C80CC
:105060004FEA4E0E08F47F4C46EA0C06CE605A61B9
:105070001A61D1F80C805FFA8EFC1CF0800F0CBF17
:10508000AE46A64608F47F4646EA1E28C1F80C80C4
:105090005A611A61D1F80C804FEA4C0C08F47F4831
:1050A0004EEA0806CE605A611A61D1F80CE05FFA48
:1050B0008CFC1CF0800F0CBF2E4626460EF47F4859
:1050C00048EA162EC1F80CE05A611A61D1F80C803A
:1050D0004FEA4C0E08F47F4846EA0806CE605A6153
:1050E0001A61D1F80CC05FFA8EFE1EF0800F0CBF63
:1050F0002E4626460CF47F4848EA162CC1F80CC010
:105100005A611A61D1F80C804FEA4E0E08F47F4CB8
:1051100046EA0C06CE605A611A61D1F80C805FFA3B
:105120008EFE1EF0800F0CBF2E46264608F47F48E8
:1051300048EA162CC1F80CC05A611A61D1F80C80EB
:105140004FEA4E0E08F47F4C46EA0C06CE605A61D8
:105150001A61D1F80C805FFA8EF616F0800F0CBF42
:10516000AE46A64608F47F4C4CEA1E28C1F80C80D7
:105170005A611A61D1F80C8016F0400F08F47F4C88
:105180004EEA0C06CE605A611A61D1F80CC00CBF11
:10519000AE46A6460CF47F4646EA1E2CC1F80CC06B
:1051A0005A611A61D1F80CC0B8420CF47F4C4EEA37
:1051B0000C06CE605A611A617FF423AF044B4FF4A2
:1051C0000051196103B0BDE8F08F00BF1D4E00080B
:1051D00000100140000C01402DE9F04F83B00D9EFE
:1051E000BDF830A0DFF84CB0044688461746994613
:1051F00017F8015B204641464B462A46BDB1CDF823
:1052000000A00196D847B07940F23F132418A4B209
:105210009C42EDD9F17917F8015B884400241FFA0C
:1052200088F8204641464B462A46002DE7D103B078
:10523000BDE8F08F854F00082DE9F0415B4882B052
:1052400080475B4C0B200DF10601A047BDF80630EE
:105250004FF2C536B34256D0564D00205649574CF2
:10526000884700212889A047554B072098470721E8
:10527000A888A047534A002090470021E888A0470B
:10528000514F1220B84712212888A04700204F49CB
:1052900088470021A889A0474D4B0020984700214E
:1052A000E889A0474B4A002090470021288AA04760
:1052B000494F4FF48060B8474FF48061474FA88A48
:1052C000A047B84741089639454B08B29847B5F80A
:1052D0000280B8474008963881B24046A047414A0C
:1052E0000020904700216889A047E88A3146A047FE
:1052F0003D4880473D4B3E4A012102201980D08124
:1053000002B0BDE8F0812B4D0DF106012889A047C0
:10531000BDF90600284988470DF10601A888A04775
:10532000274B9DF9060098470DF10601E888A04734
:10533000244A9DF9060090470DF106012888A047F0
:105340009DF90600204988470DF10601A889A0476C
:105350001E4B9DF9060098470DF10601E889A0470C
:105360001B4A9DF9060090470DF10601288AA047C7
:10537000BDF90600174988470DF10601A88AA04724
:10538000154BBDF8060098470DF106016888A04747
:10539000134ABDF9060090470DF106016889A04740
:1053A000BDF906000F498847A2E700BF11070008B2
:1053B000895C000844010020F11D00080D5F000811
:1053C0001D1D0008891D00085D1E0008451F0008FE
:1053D000AD1F00081520000889200008DD20000806
:1053E000C91E0008B9210008D14D0008880100201D
:1053F000C401002003881BB90BE030F8043F43B11F
:105400008B42FAD18178034BD9805981C2781A81B5
:1054100070477047C401002070B5414E414CB568DB
:105420004FF6FF736FEA15326FEA023189B24FF01F
:10543000FF309942608004D0B4F804C061806145B7
:1054400046D000200523A180A08120826382022112
:105450003548364CA047B0F5106F37D8B0F5407FCF
:105460008CBF0725042501212F48A047B0F5106FF8
:105470002AD8B0F5407F94BF002001202C4E45195A
:1054800096F800C0AC4506D028462A498847022035
:105490003570294B984703212348A047B0F5106F7A
:1054A00010D8B0F5407F8CBF01240224234D2A7808
:1054B000A24206D060B22249884702202C701E4BBF
:1054C000984770BD0024F1E70220D7E70A25CAE714
:1054D000A689E289751CABB29342A3811BD9D01C6B
:1054E0008342B4D1258AB4F812E06B1C1FFA83FC06
:1054F000E645A281A4F810C0A9D14FF6FE7001EADA
:10550000000E71460F48A4F804E00F4EB047628ABF
:10551000511C61829BE79AD10A480B4CA04796E741
:10552000000C0140C4010020002801402D45000866
:10553000C00100201D1D000825220008C101002017
:10554000891D0008B4830008F553000808B50A4B0C
:10555000984710F0040F07D0084B9847084A904727
:1055600002200849884708BD0749884707488047FF
:1055700002200449884708BD452100087D21000814
:10558000E90A0008252200085D210008F91C00082E
:1055900010B53A4B9847052811D8DFE800F02503ED
:1055A0005A3F5014364CA0470130364940B2884724
:1055B000354B81B2354A9889354C9047A047354CD8
:1055C0000220A04710BD34488047411C08B2334B2D
:1055D00098472D4A81B210892C4CA04704202D4CAD
:1055E000A0470220A04710BD2D488047441C60B250
:1055F0002C498847244B044681B2244A1888904796
:105600000D2CCCBF224828480A3CE4B28047032C2A
:105610002ED8264B05221F4CDA81D1E7244CA04717
:105620000130244900B28847174B81B2174A188AC3
:10563000214C9047A047174C0220A04710BD1F489F
:105640008047411E08B21E4B98470F4A81B25088CE
:10565000C2E71C4CA04701301B4940B288470A4BA7
:1056600081B20A4AD88990470A4C0220A04710BD4F
:105670000E480221074CC181A2E700BF2D2100087E
:10568000911F0008451F0008440100200D5F00081D
:10569000E90A000825220008411E0008F11D000843
:1056A000AD1E00085D1E0008810A0008C40100202C
:1056B0006D20000815200008D14D0008291F0008A2
:1056C000C91E0008F91F0008AD1F000810B53A4BAD
:1056D0009847052811D8DFE800F025035A3F5014F9
:1056E000364CA0470138364940B28847354B81B225
:1056F000354A9889354C9047A047354C0220A04741
:1057000010BD34488047411E08B2334B98472D4A9C
:1057100081B210892C4CA04704202D4CA0470220B8
:10572000A04710BD2D488047441E60B22C498847D1
:10573000244B044681B2244A188890470C2CCCBFD5
:10574000224828480A3CE4B28047032C2ED8264B36
:1057500005221F4CDA81D1E7244CA04701382449A7
:1057600000B28847174B81B2174A188A214C9047DC
:10577000A047174C0220A04710BD1F488047411C7E
:1057800008B21E4B98470F4A81B25088C2E71C4CA2
:10579000A04701381B4940B288470A4B81B20A4AE8
:1057A000D88990470A4C0220A04710BD0E4802211C
:1057B000074CC181A2E700BF2D210008911F0008FE
:1057C000451F0008440100200D5F0008E90A000899
:1057D00025220008411E0008F11D0008AD1E00082A
:1057E0005D1E0008810A0008C40100206D20000829
:1057F00015200008D14D0008291F0008C91E000807
:10580000F91F0008AD1F000808B5064A904701308F
:10581000C0B2052888BF0020034988470220034BF7
:10582000984708BD2D210008F52000082522000812
:1058300010B5094B9847052800D010BD074B984775
:10584000A0F50064A4B220B2054988470548214666
:10585000054A4089904710BD2D2100089D21000870
:10586000B9210008440100200D5F000808B5164B5F
:10587000984704281DD0052811D0032803D0022002
:10588000124B984708BD124988470A30114B00B2A5
:105890009847114A904702200C4B984708BD0F4883
:1058A00080470A300E4900B288470220074B9847CC
:1058B00008BD0C48804714380B4A00B290470220BC
:1058C000024B984708BD00BF2D2100082522000883
:1058D0006D20000815200008D14D0008411E000869
:1058E000F11D0008291F0008C91E000808B5164B45
:1058F000984704281DD0052811D0032803D0022082
:10590000124B984708BD124988470A38114B00B21C
:105910009847114A904702200C4B984708BD0F4802
:1059200080470A380E4900B288470220074B984743
:1059300008BD0C48804714300B4A00B29047022043
:10594000024B984708BD00BF2D2100082522000802
:105950006D20000815200008D14D0008411E0008E8
:10596000F11D0008291F0008C91E0008104908B5CC
:10597000C888431E062B07D8DFE803F0070A0D107E
:10598000131604000B48804708BD0B4A904708BD1A
:105990000A4B984708BD0A48804708BD094988470F
:1059A00008BD094A904708BD084B984708BD00BF8D
:1059B000C4010020ED5800084D550008915500081D
:1059C000CD56000809580008315800086D580008E5
:1059D00038B51C4B4FF400421B4C5A6114254FF64E
:1059E000E850A047681E85B2013D4FF6E850ADB2C1
:1059F000A047002DF3D1134A4FF400411161142543
:105A00004FF6E850A047681E85B24FF6E850A04711
:105A10006B1E9DB2002DF3D10A4A4FF40041516133
:105A200014254FF6E850A047681E85B24FF6E8509F
:105A3000A0476B1E9DB2002DF3D1024A4FF40041E6
:105A4000116138BD00080140F54D00082DE9F8430B
:105A50002B4B2C4A5D682C4925F003075F605E687C
:105A60002A4F5E6054682A4E24F0E060506055680A
:105A7000284845F08063536054684FF0333344F452
:105A80000045254C556089460B6045F255554B60E5
:105A90003B607B603360736003604360DFF86C8061
:105AA0001B4F1C4EC9F80C504EF66020C8F80C5025
:105AB000FD60F560A0474EF66020A0474EF66020DE
:105AC000A0474EF66020A0474EF66020A0474AF659
:105AD000AA21C9F80C104EF66020C8F80C10F96025
