:020000040800F2
:1000000000500020C54B00089D7E0008A17E00081E
:10001000A57E0008A97E0008AD7E00080000000053
:10002000000000000000000000000000B17E000899
:10003000B57E000800000000B97E0008BD7E000803
:10004000114C0008114C0008114C0008114C00081C
:10005000114C0008114C0008114C0008114C00080C
:10006000114C0008114C0008114C0008AD48000864
:10007000114C0008114C0008114C0008114C0008EC
:10008000114C0008114C000811480008114C0008E0
:10009000114C0008114C0008114C0008114C0008CC
:1000A000114C0008114C0008114C0008B54600081E
:1000B000114C0008114C0008114C0008114C0008AC
:1000C000114C0008114C0008114C0008114C00089C
:1000D000114C0008114C0008114C0008114C00088C
:1000E000114C0008114C0008114C000800000000E1
:1000F0000000000000000000000000000000000000
:0C01000000000000000000005FF808F1A3
:10011000830770B5064614D10368A3F1013222EAC1
:10012000030313F0803F0CD1031D1A4653F8044B10
:10013000A4F1013525EA040414F0803FF5D01046FF
:1001400000E0304603782BB1431C18460133047895
:10015000002CFAD100F002F8304670BD80EA0102AE
:10016000844612F0030F4FD111F0030F32D14DF836
:10017000044D11F0040F51F8043B0BD0A3F10132F0
:100180009A4312F0803F04BF4CF8043B51F8043B03
:1001900016D100BF51F8044BA3F101329A4312F07B
:1001A000803FA4F101320BD14CF8043BA24312F082
:1001B000803F04BF51F8043B4CF8044BEAD023467F
:1001C0000CF8013B13F0FF0F4FEA3323F8D15DF831
:1001D000044B704711F0010F06D011F8012B0CF8F9
:1001E000012B002A08BF704711F0020FBFD031F871
:1001F000022B12F0FF0F16BF2CF8022B8CF80020F8
:1002000012F47F4FB3D1704711F8012B0CF8012B7A
:10021000002AF9D1704700BF20F0030110F003005D
:10022000C0F1000051F8043B00F1040C4FEACC0C83
:100230006FF000021CBF22FA0CF213434FF0010CC6
:100240004CEA0C2C4CEA0C4CA3EB0C0222EA030205
:1002500012EACC1204BF51F8043B0430F4D013F07E
:10026000FF0F1FBF013013F47F4F013013F47F0FD6
:1002700018BF0130704700BF2DE9F0478AB004462F
:100280000D4600F04FF840F2000AC2F2000A9AF957
:100290000030013306460F460FD02046294600F0B5
:1002A00007F950B14FF000084FF0000920462946E9
:1002B00042464B4600F056FD20B9304639460AB05A
:1002C000BDE8F0879AF800604AF60003C0F6000324
:1002D0000122CDE904458DE80C000023CDE902455B
:1002E000089356B9CDE90689684600F009F970B15E
:1002F000089B8BB9DDE90667DFE740464946424681
:100300004B4600F0E7FB022ECDE90601ECD100F0F0
:10031000F9F821230360EBE700F0F4F8089B036091
:10032000E8E700BF2DE9F8430027B946C7F6F077A4
:10033000C7F6F0790F404F4504460D4602460B467E
:100340000E46804600F09980002977DD0F1500F0F9
:10035000828026F07F43A7F2FF3723F47003FA0769
:1003600043F4801344BF4FEAD8724FEA48084FF075
:10037000000C48BF02EB430360464FEAD8727F107F
:1003800002EB430316244FEA48024FF400114518CC
:10039000D60F9D424FEA4202DEBFC5EB0303681849
:1003A0008C444908013C06EB4303F0D12026A046CB
:1003B0004FF000410EE081461B1A954288BF013B79
:1003C000521B64184846D50F49085200013E05EB00
:1003D000430315D0984201EB080503DB954298BF13
:1003E0008342F0D105F0004905EB0108B9F1004F57
:1003F000E1D1B8F1000FA8BF00F10109DCDADAE7BA
:10040000134312D166084FEA6C031CF0010F03F18D
:100410007F5318BF46F0004603F50013344603EB44
:10042000075520462946BDE8F883631C08BF0CF138
:10043000010CE8D004F001031C19E3E721F00046A9
:100440000643EED041BB0F464FEAD826153F4FEA90
:100450004858002EF8D016F4801319D176000133D5
:10046000F102FBD5C3F10101C3F1200228FA02F227
:100470007F18164308FA03F86BE700F001FA02460A
:100480000B462046294600F049F804460D46C8E7C9
:10049000202201210023E9E702460B4600F03CF848
:1004A00002460B4600F016FB04460D46B9E700BFB6
:1004B00050EA010201D102207047D0F1010238BF99
:1004C0000022B1F1004F08BF0028F4D021F0004312
:1004D0004FF6FF71A3F58010C7F6DF71884201D88F
:1004E00004207047B3F5801F01D20320704700201D
:1004F000C7F6F070834214BF002002F0010070477D
:100500000020704740F20403C2F2000318687047ED
:1005100081F0004102E000BF83F0004330B54FEAB4
:1005200041044FEA430594EA050F08BF90EA020F21
:100530001FBF54EA000C55EA020C7FEA645C7FEAB4
:10054000655C00F0E2804FEA5454D4EB5555B8BFD7
:100550006D420CDD2C4480EA020281EA030382EA48
:10056000000083EA010180EA020281EA0303362DDA
:1005700088BF30BD11F0004F4FEA01314FF4801CAD
:100580004CEA113102D0404261EB410113F0004FBF
:100590004FEA03334CEA133302D0524263EB430376
:1005A00094EA050F00F0A780A4F10104D5F1200E14
:1005B0000DDB02FA0EFC22FA05F2801841F100016F
:1005C00003FA0EF2801843FA05F359410EE0A5F143
:1005D00020050EF1200E012A03FA0EFC28BF4CF074
:1005E000020C43FA05F3C01851EBE37101F000452A
:1005F00007D54FF0000EDCF1000C7EEB00006EEB37
:100600000101B1F5801F1BD3B1F5001F0CD34908C0
:100610005FEA30004FEA3C0C04F101044FEA445217
:1006200012F5800F80F09A80BCF1004F08BF5FEA9E
:10063000500C50F1000041EB045141EA050130BD7E
:100640005FEA4C0C404141EB010111F4801FA4F121
:100650000104E9D191F0000F04BF01460020B1FA76
:1006600081F308BF2033A3F10B03B3F120020CDAAE
:100670000C3208DD02F1140CC2F10C0201FA0CF08C
:1006800021FA02F10CE002F11402D8BFC2F1200CF1
:1006900001FA02F120FA0CFCDCBF41EA0C019040A7
:1006A000E41AA2BF01EB0451294330BD6FEA0404F0
:1006B0001F3C1CDA0C340EDC04F11404C4F12002DB
:1006C00020FA04F001FA02F340EA030021FA04F3ED
:1006D00045EA030130BDC4F10C04C4F1200220FA44
:1006E00002F001FA04F340EA0300294630BD21FA82
:1006F00004F0294630BD94F0000F83F4801306BF48
:1007000081F480110134013D4EE77FEA645C18BF3B
:100710007FEA655C29D094EA050F08BF90EA020FD2
:1007200005D054EA000C04BF1946104630BD91EACA
:10073000030F1EBF0021002030BD5FEA545C05D1CD
:100740004000494128BF41F0004130BD14F580040C
:100750003CBF01F5801130BD01F0004545F0FE4180
:1007600041F470014FF0000030BD7FEA645C1ABFB5
:10077000194610467FEA655C1CBF0B46024650EAEC
:10078000013406BF52EA033591EA030F41F4002118
:1007900030BD00BF90F0000F04BF0021704730B59E
:1007A0004FF4806404F132044FF000054FF0000173
:1007B00050E700BF90F0000F04BF0021704730B534
:1007C0004FF4806404F1320410F0004548BF404209
:1007D0004FF000013EE700BF42004FEAE2014FEA5E
:1007E00031014FEA02701FBF12F07F4393F07F4F39
:1007F00081F06051704792F0000F14BF93F07F4F6B
:10080000704730B54FF4607401F0004521F00041AD
:1008100020E700BF50EA010208BF704730B54FF033
:1008200000050AE050EA010208BF704730B511F038
:10083000004502D5404261EB41014FF4806404F170
:1008400032045FEA915C3FF4DCAE4FF003025FEAF2
:10085000DC0C18BF03325FEADC0C18BF033202EB7A
:10086000DC02C2F1200300FA03FC20FA02F001FAD4
:1008700003FE40EA0E0021FA02F11444C1E600BF73
:1008800070B54FF0FF0C4CF4E06C1CEA11541DBF26
:100890001CEA135594EA0C0F95EA0C0F00F0DEF8F1
:1008A0002C4481EA030621EA4C5123EA4C5350EAD6
:1008B000013518BF52EA033541F4801143F4801327
:1008C00038D0A0FB02CE4FF00005E1FB02E506F0B8
:1008D0000042E0FB03E54FF00006E1FB03569CF00D
:1008E000000F18BF4EF0010EA4F1FF04B6F5007F13
:1008F00064F5407404D25FEA4E0E6D4146EB060685
:1009000042EAC62141EA55514FEAC52040EA5E500D
:100910004FEACE2EB4F1FD0C88BFBCF5E06F1ED8B7
:10092000BEF1004F08BF5FEA500E50F1000041EBEE
:10093000045170BD06F0004646EA010140EA02009B
:1009400081EA0301B4EB5C04C2BFD4EB0C0541EABD
:10095000045170BD41F480114FF0000E013C00F3D2
:10096000AB8014F1360FDEBF002001F0004170BDF6
:10097000C4F10004203C35DA0C341BDC04F114040F
:10098000C4F1200500FA05F320FA04F001FA05F29B
:1009900040EA020001F0004221F0004110EBD37068
:1009A00021FA04F642EB06015EEA430E08BF20EA94
:1009B000D37070BDC4F10C04C4F1200500FA04F337
:1009C00020FA05F001FA04F240EA020001F00041C9
:1009D00010EBD37041F100015EEA430E08BF20EA3C
:1009E000D37070BDC4F1200500FA05F24EEA020E84
:1009F00020FA04F301FA05F243EA020321FA04F0B3
:100A000001F0004121FA04F220EA020000EBD37069
:100A10005EEA430E08BF20EAD37070BD94F0000F69
:100A20000FD101F00046400041EB010111F4801F9D
:100A300008BF013CF7D041EA060195F0000F18BF4E
:100A4000704703F00046520043EB030313F4801F8A
:100A500008BF013DF7D043EA0603704794EA0C0F44
:100A60000CEA135518BF95EA0C0F0CD050EA41065A
:100A700018BF52EA4306D1D181EA030101F00041D7
:100A80004FF0000070BD50EA410606BF10461946FF
:100A900052EA430619D094EA0C0F02D150EA01360B
:100AA00013D195EA0C0F05D152EA03361CBF10464C
:100AB00019460AD181EA030101F0004141F0FE41EB
:100AC00041F470014FF0000070BD41F0FE4141F46F
:100AD000780170BD70B54FF0FF0C4CF4E06C1CEA6F
:100AE00011541DBF1CEA135594EA0C0F95EA0C0F24
:100AF00000F0A7F8A4EB050481EA030E52EA0335DF
:100B00004FEA013100F088804FEA03334FF08055FF
:100B100045EA131343EA12634FEA022245EA11152C
:100B200045EA10654FEA00260EF000419D4208BFDD
:100B3000964244F1FD0404F5407402D25B084FEA8A
:100B40003202B61A65EB03055B084FEA32024FF436
:100B500080104FF4002CB6EB020E75EB030E22BF93
:100B6000B61A754640EA0C005B084FEA3202B6EB53
:100B7000020E75EB030E22BFB61A754640EA5C0002
:100B80005B084FEA3202B6EB020E75EB030E22BF92
:100B9000B61A754640EA9C005B084FEA3202B6EB93
:100BA000020E75EB030E22BFB61A754640EADC0052
:100BB00055EA060E18D04FEA051545EA16754FEAB4
:100BC00006164FEAC30343EA52734FEAC2025FEAD2
:100BD0001C1CC0D111F4801F0BD141EA00014FF061
:100BE00000004FF0004CB6E711F4801F04BF014332
:100BF0000020B4F1FD0C88BFBCF5E06F3FF6AFAE4E
:100C0000B5EB030C04BFB6EB020C5FEA500C50F1DD
:100C1000000041EB045170BD0EF0004E4EEA113160
:100C200014EB5C04C2BFD4EB0C0541EA045170BD67
:100C300041F480114FF0000E013C90E645EA060EAB
:100C40008DE60CEA135594EA0C0F08BF95EA0C0FD9
:100C50003FF43BAF94EA0C0F0AD150EA01347FF421
:100C600034AF95EA0C0F7FF425AF104619462CE7F8
:100C700095EA0C0F06D152EA03353FF4FDAE10465B
:100C8000194622E750EA410618BF52EA43067FF4AC
:100C9000C5AE50EA41047FF40DAF52EA43057FF43C
:100CA000EBAE12E74FF0FF3C06E000BF4FF0010C47
:100CB00002E000BF4FF0010C4DF804CD4FEA410CAB
:100CC0007FEA6C5C4FEA430C18BF7FEA6C5C1BD078
:100CD00001B050EA410C0CBF52EA430C91EA030FF9
:100CE00002BF90EA020F0020704710F1000F91EA56
:100CF000030F58BF994208BF90422CBFD8176FEA24
:100D0000E37040F0010070474FEA410C7FEA6C5CF1
:100D100002D150EA013C07D14FEA430C7FEA6C5CF8
:100D2000D6D152EA033CD3D05DF8040B704700BF24
:100D30008446104662468C461946634600E000BF72
:100D400001B5FFF7B7FF002848BF10F1000F01BD44
:100D50004DF808EDFFF7F4FF0CBF012000205DF80F
:100D600008FB00BF4DF808EDFFF7EAFF34BF012094
:100D700000205DF808FB00BF4DF808EDFFF7E0FF2D
:100D800094BF012000205DF808FB00BF4DF808ED7E
:100D9000FFF7CEFF94BF012000205DF808FB00BFE5
:100DA0004DF808EDFFF7C4FF34BF012000205DF8C7
:100DB00008FB00BF4FEA410212F5001215D211D50F
:100DC0006FF47873B3EB625212D94FEAC12343F048
:100DD000004343EA505311F0004F23FA02F018BFCA
:100DE000404270474FF00000704750EA013005D193
:100DF00011F0004008BF6FF0004070474FF0000056
:100E0000704700BF4FEA4102B2F1E04324BFB3F59F
:100E1000001CDCF1FE5C0DD901F0004C4FEAC00271
:100E20004CEA5070B2F1004F40EB830008BF20F055
:100E30000100704711F0804F21D113F13872BCBF0F
:100E400001F00040704741F480114FEA5252C2F164
:100E50001802C2F1200C10FA0CF320FA02F018BFAD
:100E600040F001004FEAC1234FEAD32303FA0CFC00
:100E700040EA0C0023FA02F34FEA4303CCE77FEA8F
:100E8000625307D150EA01331EBF4FF0FE4040F4D9
:100E90004000704701F0004040F0FE4040F4000088
:100EA000704700BF80F0004002E000BF81F00041C9
:100EB00042001FBF5FEA410392EA030F7FEA226C00
:100EC0007FEA236C6AD04FEA1262D2EB1363C1BF90
:100ED000D218414048404140B8BF5B42192B88BFFF
:100EE000704710F0004F40F4000020F07F4018BF22
:100EF000404211F0004F41F4000121F07F4118BF42
:100F0000494292EA030F3FD0A2F1010241FA03FCE9
:100F100010EB0C00C3F1200301FA03F100F00043D1
:100F200002D5494260EB4000B0F5000F13D3B0F199
:100F3000807F06D340084FEA310102F10102FE2A08
:100F400051D2B1F1004F40EBC25008BF20F0010078
:100F500040EA03007047490040EB000010F4000F26
:100F6000A2F10102EDD1B0FA80FCACF1080CB2EBB9
:100F70000C0200FA0CF0AABF00EBC2505242184318
:100F8000BCBFD0401843704792F0000F81F40001BD
:100F900006BF80F400000132013BB5E74FEA410390
:100FA0007FEA226C18BF7FEA236C21D092EA030FFC
:100FB00004D092F0000F08BF0846704790EA010F76
:100FC0001CBF0020704712F07F4F04D1400028BFA3
:100FD00040F00040704712F100723CBF00F5000085
:100FE000704700F0004343F0FE4040F400007047BB
:100FF0007FEA226216BF08467FEA23630146420267
:1010000006BF5FEA412390EA010F40F48000704779
:101010004FF0000304E000BF10F0004348BF40421F
:101020005FEA000C08BF704743F0964301464FF05B
:1010300000001CE050EA010208BF70474FF00003B7
:101040000AE000BF50EA010208BF704711F00043F8
:1010500002D5404261EB41015FEA010C02BF8446C8
:101060000146002043F0B64308BFA3F18053A3F527
:101070000003BCFA8CF2083AA3EBC25310DB01FA6E
:1010800002FC634400FA02FCC2F12002BCF1004FF2
:1010900020FA02F243EB020008BF20F00100704783
:1010A00002F1200201FA02FCC2F1200250EA4C00D7
:1010B00021FA02F243EB020008BF20EADC7070471D
:1010C0004FF0FF0C1CEAD0521EBF1CEAD15392EA2B
:1010D0000C0F93EA0C0F6FD01A4480EA010C400207
:1010E00018BF5FEA41211ED04FF0006343EA501061
:1010F00043EA5111A0FB01310CF00040B1F5000FA3
:101100003EBF490041EAD3715B0040EA010062F151
:101110007F02FD2A1DD8B3F1004F40EBC25008BF3B
:1011200020F00100704790F0000F0CF0004C08BF59
:1011300049024CEA502040EA51207F3AC2BFD2F126
:10114000FF0340EAC250704740F400004FF0000334
:10115000013A5DDC12F1190FDCBF00F0004070476E
:10116000C2F10002410021FA02F1C2F1200200FAAC
:1011700002FC5FEA310040F1000053EA4C0308BF73
:1011800020EADC70704792F0000F00F0004C02BFC4
:10119000400010F4000F013AF9D040EA0C0093F03F
:1011A000000F01F0004C02BF490011F4000F013B99
:1011B000F9D041EA0C018FE70CEAD15392EA0C0F07
:1011C00018BF93EA0C0F0AD030F0004C18BF31F072
:1011D000004CD8D180EA010000F00040704790F048
:1011E000000F17BF90F0004F084691F0000F91F0EC
:1011F000004F14D092EA0C0F01D142020FD193EAB2
:101200000C0F03D14B0218BF084608D180EA010039
:1012100000F0004040F0FE4040F40000704740F015
:10122000FE4040F4400070474FF0FF0C1CEAD052E3
:101230001EBF1CEAD15392EA0C0F93EA0C0F69D03F
:10124000A2EB030280EA010C49024FEA402037D0AA
:101250004FF0805343EA111143EA10130CF00040A1
:101260008B4238BF5B0042F17D024FF4000C8B4291
:1012700024BF5B1A40EA0C00B3EB510F24BFA3EB71
:10128000510340EA5C00B3EB910F24BFA3EB910341
:1012900040EA9C00B3EBD10F24BFA3EBD10340EA9B
:1012A000DC001B0118BF5FEA1C1CE0D1FD2A3FF6E1
:1012B00050AF8B4240EBC25008BF20F00100704796
:1012C0000CF0004C4CEA50207F32C2BFD2F1FF0339
:1012D00040EAC250704740F400004FF00003013A6A
:1012E00037E792F0000F00F0004C02BF400010F40E
:1012F000000F013AF9D040EA0C0093F0000F01F022
:10130000004C02BF490011F4000F013BF9D041EA43
:101310000C0195E70CEAD15392EA0C0F08D1420276
:101320007FF47DAF93EA0C0F7FF470AF084676E749
:1013300093EA0C0F04D14B023FF44CAF08466EE722
:1013400030F0004C18BF31F0004CCAD130F00042F0
:101350007FF45CAF31F000437FF43CAF5FE700BF48
:101360004FF0FF3C06E000BF4FF0010C02E000BF71
:101370004FF0010C4DF804CD4FEA40024FEA410313
:101380007FEA226C18BF7FEA236C11D001B052EAC9
:10139000530C18BF90EA010F58BFB2EB030088BF8F
:1013A000C81738BF6FEAE17018BF40F001007047FE
:1013B0007FEA226C02D15FEA402C05D17FEA236CE0
:1013C000E4D15FEA412CE1D05DF8040B704700BF27
:1013D000844608466146FFE70FB5FFF7C9FF0028BE
:1013E00048BF10F1000F0FBD4DF808EDFFF7F4FFF7
:1013F0000CBF012000205DF808FB00BF4DF808ED90
:10140000FFF7EAFF34BF012000205DF808FB00BFB2
:101410004DF808EDFFF7E0FF94BF012000205DF8D4
:1014200008FB00BF4DF808EDFFF7D2FF94BF012085
:1014300000205DF808FB00BF4DF808EDFFF7C8FF7E
:1014400034BF012000205DF808FB00BF42000ED22F
:10145000B2F1FE4F0BD34FF09E03B3EB126209D4EF
:101460004FEA002343F0004323FA02F070474FF0A5
:101470000000704712F1610F01D1420202D14FF01A
:10148000FF3070474FF00000704700BF00000000C1
:1014900090B583B000AF041C081C111C1A1CBB1DA6
:1014A0001C803B1D1880BB1C19803B1C1A802A2005
:1014B00004F008FEBB1D1B881B0A1B041B0C181C18
:1014C00004F01AFEBB1D1B88181C04F015FEBA1D83
:1014D0003B1D12881B88D3181B041A0CBB1D013A34
:1014E0001A80BB1D1B881B0A1B041B0C181C04F054
:1014F00003FEBB1D1B88181C04F0FEFD2B2004F00E
:10150000E1FDBB1C1B881B0A1B041B0C181C04F0F0
:10151000F3FDBB1C1B88181C04F0EEFDBA1C3B1C21
:1015200012881B88D3181B041A0CBB1C013A1A80A2
:10153000BB1C1B881B0A1B041B0C181C04F0DCFDC5
:10154000BB1C1B88181C04F0D7FDBD4603B090BC23
:1015500001BC004790B585B002AF041C081C111CEB
:101560001A1CBB1D1C803B1D1880FB1C19703B1CEA
:101570001A80154B1A88154B9A4210D1BB1D18883A
:101580003B1D1988FB1C1A783B1C1B883C1C18341B
:1015900024880094FC69019400F01AF80FE0BB1D48
:1015A00018883B1D1988FB1C1A783B1C1B883C1CA7
:1015B000183424880094FC69019400F0DBF8BD46DF
:1015C00003B090BC01BC0047AA0200204193000078
:1015D00090B587B000AF041C081C111C1A1CBB1D61
:1015E0001C803B1D1880FB1C19703B1C1A80FB6A79
:1015F0001A68FB1C1978FB6A1B7AC91AFB6A1B79EB
:101600000733002B00DA0733DB104B43F96A4979C3
:101610004B43D3183B61FB6A1B79191CFB6A5B794E
:10162000BA1D10883A1D1288FFF732FF4D4B8022F9
:1016300092015A614B4B8022D2015A614A4B4A4A6D
:10164000D168FF2212020A402C210A43DA60454B7E
:10165000802212025A61434B802212021A61414BCE
:101660008022D2011A61414B414A1A80FB6A1B79E0
:10167000FA6A52795343002B00DA0733DB101A1C45
:101680003B1C14331A805EE03B1C17333A69127816
:101690001A703B1C163308221A7045E03B1C1733A6
:1016A0001B781B061B1602D53B1C1B8802E03B1C4B
:1016B00028331B883A1C0E3213802B4B2A4AD168E0
:1016C000FF22120211403A1C0E321288120A120432
:1016D000120C0A43DA60234B802212025A61214B1A
:1016E000802212021A61204B1F4AD168FF22120287
:1016F00011403A1C0E3212880A43DA60194B8022DC
:1017000012025A61174B802212021A613B1C1733D6
:101710003A1C1732127852001A703B1C16333A1CCE
:1017200016321278013A1A703B1C16331B78002BC4
:10173000B4D13B6901333B613B1C14333A1C143276
:101740001288013A1A803B1C14331B88002B9BD152
:10175000044B802292011A61BD4607B090BC01BCC7
:101760000047C04600100140000C0140A2020020CA
:101770004AECFFFF90B587B000AF041C081C111C99
:101780001A1CBB1D1C803B1D1880FB1C19703B1CC8
:101790001A80FB6A1A68FB1C1978FB6A1B7AC91A43
:1017A000FB6A1B790733002B00DA0733DB104B434E
:1017B000F96A49794B43D3183B61BB1D1B88522002
:1017C000191C03F019FFFB6A1B791A1CBB1D1B882F
:1017D000D3181B041B0C013B1B041B0C5320191CAE
:1017E00003F00AFF3B1D1B885020191C03F004FF67
:1017F000FB6A5B791A1C3B1D1B88D3181B041B0C4E
:10180000013B1B041B0C5120191C03F0F5FEBB1DF2
:101810001B882120191C03F0EFFE3B1D1B88202094
:10182000191C03F0E9FE04F013F8404B8022D201AA
:101830001A613F4B3F4A1A80FB6A1B79FA6A527958
:101840005343002B00DA0733DB101A1C3B1C143304
:101850001A805EE03B1C17333A6912781A703B1C01
:10186000163308221A7045E03B1C17331B781B0601
:101870001B1602D53B1C1B8802E03B1C28331B882F
:101880003A1C0E3213802C4B2B4AD168FF221202D5
:1018900011403A1C0E321288120A1204120C0A432A
:1018A000DA60224B802212025A61204B80221202FF
:1018B0001A61214B204AD168FF22120211403A1CC2
:1018C0000E3212880A43DA60184B802212025A61E3
:1018D000164B802212021A613B1C17333A1C173236
:1018E000127852001A703B1C16333A1C16321278CA
:1018F000013A1A703B1C16331B78002BB4D13B699C
:1019000001333B613B1C14333A1C14321288013AF8
:101910001A803B1C14331B88002B9BD103F0BEFFA5
:10192000BD4607B090BC01BC0047C0460010014056
:10193000A20200204AECFFFF000C014090B585B0E8
:1019400002AF041C081C111C1A1CBB1D1C803B1D73
:101950001880BB1C19803B1C1A80BB1C1B88013BD8
:101960001B041B0C1B041B0CBA1D0020115E3A1D2E
:101970000020125E1B041B14381C183000880090D5
:10198000081C111C1A1C012304F018FE3B1D1A88A8
:101990003B1C1B88D3181B041B0C013B1B041B0C9A
:1019A0001B041B0CBA1D0020115E1B041B14BA1C67
:1019B0000020125E381C183000880090081C191C8A
:1019C000012304F0FBFD3B1C1B88013B1B041B0C8B
:1019D0001B041B0CBA1D0020115E3A1D0020125E74
:1019E0001B041B14381C183000880090081C111CA4
:1019F000012204F0E3FDBB1D1A88BB1C1B88D31811
:101A00001B041B0C013B1B041B0C1B041A0C3B1C72
:101A10001B88013B1B041B0C1B041B0C120412141F
:101A2000391D0020095E1B041B14381C1830008867
:101A30000090101C012204F0C1FDBD4603B090BC13
:101A400001BC004780B500AF204B80221A801F4B9D
:101A500000229A801D4B17221A811C4B00229A816A
:101A60001A4B00221A82194B00229A82174B184AED
:101A70001A83164B00229A83144B11221A84134B9B
:101A800000229A84114B00221A85104B01225242E7
:101A90009A850E4B0F4A9A860C4B02221A870B4BE3
:101AA00000229A87094A40230021D152074A48233D
:101AB0000021D152054A4C230021D152034B8122EF
:101AC0001A80BD4680BC01BC0047C046002C0140C6
:101AD000013000008813000080B500AF8023DB05D3
:101AE00080221A808023DB0550229A808023DB0528
:101AF00000221A818023DB0500229A818023DB05E6
:101B000000221A828023DB0500229A828023DB05D3
:101B1000C022D2011A838023DB0500229A8380230E
:101B2000DB0510221A848023DB0500229A8480239F
:101B3000DB0508221A858023DB0509229A8580238C
:101B4000DB05104A9A868023DB0505221A8780234D
:101B5000DB0500229A878023DA0540230021D15239
:101B60008023DA0548230021D1528023DA054C2353
:101B70000021D1528023DB0580221A80BD4680BC23
:101B800001BC00478813000080B500AF214B002244
:101B90001A60204B00225A601E4B1F4A9A601D4B50
:101BA0000022DA601B4B00221A611A4B00225A6194
:101BB000184B00229A61174B0022DA61154B002264
:101BC0001A62144B154A5A62124B00229A62114B48
:101BD0000022DA620F4B00221A630E4B00225A6376
:101BE0000C4B00229A630B4B0A4A926804210A4369
:101BF0009A60C046074B9A6804231340FAD0054BFD
:101C0000044A926801210A439A60BD4680BC01BC27
:101C10000047C0460024014000011600FF0F0000ED
:101C200080B500AF0A4B181C06F078FE084B094A35
:101C3000128A5A60064B084A9A60054B074ADA60D6
:101C4000034B074A1A60BD4680BC01BC0047C04632
:101C500008000240040300204C2401401803002027
:101C6000A525000080B582B000AF3B1D1B221A7075
:101C70003B1D00225A703B1D00229A703B1D002222
:101C8000DA703B1D181C06F04BFB3B1D12221A702C
:101C90003B1D00225A703B1D00229A703B1D002202
:101CA000DA703B1D181C06F03BFB3B1D0B221A7023
:101CB0003B1D00225A703B1D00229A703B1D0022E2
:101CC000DA703B1D181C06F02BFBBD4602B080BC31
:101CD00001BC004780B584B002AFBB1D00221A8052
:101CE000A0235B00BA1D12880092002000211A1C5C
:101CF000F02304F063FC414BBA1D12880092404A65
:101D0000019218203221002204F0D0FC3B4BBA1D76
:101D1000128800923B4A01926E203421002204F086
:101D2000C5FC364BBA1D12880092374A0192182022
:101D30004B210022FFF70EFC344B0022DA80334B9C
:101D400007221A71314B00225A71304B12221A703D
:101D50002E4B00229A722D4B0022DA722B4B00225E
:101D60009A812A4B8022D2001A82284BB522520037
:101D70005A80264B1B8A5B081B041B0C1B041A0C85
:101D8000224BDA81214B00221A81214B214A9A6190
:101D90001F4B00225A801E4B00221A711C4B00223E
:101DA0001A801A4B5A881A4BDA80184B1B8A1B046C
:101DB0001A0C174B9A81184B00221A70174B184AAD
:101DC0001A60184B134A1A60174B184A1A80184B9E
:101DD00000221A80174B184A1A80184B00221A70DA
:101DE000FFF730FEFFF778FEFFF7CEFEFFF718FF94
:101DF000BD4602B080BC01BC0047C046E0FF000009
:101E000044010020500100202C0100200403002088
:101E1000781C002044140020A6020020242000206A
:101E2000A5F30000981C00202820002010270000A7
:101E3000941C0020AE020020B80B0000AC02002071
:101E400080B582B000AF0A1CBB1D011C19803B1D70
:101E50001A80BA1D3B1D0021525E00215B5E9A4232
:101E600002DABB1D1B8801E03B1D1B881B041B14F1
:101E7000181CBD4602B080BC02BC084780B582B0C9
:101E800000AF0A1CBB1D011C19803B1D1A80BA1D26
:101E90003B1D0021525E00215B5E9A4202DDBB1DAC
:101EA0001B8801E03B1D1B881B041B14181CBD462E
:101EB00002B080BC02BC084780B584B000AF021CF1
:101EC0003960BB1D1A80BB1D1B88181C5C4902F0C1
:101ED0003BFD031C1B041A0C3B1C0F331A703B1CEC
:101EE0000F331B78302213431B061A0E3B681A70FF
:101EF0003B1C0F331B781B041B0C1A1CD200D21A7C
:101F0000111C49018A1A1201D31A1B011B04190C56
:101F1000BB1DBA1D12888A181A80BB1D1B88181C8D
:101F2000FA23990002F010FD031C1B041A0C3B1C41
:101F30000F331A703B6801333A1C0F32127830218C
:101F40000A431206120E1A703B1C0F331B781B0437
:101F50001B0C1A1C9201D21A9201D2185200D318EB
:101F6000DB001B04190CBB1DBA1D12888A181A80CD
:101F7000BB1D1B88181C642102F0E6FC031C1B041B
:101F80001A0C3B1C0F331A703B6802333A1C0F3299
:101F9000127830210A431206120E1A703B1C0F33BE
:101FA0001B781B041B0C1A1C5202D21A9200D21866
:101FB000D200D31A9B001B04190CBB1DBA1D12883A
:101FC0008A181A80BB1D1B88181C0A2102F0BCFC51
:101FD000031C1B041A0C3B1C0F331A703B680333A1
:101FE0003A1C0F32127830210A431206120E1A7070
:101FF0003B1C0F331B781B041B0C1A1C5203D21AF8
:102000009200D31A5B001B04190CBB1DBA1D128869
:102010008A181A803B680433BA1D12881206120E01
:1020200030210A431206120E1A703B680533002253
:102030001A703B68181CBD4604B080BC02BC08473F
:102040001027000080B500AF8023DB05144A12780A
:1020500012061216511E134A49008A5A013A1204F6
:10206000120C1A858023DB050D4A1278120612160F
:10207000511E0D4A49008A5A013A1204120C9A85DF
:102080008023DB058022D205928D1204120C5208A7
:102090001204120C1A87BD4680BC01BC0047C04622
:1020A00004030020D00100200002002080B584B08D
:1020B00002AFB74B1B882B2293431B041A0CB44B63
:1020C0001A80B34B1B881A1C0423134000D057E11D
:1020D0008023DB058022D20512881204120C012114
:1020E0008A431204120C1A80AA4BAA4A928912043B
:1020F000120C06218A431204120C9A81A64BA64A9E
:10210000126801218A431A60A34BA34A1268062170
:102110008A431A60A14BA14A52680F210A435A60B0
:102120009F4B9F4A526820218A435A609C4B9C4A8D
:10213000126802218A431A609A4B1B781B061B16F1
:102140000D2B06DC944B984ADA60914B964A5A6103
:1021500005E0914B954ADA608D4B944A5A618E4B5B
:10216000904A128A5A608C4B8B4A126804210A43A7
:102170001A60884B8B4A128A1A87864B854A928945
:102180001204120C06218A431204120C9A81814B0C
:10219000804A128A1204120C06218A431204120C7D
:1021A0001A82804B1B781B061B160D2B0DDD7D4BF9
:1021B0009B7A002B09D1774B764A92891204120C34
:1021C00004210A431204120C9A81794B1B681A1CD1
:1021D000784B9A425DD1764B734A1A60BB1D01223F
:1021E00052421A80A0235B00BA1D12880092002080
:1021F00000211A1CF02304F0E1F9BB1D1B88009399
:102200006D4B01931420502100221F2304F04EFA3D
:10221000BB1D1B880093694B01931820732100227A
:10222000002304F043FAF8231B02BA1D128800921F
:10223000634A01921420B421002204F037FAF823F3
:102240001B02BA1D128800925E4A01925A20B221E6
:10225000002204F02BFAF8231B02BA1D1288009208
:10226000594A01925A20C821002204F01FFA574B04
:10227000574A1A804B4B1B781B061A0E554B1A7087
:10228000554B00221A70554B00221A80404B0022F9
:102290005A80FFF7D7FE434B1B781B061B160D2BEE
:1022A0000CDC3F4B3E4A526820210A435A603C4BAB
:1022B0003B4A91684A4A0A409A6006E0384B384ADD
:1022C0009268802149000A439A60364BDB7A1B06EC
:1022D0001B16012B0AD12F4B2E4A128C1204120C02
:1022E00002218A431204120C1A8409E0294B294A5C
:1022F000128C1204120C02210A431204120C1A84CA
:10230000354B1B78002B3DD0344B1A88354B9A4205
:1023100012D1324B00221A80334B1B78002B03D191
:102320001B4BFF225A8007E0194B5B88082213439E
:102330001B041A0C164B5A80154B1B888022134322
:102340001B041A0C124B1A80164B1B781B061B160B
:102350000D2B05DD104B104A126801210A431A604B
:102360000C4B00229A848023DB058022D205128840
:102370001204120C01210A431204120C1A8002E00A
:10238000C04600E0C046BD4602B080BC01BC00476C
:10239000781C0020002C0140080002400000024090
:1023A00000240140040300204414002018030020EE
:1023B00024200020A5F30000380100202C0100207B
:1023C000080100201401002020010020AE0200209E
:1023D000B80B0000A6020020A7020020F41E002077
:1023E000FFFEFFFFDC050000A0020020F0B547461D
:1023F00080B486B000AF924B802212021A61914BDA
:102400001B881A1C0223134044D008E08D4B1A8A03
:102410008D4B1B8AD31A1B041A0C8A4B1A82894BC8
:102420001A8A894B1B8A9A42F0D2884BDA68864B0B
:102430001B8A191C844BDB891B041B14CB1A5B0001
:10244000191C804B1B8A5B00CB18D3181A1C7D4BC0
:102450005A617C4B5A697D4BD9687B4B1B8A5B0068
:10246000CB189A4208D3774B5A69774B1B8A5B008B
:102470005B42D218734B5A61734B9B7A1B061B1637
:10248000022B07D16F4B1B88202213431B041A0C0D
:102490006C4B1A806B4B1B881A1C0423134001D011
:1024A00000F0DFFE684B1B781B061B16162B40DC6A
:1024B000644B5B697B61664B3B610023BB603B1CEB
:1024C0000E33614A128A1A8022E07B691B889B08BE
:1024D0001B041A0C3B691A807B691B88BA68D318E5
:1024E000BB603B6902333B617B6902337B61564BC6
:1024F0001B8A5A00574BD2187B699A4201D8554B18
:102500007B613B1C0E333A1C0E321288013A1A8052
:102510003B1C0E331B88002BD7D14B4B1B8AB86852
:10252000191C02F011FA031C9B081B041A0C454BE2
:10253000DA81454B1B781B061B16172B07D0424B25
:102540001B781B061B16182B01D000F087FE414B91
:102550007B610023BB603B1C0E3300221A800EE01F
:102560007B691B88BA68D318BB607B6902337B61C7
:102570003B1C0E333A1C0E32128801321A80324B49
:102580001B8A3A1C0E3212889A42E9D32E4B1B8AC0
:10259000B868191C02F0D8F9031C9A08BB1C1A80F1
:1025A000BB1C1A88274BDA81264B5B697B612A4B5F
:1025B0007B603B1C0E3300221A8026E07B691B885F
:1025C0009B081B041A0CBB1C1B88D31A1B041B0C76
:1025D0001B041A0C7B681A807B6802337B607B6962
:1025E00002337B61184B1B8A5B001A1C194BD318F2
:1025F0001A1C7B699A4201D8164B7B613B1C0E3337
:102600003A1C0E32128801321A800F4B1B8A3A1C78
:102610000E3212889A42D1D30F4B7B600C4B3B6138
:10262000094B1B781B061B16172B03D0182B00D148
:1026300006E304E33B1C0E3300221A80EFE2C0469F
:1026400000080140781C002004030020080002401C
:102650004414002018030020180B00207B6804336A
:102660001B881B041A0CBB1C1B88D3181B041A0CD8
:102670003B691A803B69023398467B681B881B04C0
:102680001B14181CFEF7C8FC031C181CFEF7A4F84A
:10269000031C0C1C181C211CF04BEF4AFEF7F0F831
:1026A000031C0C1C1D1C261C7B6802331B881B048E
:1026B0001B14181CFEF7B0FC031C181CFEF78CF84A
:1026C000031C0C1C181C211CE54AE64BFEF7D8F82D
:1026D000031C0C1C281C311C1A1C231CFDF71EFF9C
:1026E000031C0C1C1D1C261C7B6804331B881B044C
:1026F0001B14181CFEF790FC031C181CFEF76CF84A
:10270000031C0C1C181C211CD74AD84BFEF7B8F828
:10271000031C0C1C281C311C1A1C231CFDF7FEFE7C
:10272000031C0C1C1D1C261C7B6806331B881B0409
:102730001B14181CFEF770FC031C181CFEF74CF849
:10274000031C0C1C181C211CC94ACA4BFEF798F824
:10275000031C0C1C281C311C1A1C231CFDF7DEFE5C
:10276000031C0C1C1D1C261C7B6808331B881B04C7
:102770001B14181CFEF750FC031C181CFEF72CF849
:10278000031C0C1C181C211CBB4ABC4BFEF778F820
:10279000031C0C1C281C311C1A1C231CFDF7BEFE3C
:1027A000031C0C1C181C211CFEF704FB031C1B043F
:1027B0001B0C1B041A0CBB1C1B88D3181B041B0C02
:1027C000424613803B69043398467B6802331B887A
:1027D0001B041B14181CFEF71FFC031C181CFDF720
:1027E000FBFF031C0C1C181C211CA34AA34BFEF767
:1027F00047F8031C0C1C1D1C261C7B6804331B881B
:102800001B041B14181CFEF707FC031C181CFDF707
:10281000E3FF031C0C1C181C211C994A994BFEF762
:102820002FF8031C0C1C281C311C1A1C231CFDF740
:1028300075FE031C0C1C1D1C261C7B6806331B88A4
:102840001B041B14181CFEF7E7FB031C181CFDF7E8
:10285000C3FF031C0C1C181C211C8B4A8B4BFEF75E
:102860000FF8031C0C1C281C311C1A1C231CFDF720
:1028700055FE031C0C1C1D1C261C7B6808331B8882
:102880001B041B14181CFEF7C7FB031C181CFDF7C8
:10289000A3FF031C0C1C181C211C7D4A7D4BFDF75B
:1028A000EFFF031C0C1C281C311C1A1C231CFDF7F9
:1028B00035FE031C0C1C1D1C261C7B680A331B8860
:1028C0001B041B14181CFEF7A7FB031C181CFDF7A8
:1028D00083FF031C0C1C181C211C604B5E4AFDF777
:1028E000CFFF031C0C1C281C311C1A1C231CFDF7D9
:1028F00015FE031C0C1C181C211CFEF75BFA031CA4
:102900001B041B0C1B041A0CBB1C1B88D3181B04B8
:102910001B0C424613803B69063398467B680233A2
:102920001B881B041B14181CFEF776FB031C181CC9
:10293000FDF752FF031C0C1C181C211C474B464A78
:10294000FDF79EFF031C0C1C1D1C261C7B6804331A
:102950001B881B041B14181CFEF75EFB031C181CB1
:10296000FDF73AFF031C0C1C181C211C484A494B5C
:10297000FDF786FF031C0C1C281C311C1A1C231C91
:10298000FDF7CCFD031C0C1C1D1C261C7B680633AC
:102990001B881B041B14181CFEF73EFB031C181C91
:1029A000FDF71AFF031C0C1C181C211C364A374B60
:1029B000FDF766FF031C0C1C281C311C1A1C231C71
:1029C000FDF7ACFD031C0C1C1D1C261C7B6808338A
:1029D0001B881B041B14181CFEF71EFB031C181C71
:1029E000FDF7FAFE031C0C1C181C211C244A254B65
:1029F000FDF746FF031C0C1C281C311C1A1C231C51
:102A0000FDF78CFD031C0C1C1D1C261C7B680A3367
:102A10001B881B041B14181CFEF7FEFA031C181C51
:102A2000FDF7DAFE031C0C1C181C211C0B4B0A4A78
:102A3000FDF726FF031C0C1C281C311C1A1C231C30
:102A4000FDF76CFD031C0C1C181C211CFEF7B2F9D1
:102A500022E0C046C046C046000000000000000062
:102A6000AF946588635DB4BF0E2DB29DEFA7E63FBE
:102A70004772F90FE9B7DB3F0E2DB29DEFA7A6BF56
:102A80000E2DB29DEFA7C63F738577B988EFED3F56
:102A90004F232D95B723B4BF031C1B041B0C1B0431
:102AA0001A0CBB1C1B88D3181B041B0C424613803A
:102AB0003B690822D21890467B6804331B881B04AC
:102AC0001B14181CFEF7A8FA031C181CFDF784FE43
:102AD000031C0C1C181C211C5E4B5D4AFDF7D0FE2C
:102AE000031C0C1C1D1C261C7B6806331B881B0446
:102AF0001B14181CFEF790FA031C181CFDF76CFE43
:102B0000031C0C1C181C211C534A544BFDF7B8FE27
:102B1000031C0C1C281C311C1A1C231CFDF7FEFC7A
:102B2000031C0C1C1D1C261C7B6808331B881B0403
:102B30001B14181CFEF770FA031C181CFDF74CFE42
:102B4000031C0C1C181C211C454A464BFDF798FE23
:102B5000031C0C1C281C311C1A1C231CFDF7DEFC5A
:102B6000031C0C1C1D1C261C7B680A331B881B04C1
:102B70001B14181CFEF750FA031C181CFDF72CFE42
:102B8000031C0C1C181C211C374A384BFDF778FE1F
:102B9000031C0C1C281C311C1A1C231CFDF7BEFC3A
:102BA000031C0C1C1D1C261C7B680C331B881B047F
:102BB0001B14181CFEF730FA031C181CFDF70CFE42
:102BC000031C0C1C181C211C294A2A4BFDF758FE1B
:102BD000031C0C1C281C311C1A1C231CFDF79EFC1A
:102BE000031C0C1C181C211CFEF7E4F8031C1B041E
:102BF0001B0C1B041A0CBB1C1B88D3181B041B0CBE
:102C0000424613807B6804337B603B690A333B6137
:102C10003B1C0E333A1C0E32128801321A80164BBE
:102C20001B8A181C052101F08FFE031C1B041B0CC2
:102C30003A1C0E3212889A4200D20FE50EE30DE3E1
:102C40003B1C0E3300221A80F8E2C046C046C04644
:102C50000E2DB29DEFA7A6BF4772F90FE9B7DB3F74
:102C60000E2DB29DEFA7E63FAF946588635DB4BFBC
:102C70000000000000000000040300207B68043313
:102C80001B881B041A0CBB1C1B88D3181B041A0CB2
:102C90003B691A803B69023398467B681B881B049A
:102CA0001B14181CFEF7B8F9031C181CFDF794FD43
:102CB000031C0C1C181C211CF04BEF4AFDF7E0FD17
:102CC000031C0C1C1D1C261C7B6802331B881B0468
:102CD0001B14181CFEF7A0F9031C181CFDF77CFD43
:102CE000031C0C1C181C211CE54AE64BFDF7C8FD13
:102CF000031C0C1C281C311C1A1C231CFDF70EFC89
:102D0000031C0C1C1D1C261C7B6804331B881B0425
:102D10001B14181CFEF780F9031C181CFDF75CFD42
:102D2000031C0C1C181C211CD74AD84BFDF7A8FD0E
:102D3000031C0C1C281C311C1A1C231CFDF7EEFB69
:102D4000031C0C1C1D1C261C7B6806331B881B04E3
:102D50001B14181CFEF760F9031C181CFDF73CFD42
:102D6000031C0C1C181C211CC94ACA4BFDF788FD0A
:102D7000031C0C1C281C311C1A1C231CFDF7CEFB49
:102D8000031C0C1C1D1C261C7B6808331B881B04A1
:102D90001B14181CFEF740F9031C181CFDF71CFD42
:102DA000031C0C1C181C211CBB4ABC4BFDF768FD06
:102DB000031C0C1C281C311C1A1C231CFDF7AEFB29
:102DC000031C0C1C181C211CFDF7F4FF031C1B0426
:102DD0001B0C1B041A0CBB1C1B88D3181B041B0CDC
:102DE000424613803B69043398467B681B881B046A
:102DF0001B14181CFEF710F9031C181CFDF7ECFC43
:102E0000031C0C1C181C211C9C4B9B4AFDF738FD15
:102E1000031C0C1C1D1C261C7B6802331B881B0416
:102E20001B14181CFEF7F8F8031C181CFDF7D4FC43
:102E3000031C0C1C181C211C994A9A4BFDF720FD01
:102E4000031C0C1C281C311C1A1C231CFDF766FBE0
:102E5000031C0C1C1D1C261C7B6804331B881B04D4
:102E60001B14181CFEF7D8F8031C181CFDF7B4FC43
:102E7000031C0C1C181C211C8B4A8C4BFDF700FDFD
:102E8000031C0C1C281C311C1A1C231CFDF746FBC0
:102E9000031C0C1C1D1C261C7B6806331B881B0492
:102EA0001B14181CFEF7B8F8031C181CFDF794FC43
:102EB000031C0C1C181C211C7D4A7E4BFDF7E0FCFA
:102EC000031C0C1C281C311C1A1C231CFDF726FBA0
:102ED000031C0C1C1D1C261C7B6808331B881B0450
:102EE0001B14181CFEF798F8031C181CFDF774FC43
:102EF000031C0C1C181C211C674A684BFDF7C0FC06
:102F0000031C0C1C281C311C1A1C231CFDF706FB7F
:102F1000031C0C1C181C211CFDF74CFF031C1B047C
:102F20001B0C1B041A0CBB1C1B88D3181B041B0C8A
:102F3000424613803B69063398467B6802331B8800
:102F40001B041B14181CFEF767F8031C181CFDF764
:102F500043FC031C0C1C181C211C4F4A4F4BFDF753
:102F60008FFC031C0C1C1D1C261C7B6804331B8857
:102F70001B041B14181CFEF74FF8031C181CFDF74C
:102F80002BFC031C0C1C181C211C494A494BFDF747
:102F900077FC031C0C1C281C311C1A1C231CFDF77D
:102FA000BDFA031C0C1C1D1C261C7B6806331B88E9
:102FB0001B041B14181CFEF72FF8031C181CFDF72C
:102FC0000BFC031C0C1C181C211C374A374BFDF74B
:102FD00057FC031C0C1C281C311C1A1C231CFDF75D
:102FE0009DFA031C0C1C1D1C261C7B6808331B88C7
:102FF0001B041B14181CFEF70FF8031C181CFDF70C
:10300000EBFB031C0C1C181C211C254A254BFDF74F
:1030100037FC031C0C1C281C311C1A1C231CFDF73C
:103020007DFA031C0C1C1D1C261C7B680A331B88A4
:103030001B041B14181CFDF7EFFF031C181CFDF7E5
:10304000CBFB031C0C1C181C211C0C4B0A4AFDF763
:1030500017FC031C0C1C281C311C1A1C231CFDF71C
:103060005DFA031C0C1C181C211CFDF7A3FE031C9D
:1030700022E0C046C046C04600000000000000003C
:103080004F232D95B723B4BF738577B988EFED3FF4
:103090000E2DB29DEFA7C63F0E2DB29DEFA7A6BF86
:1030A000AF946588635DB4BF0E2DB29DEFA7E63F78
:1030B0004772F90FE9B7DB3F1B041B0C1B041A0C0A
:1030C000BB1C1B88D3181B041B0C424613803B6996
:1030D0000822D21890467B6802331B881B041B14FD
:1030E000181CFDF799FF031C181CFDF775FB031C4A
:1030F0000C1C181C211C6F4B6D4AFDF7C1FB031CF7
:103100000C1C1D1C261C7B6804331B881B041B1411
:10311000181CFDF781FF031C181CFDF75DFB031C49
:103120000C1C181C211C644A644BFDF7A9FB031CF2
:103130000C1C281C311C1A1C231CFDF7EFF9031C66
:103140000C1C1D1C261C7B6806331B881B041B14CF
:10315000181CFDF761FF031C181CFDF73DFB031C49
:103160000C1C181C211C564A564BFDF789FB031CEE
:103170000C1C281C311C1A1C231CFDF7CFF9031C46
:103180000C1C1D1C261C7B6808331B881B041B148D
:10319000181CFDF741FF031C181CFDF71DFB031C49
:1031A0000C1C181C211C484A484BFDF769FB031CEA
:1031B0000C1C281C311C1A1C231CFDF7AFF9031C26
:1031C0000C1C1D1C261C7B680A331B881B041B144B
:1031D000181CFDF721FF031C181CFDF7FDFA031C4A
:1031E0000C1C181C211C3A4A3A4BFDF749FB031CE6
:1031F0000C1C281C311C1A1C231CFDF78FF9031C06
:103200000C1C181C211CFDF7D5FD031C1B041B0CFA
:103210001B041A0CBB1C1B88D3181B041B0C424636
:1032200013807B6802337B603B690A333B613B1C44
:103230000E333A1C0E32128801321A80264B1B8A3A
:10324000181C052101F080FB031C1B041B0C3A1CFD
:103250000E3212889A4200D210E5C0461F4B204A17
:103260009A611E4B1B881A1C2023134017D01B4B3E
:103270001B88042213431B041A0C184B1A80174B8B
:103280001B88202293431B041A0C144B1A80134BE7
:103290005B88022213431B041A0C104B5A80BD4654
:1032A00006B004BC9046F0BC01BC0047C046C04616
:1032B0000E2DB29DEFA7A6BF0E2DB29DEFA7C63F64
:1032C000738577B988EFED3F4F232D95B723B4BFB2
:1032D000000000000000000004030020781C002013
:1032E0004414002080B500AF104B1B880822934384
:1032F0001B041A0C0D4B1A800D4B9B7A002B05D02A
:103300000A4B1B881A1C022313400BD0074B5A6927
:10331000064B9A61054B5B88042213431B041A0C6D
:10332000024B5A80BD4680BC01BC0047781C00207F
:103330000403002080B500AF8023DB058022D20586
:1033400012881204120C01218A431204120C1A80F2
:10335000BD4680BC01BC004780B582B000AF021CF6
:10336000FB1D1A70FB1D1B781B061B160C2B02DDA8
:10337000FB1D0C221A70FB1D1B781B061B16032B52
:1033800002DCFB1D04221A70064BFA1D12781A711A
:10339000044B1B791B061B16181CBD4602B080BCD3
:1033A00002BC08470403002080B500AF044B1B7922
:1033B0001B061B16181CBD4680BC02BC0847C04635
:1033C0000403002080B582B000AF021CFB1D1A7000
:1033D000FB1D1B781B061B16022B02DDFB1D0222A8
:1033E0001A70FB1D1B787F2B02D9FB1D00221A705F
:1033F000064BFA1D12785A71044B5B791B061B169B
:10340000181CBD4602B080BC02BC08470403002063
:1034100080B500AF044B5B791B061B16181CBD461C
:1034200080BC02BC0847C0460403002080B582B0BF
:1034300000AF021CBB1D1A80BB1D00215A5E0F4B42
:103440009A4202DABB1D0D4A1A80BB1D00215A5E4A
:10345000FA235B009A4203DDBB1DFA2252001A8058
:10346000074BBA1D1288DA80BB1D1B881B041B1476
:10347000181CBD4602B080BC02BC08470CFEFFFF12
:103480000403002080B500AF044BDB881B041B1431
:10349000181CBD4680BC02BC0847C046040300207F
:1034A00080B582B000AF021CFB1D1A70FB1D1B789B
:1034B0001B061B16002B02DCFB1D01221A70FB1DD4
:1034C0001B781B061B16182B02DDFB1D18221A7019
:1034D000064BFA1D12781A70044B1B781B061B163C
:1034E000181CBD4602B080BC02BC08470403002083
:1034F00080B500AF044B1B781B061B16181CBD467D
:1035000080BC02BC0847C0460403002080B582B0DE
:1035100000AF021CBB1D1A80BB1D00215B5E002B8F
:1035200002DABB1D00221A80BB1D00215A5E0E4B21
:103530001B8A2E3BFF3B9A4207DD0B4B1B8A2E3B1F
:10354000FF3B1B041A0CBB1D1A80074BBA1D1288C7
:103550005A80054B5B881B041B14181CBD4602B027
:1035600080BC02BC0847C0460403002080B500AF01
:10357000044B5B881B041B14181CBD4680BC02BC9A
:103580000847C0460403002080B582B000AF021C8B
:10359000FB1D1A70FB1D1B787F2B02D9FB1D00221F
:1035A0001A70FB1D1B781B061B16022B02DDFB1D70
:1035B00002221A70064BFA1D12789A72044B9B7AFB
:1035C0001B061B16181CBD4602B080BC02BC084777
:1035D0000403002080B500AF044B9B7A1B061B162A
:1035E000181CBD4680BC02BC0847C046040300202E
:1035F00080B582B000AF021CFB1D1A70FB1D1B784A
:103600007F2B02D9FB1D00221A70FB1D1B781B06A5
:103610001B16012B02DDFB1D01221A70064BFA1D41
:103620001278DA72044BDB7A1B061B16181CBD4697
:1036300002B080BC02BC08470403002080B500AF84
:10364000044BDB7A1B061B16181CBD4680BC02BC53
:103650000847C0460403002080B582B000AF021CBA
:10366000BB1D1A80BB1D00215A5E0F4B9A4202DA25
:10367000BB1D0D4A1A80BB1D00215A5E9623DB003C
:103680009A4203DDBB1D9622D2001A80074BBA1D59
:1036900012889A81054B9B891B041B14181CBD467C
:1036A00002B080BC02BC084750FBFFFF04030020AF
:1036B00080B500AF044B9B891B041B14181CBD462E
:1036C00080BC02BC0847C0460403002080B582B01D
:1036D00000AF021CBB1D1A80BB1D1A880E4B9A42FC
:1036E00003D8BB1D802292001A80BB1D1A8880233C
:1036F000DB009A4203D9BB1D8022D2001A80074BFF
:10370000BA1D12881A82054B1B8A181CBD4602B0CE
:1037100080BC02BC0847C046FF0100000403002033
:1037200080B500AF034B1B8A181CBD4680BC02BC91
:103730000847C0460403002080B582B000AF021CD9
:10374000FB1D1A70FB1D1B78052B02D9FB1D0522E2
:103750001A70064BFA1D12781A71044B1B79181C4B
:10376000BD4602B080BC02BC0847C046781C0020A1
:1037700080B500AF034B1B79181CBD4680BC02BC52
:103780000847C046781C002080B500AF034B1B885B
:10379000181CBD4680BC02BC0847C046781C0020EF
:1037A00080B500AF054B1B88042213431B041A0C81
:1037B000024B1A80BD4680BC01BC0047781C00202B
:1037C00080B500AF054B1B88042293431B041A0CE1
:1037D000024B1A80BD4680BC01BC0047781C00200B
:1037E00080B500AF044BDB891B041B14181CBD46BD
:1037F00080BC02BC0847C046781C002080B582B05F
:1038000000AF021CBB1D1A80BB1D00215A5E0F4B6E
:103810009A4202DABB1D0D4A1A80BB1D00215A5E76
:10382000FA235B009A4203DDBB1DFA2252001A8084
:10383000074BBA1D12881A81BB1D1B881B041B1461
:10384000181CBD4602B080BC02BC08470CFEFFFF3E
:103850000403002080B500AF044B1B891B041B141C
:10386000181CBD4680BC02BC0847C04604030020AB
:1038700080B582B000AF021CBB1D1A80064B5A886F
:10388000BB1D1B8813431B041A0C034B5A80BD46F7
:1038900002B080BC01BC0047781C002080B500AF9E
:1038A000BD4680BC01BC0047F0B587B002AFDD4B20
:1038B0001B78002B22D1DC4B1A6880235B0213405B
:1038C0001CD0DA4B1B8801331B041A0CD74B1A800F
:1038D000D74B00225A80D54B1A88D64B9A420DD12D
:1038E000D54B1B781B061A0ECE4B1A70D04B1B887B
:1038F000012213431B041A0CCD4B1A80CF4B1B78AB
:10390000002B02D1CA4B00225A80C94B5B881A1C7B
:103910000823134009D0C64B5B88082293431B043D
:103920001A0CC34B5A8002F05FFEC14B5B881A1C15
:10393000012313400BD0BE4B5B88012293431B0431
:103940001A0CBB4B5A8002F04FFE00F0D1FBB84B73
:103950005B881A1C0223134000D1ABE3B44B5B8895
:10396000022293431B041A0CB14B5A80A0235B0024
:10397000002200920020DA211A1C162302F01EFEFB
:10398000AD4B1B791B061B161A1F131C9B009B18A3
:10399000AB4A9A18AB4B00210091AB490191102022
:1039A000E12102F031FEA44B5B791B061B169A0045
:1039B000A64BD218A34B00210091A34901913C20B2
:1039C000E12102F021FE9C4B1B781B061B165A1EA0
:1039D000131C5B009B185B009D4A9A18FC23DB00BC
:1039E00000210091984901917320E12102F00CFE21
:1039F000914B9B7A1B061A16131C9B009B18954A29
:103A00009A18954B002100918F490191C320E12123
:103A100002F0FAFD884BDB7A1B061A0E822359004E
:103A20008D4B002000908D480190081CE32102F08E
:103A30003DFE7F4B1B79022B31D83B1C0F337C4A58
:103A400012791A703B1C0F331A78854BD200D05A6A
:103A50003B1C0F331A7882490223D2008A18D318EC
:103A600019883B1C0F331A787D4C0423D200A2180E
:103A7000D3181A883B1C0F331C78794D0623E400B9
:103A80002C19E3181B8800040014090409141204FB
:103A900012141B041B14734C0094FDF74FFF724B60
:103AA00000220092684A01920E2000211A1C002375
:103AB00002F0AAFD5E4B1B881A1C042313400BD096
:103AC0006A4B00220092604A01920E2000211A1CCB
:103AD0001F2302F099FD0AE0654AFC23DB00002168
:103AE0000091594901910E20002102F08DFD614B9A
:103AF0001A88614B9A4258D0604B1B8801331B04D3
:103B00001A0C5E4B1A805D4B1B88462B4DD13B1C1B
:103B10000C3300221A803B1C0C331A88A0235B0054
:103B20000092002000211A1CF02302F047FD3B1CEC
:103B30000C331B880093524B019314205021002218
:103B40001F2302F0B3FD3B1C0C331A88454B009237
:103B50004C4A019218207321002202F0A7FD3B1C61
:103B60000C331A883F4B0092474A01921420B4212B
:103B7000002202F09BFD3B1C0C331A88394B00924B
:103B8000424A01925A20B221002202F08FFD3B1CD2
:103B90000C331A88334B00923D4A01925A20C821B7
:103BA000002202F083FD00F0C9FE214B1B891B049B
:103BB0001B0C033B1B041B0C00220092354A019294
:103BC0000220191C0122002302F070FD1A4BDB8831
:103BD0001B041A0C184B1B891B041B0CD3181B0449
:103BE0001B0C7522D31A1B041A0C3B1C0C331A80B5
:103BF0003B1C0C3300229B5E102B03DC3B1C0C3364
:103C000011221A803B1C0C3300229B5ED92B03DD52
:103C10003B1C0C33D9221A80054B1B79052B3BD159
:103C2000104B3AE0A702002010E000E0F41E002054
:103C3000781C0020DC05000004030020A602002000
:103C400044940008FF070000380200209894000800
:103C5000A49400083C9500085FB30000AC0100206C
:103C6000B8010020E0FF00004C95000858950008BE
:103C700060950008A20200204AEC0000A402002087
:103C8000380100202C010020080100201401002030
:103C9000200100208C010020E14B3A1C0A321380E5
:103CA0003B1C0C331B88033B1B041A0C3B1C0A33C4
:103CB0001B8800210091DB4901910220111C012287
:103CC00002F0F4FCD84B3A1C0C3212881A81D64B05
:103CD000DA88D54B5B79120412141B041B140021E3
:103CE0000091101C08211A1C052302F067FCFC231C
:103CF000DB0000936B2006210122082302F05EFC0A
:103D0000FC23DB0000936B2006210422012302F038
:103D100055FCFC23DB0000936B200E2104220123C1
:103D200002F04CFCFC23DB000093D520062101228D
:103D3000082302F043FCFC23DB000093D220062181
:103D40000422012302F03AFCFC23DB000093D22082
:103D50000E210422012302F031FCFC23DB0000933E
:103D60006E200A216522012302F028FCAF4B5B88FC
:103D70001B041B14652253431A1CAC4B1B8A101CDA
:103D8000191C00F0E1FD031C1B061A0E3B1C0F332F
:103D90006E321A70A54B1B8AA548191C00F0D4FD81
:103DA000031C1B041A0C3B1C0E331A709E4B1B7910
:103DB000042B01D19F4B01E0FC23DB003A1C0A32AB
:103DC00013803B1C0F331B781B041A0C3B1C0E3357
:103DD0001B781B041B0C120412141B041B14391C2B
:103DE0000A3109880091101C08211A1C052302F0D1
:103DF000E5FB3B1C0F331B781B041A0C8A4BDA8043
:103E0000894B3A1C0E3212785A71874B5B891B041E
:103E10001B0C033B1B041B0C874A002100918149AA
:103E20000191101C191C0222002302F03FFC7F4B61
:103E30009B891B041B149B101B041B0C1B041A0CDA
:103E40007A4BDB881B041B0CD3181B041B0C75223C
:103E5000D31A1B041A0C3B1C0C331A803B1C0C336A
:103E600000229B5E102B03DC3B1C0C3311221A80BA
:103E70003B1C0C3300229B5ED92B03DD3B1C0C3317
:103E8000D9221A80684B1B79032B01D1694B00E0C2
:103E90006A4B3A1C0A3213803B1C0C331B88033BD1
:103EA0001B041A0C64493B1C0A331B880020009039
:103EB0005C480190081C111C022202F0F7FB5A4BCF
:103EC0003A1C0C3212885A81584B9B891B041B14D4
:103ED0009B101B041B0C1B041B14181CFDF79CF8E7
:103EE000031C181CFCF778FC031C0C1C181C211C60
:103EF0004A4B494AFCF7C4FC031C0C1C1D1C261C25
:103F00004A4B1B791B061B161A1F4D4B9200D358A8
:103F1000181CFCF761FC031C0C1C281C311C1A1C0F
:103F2000231CFCF7ADFC031C0C1C181C211CFCF70B
:103F300069FF031C7B6078680021FDF773FA031C9E
:103F40000BD03B1C0F3320221A703C1C0A347868BB
:103F5000FDF77CFA031C23800EE03B1C0F332D225F
:103F60001A707B688022120653403C1C0A34181CCD
:103F7000FDF76CFA031C23803B1C0A331A88314B73
:103F8000101C191CFDF798FF284B1B791B061B16EC
:103F9000092B1DDC2C4B1A792B4B5A712A4BDA78E2
:103FA000294B1A71284B2E22DA70274B56229A7110
:103FB000254B0022DA71244B3A1C0F3212781A700A
:103FC000214B5B78302B6BD11F4B20225A7067E05E
:103FD0001D4B20221A701C4B9A781B4B5A701A4B9F
:103FE000DA78194B9A70184B1A79174BDA70164B0E
:103FF0005A79154B1A71144B6D225A71124B562275
:104000009A71114B0022DA713B1C0E3301221A7097
:1040100030E0C046C046C0460000000000C8E93F8E
:10402000FF0700008C010020781C00200403002002
:104030005C760000E0FF0000370100005FB3000085
:1040400074940008451C0020441C00203B1C0E33C7
:104050001B78234AD35C302B12D13B1C0E331B78C8
:104060001F4A2021D1543B1C0E333A1C0E321278C9
:1040700001321A703B1C0E331B78032BE6D900E08B
:10408000C0463B1C0E333A1C0E321278013A1A70AD
:104090003B1C0E331B78124A391C0F310978D1545E
:1040A0000F4A104B002100910F490191F02000218F
:1040B00002F0AAFA0D4B5B881A1C0423134009D0A6
:1040C0000A4B5B88042293431B041A0C074B5A804B
:1040D00000F0E0F8BD4605B0F0BC01BC0047C046AA
:1040E000441C00201E84000038020020781C0020A0
:1040F00080B584B002AFFB1D01221A7021E0FB1DC8
:104100001B781B041B0C1A1C9200D3181A1C91005C
:104110001A1C0B1CD3181B041B0C0A331B041B0C8E
:104120001B041B0C1B041B14584A0092181C112161
:104130000122C82302F042FAFB1DFA1D1278013257
:104140001A70FB1D1B780B2BD9D9FB1D01221A708D
:1041500022E0FB1D1B781B041B0C1A1C9200D318B9
:104160001A1C91001A1C0B1CD3181B041B0C1133B6
:104170001B041B0C1B041B0C1B041B14962252005B
:10418000424900910A20191C012302F017FAFB1D75
:10419000FA1D127801321A70FB1D1B78072BD8D933
:1041A00096235B003A4A00920A2011211A1C01232F
:1041B00002F004FA96235B00354A00920A20D921C6
:1041C0001A1C012302F0FAF9314B00930A20112145
:1041D0000122C82302F0F2F99B235B002C4A0092D3
:1041E000181C11210122C82302F0E8F9FB1D01224D
:1041F0001A701CE0FB1D1B781B041B0C1A1C920080
:10420000D3181B041B0C0A331B041B0C1B041B0CB4
:104210001B041B141D4A0092181C73210122052344
:1042200002F0CCF9FB1DFA1D127801321A70FB1D49
:104230001B783B2BDED9FB1D01221A701CE0FB1DF5
:104240001B781B041B0C1A1C9200D3181B041B0C9C
:1042500011331B041B0C1B041B0C1B041B140B4AEB
:1042600000929E20191C0522012302F0A7F9FB1DD4
:10427000FA1D127801321A70FB1D1B78272BDED92C
:10428000BD4602B080BC01BC0047C046CB5A00000E
:10429000FBDE000090B58BB002AFA44B1B881A1C4C
:1042A0004023134004D0A24B7B61A24B3B6103E04F
:1042B000A14B7B61A14B3B619C4B9A69A04B5B88F6
:1042C0001B041B145B00D318FB609D4B1B8A5A0018
:1042D0009C4BD218FB689A4206D8994B1B8A5B000C
:1042E0005B42FA68D318FB603B1C0A33944AD288BD
:1042F0001A80FB681A883B1C0A331B88D3181B04DE
:104300001A0C3B1C1A331A803B1C1A3300215A5ECC
:104310008D4B9A4203DD3B1C1A338B4A1A803B1C9F
:104320001A3300215A5E894B9A4204DC3B1C1A3333
:10433000CE2252001A803B1C1E330B221A8081E0D1
:10434000FB681A883B1C1C331A803B1C1C331A88E0
:104350003B1C0A331B88D3181B041A0C3B1C1C3350
:104360001A803B1C1C3300215A5E774B9A4203DDB6
:104370003B1C1C33744A1A803B1C1C3300215A5EC0
:10438000724B9A4204DC3B1C1C33CE2252001A8032
:104390003C1C08343B1C1C3300215A5E3B1C1A3366
:1043A00000215B5E101C191CFDF74AFD031C2380D5
:1043B000BC1D3B1C1C3300215A5E3B1C1A330021E0
:1043C0005B5E101C191CFDF759FD031C23803B1C70
:1043D0001A333A1C1C3212881A80BB1D1B881B061C
:1043E0001B0E7522D31A1B061A0E7B691A707B6985
:1043F00001337B61BB1D1B881B061A0E3B1C083357
:104400001B881B061B0ED31A1B061B0E01331B0633
:104410001A0E3B691A703B6901333B61FB6802333A
:10442000FB60474B1B8A5A00464BD218FB689A42E6
:1044300001D8444BFB603B1C1E333A1C1E321288D1
:1044400001321A803B1C1E331A88414B9A4200D815
:1044500076E7404B1B88002B16D03E4B1B88013B58
:104460001B041A0C3B4B1A803A4B1B88002B0BD1B8
:104470002E4B1B88102213431B041A0C2B4B1A8043
:10448000354BFA2252001A80002000F06DF8FFF739
:104490002FFE264B1B88402253401B041A0C234B33
:1044A0001A802E4B181C00F05FF82B4B1B88002B3A
:1044B0002AD0294B1B88013B1B041A0C264B1A805F
:1044C000254B1B88002B1FD1184B1B8810229343B0
:1044D0001B041A0C154B1A8000230093204B0193E8
:1044E0000B20CC210022002302F0E0F800230093EF
:1044F0001C4B0193C420CD210022002302F0D6F8EA
:10450000144BFA2292001A80124B1B88002B07D101
:10451000114B1B88002B03D10E4BFA2292001A80FC
:10452000BD4609B090BC01BC0047C046781C0020C5
:10453000C81D002018130020F81E00209C1C00201D
:104540000403002044140020630200009B010000CB
:104550003501000028200020941C0020FF070000E7
:104560005C0100206801002080B588B002AF021C09
:10457000BB1D1A80464B1B881A1C4023134050D089
:10458000444B3B61444BFB603B1C16330B221A80AF
:1045900022E03B1C163319883B691B781A1C3B69C7
:1045A00001333B61FB681B78F8680130F86009044F
:1045B0000914120412141B041B14B81D0088009067
:1045C000081C111C012201F0F9FF3B1C16333A1C98
:1045D0001632128801321A803B1C16331A882F4B70
:1045E0009A42D6D92A4B1B881A1C102313404AD052
:1045F000BB1D1B88002B46D0294B00220092294A64
:1046000001920B20CC21002202F050F8244B002212
:104610000092254A0192C420CD21002202F046F8E2
:1046200031E0224B3B61224BFB603B1C16330B22DB
:104630001A8022E03B1C163319883B691B781A1C30
:104640003B6901333B61FB681B78F8680130F86017
:1046500009040914120412141B041B14B81D008849
:104660000090081C111C012201F0A8FF3B1C16330E
:104670003A1C1632128801321A803B1C16331A88F3
:10468000064B9A42D6D9BD4606B080BC01BC004755
:10469000781C0020F81E00209C1C00203501000022
:1046A000CB5A00005C01002068010020C81D0020DA
:1046B0001813002080B500AF504B1B8A1B041B0C45
:1046C0001A1C022313405DD04C4B9B8E1B041A0C0A
:1046D0004B4B1A82494B494A92891204120C02210F
:1046E0008A431204120C9A81444B444A128C1204DD
:1046F000120C01218A431204120C1A843F4B404AC7
:10470000118A404A108A3F4AD2891204120C821A36
:104710001204120C8A181204120C1A87374B374AEB
:10472000128A1204120C04218A431204120C1A82F7
:10473000344B1B781B061B160D2B03DC314B9B7A6D
:10474000002B09D02D4B2D4A92891204120C042102
:104750000A431204120C9A81294B1B88022213432C
:104760001B041A0C264B1A80244B244A128A12046A
:10477000120C02218A431204120C1A82224B80224C
:1047800012025A611D4B1B8A1B041B0C1A1C0423AA
:1047900013402FD01D4B1D4A126801218A431A6015
:1047A000164B164A128A1204120C04218A43120470
:1047B000120C1A82114B114A92891204120C042114
:1047C0008A431204120C9A818023DB058022D205D1
:1047D00012881204120C01218A431204120C1A804E
:1047E000FDF704FE064B1B88012213431B041A0C21
:1047F000034B1A80BD4680BC01BC0047002C014021
:10480000781C00200403002000080140080002403A
:1048100080B582B000AF204B1A680223134035D018
:104820001D4B1D4A126802218A431A601A4BDA6C2A
:10483000BB1D1A80194B5B69BA1D128892081204BD
:10484000120C1A80154B5A69154B1A60134B5B6991
:104850009A1C124B5A61114B5A69124BD968124B70
:104860001B8A5B00CB189A4208D30C4B5A690E4B3B
:104870001B8A5B005B42D218084B5A61074B1B88AE
:10488000082213431B041A0C044B1A80BD4602B0C5
:1048900080BC01BC0047C04600240140781C0020B9
:1048A000981C0020080002400403002080B500AFDF
:1048B0001E4B1A680223134005D01C4B1B4A52683A
:1048C00002210A435A60194B1A680423134029D065
:1048D000174B174A128A1204110C164A0A40120486
:1048E000120C1A82114B114A526804210A435A6071
:1048F000114B114A126804218A431A600C4B0C4A6E
:1049000092891204120C02210A431204120C9A8199
:10491000074B074A128C1204120C01210A4312049D
:10492000120C1A84BD4680BC01BC00470000024046
:10493000002C0140FDFDFFFF0800024080B500AFE4
:10494000FEE7C046C046C0464A1E08BF7047C0F0DA
:104950002481884240F21681114200F01781B0FA9A
:1049600080F3B1FA81F2A2EB0303C3F11F0304A2A7
:1049700002EB03134FF000029F4600BFAFF300802D
:10498000B0EBC17F00BF42EB020228BFA0EBC170B9
:10499000B0EB817F00BF42EB020228BFA0EB817029
:1049A000B0EB417F00BF42EB020228BFA0EB417099
:1049B000B0EB017F00BF42EB020228BFA0EB017009
:1049C000B0EBC16F00BF42EB020228BFA0EBC16099
:1049D000B0EB816F00BF42EB020228BFA0EB816009
:1049E000B0EB416F00BF42EB020228BFA0EB416079
:1049F000B0EB016F00BF42EB020228BFA0EB0160E9
:104A0000B0EBC15F00BF42EB020228BFA0EBC15078
:104A1000B0EB815F00BF42EB020228BFA0EB8150E8
:104A2000B0EB415F00BF42EB020228BFA0EB415058
:104A3000B0EB015F00BF42EB020228BFA0EB0150C8
:104A4000B0EBC14F00BF42EB020228BFA0EBC14058
:104A5000B0EB814F00BF42EB020228BFA0EB8140C8
:104A6000B0EB414F00BF42EB020228BFA0EB414038
:104A7000B0EB014F00BF42EB020228BFA0EB0140A8
:104A8000B0EBC13F00BF42EB020228BFA0EBC13038
:104A9000B0EB813F00BF42EB020228BFA0EB8130A8
:104AA000B0EB413F00BF42EB020228BFA0EB413018
:104AB000B0EB013F00BF42EB020228BFA0EB013088
:104AC000B0EBC12F00BF42EB020228BFA0EBC12018
:104AD000B0EB812F00BF42EB020228BFA0EB812088
:104AE000B0EB412F00BF42EB020228BFA0EB4120F8
:104AF000B0EB012F00BF42EB020228BFA0EB012068
:104B0000B0EBC11F00BF42EB020228BFA0EBC110F7
:104B1000B0EB811F00BF42EB020228BFA0EB811067
:104B2000B0EB411F00BF42EB020228BFA0EB4110D7
:104B3000B0EB011F00BF42EB020228BFA0EB011047
:104B4000B0EBC10F00BF42EB020228BFA0EBC100D7
:104B5000B0EB810F00BF42EB020228BFA0EB810047
:104B6000B0EB410F00BF42EB020228BFA0EB4100B7
:104B7000B0EB010F00BF42EB020228BFA0EB010027
:104B8000104670470CBF012000207047B1FA81F237
:104B9000C2F11F0220FA02F0704708B14FF0FF3057
:104BA00000F00EB80029F8D02DE90340FFF7CCFE45
:104BB000BDE8064002FB00F3A1EB0301704700BF14
:104BC000704700BF002100F004B80C4B5B58435005
:104BD00004310B480B4B42189A42FFF4F6AF0A4AD5
:104BE00000F003B8002342F8043B084B9A42FFF45C
:104BF000F9AF03F017FB00F00DF870470CA80008A0
:104C000000000020A0020020A00200202C20002094
:104C1000FFF7FEBF2DE9F04F584B85B09847584B32
:104C20009847584B9B686FEA13336FEA03331F04AE
:104C3000ADF80E3001D4544B98474FF6DC70534D0D
:104C4000A847534E534B4FF6DC707360A847B368C8
:104C50001E0401D4504B9847504A4D4B504E5A6059
:104C6000504B9847504B9847504B984750485149A4
:104C7000B04751484F49B04750484E49B047504857
:104C80004C49B0474F4B9847DFF88CA14E4B9847A3
:104C90004E4B98474E4BBAF81A000DF10E0198474B
:104CA000BDF80E30032B02D90023ADF80E30494A6F
:104CB00032F8138049F22833984500F0D382193333
:104CC000984500F0F38249F22533984500F0CA82F6
:104CD000414F424EDFF84491DFF84481002C00F050
:104CE000D3823F4BA0B218803E4902223E4B9847E8
:104CF0003E4D3F4B984700263E4B98473E4C182070
:104D000064212F4A4FF6FF7300960195ADF80E60AF
:104D1000A047BDF80E7018207821384A4FF6FF736F
:104D200000970195A047BDF80E7018208C21344AD9
:104D30004FF6FF7300970195A047BDF80E709820BD
:104D40008C21304A4FF6FF7300970195A047BDF8BC
:104D50000E702D4A1820B4214FF6FF73009701956D
:104D6000A0472A4B98472A4B98472A4ADFF8B4B005
:104D7000DFF8B4A0DFF8B480168064E07153000857
:104D8000F9530008000C01400D6F00083D62000857
:104D90000010014000003083FD7400080000303333
:104DA000C9540008DD8700080D8000086154000820
:104DB000689500080038014008960008F49500083E
:104DC000E095000881550008E954000831550008B5
:104DD000A97F000830020020415900082D61000819
:104DE000AA020020D00200206562000838020020DC
:104DF00099550008DD66000809660008F8000020E3
:104E000074950008D202002084950008856E000881
:104E1000B5610008E802002064020020795600080D
:104E2000AD580008A9380008B97B0008EC02002042
:104E3000BDF80E30DA0700F1FF8003F008039BB2E3
:104E4000002B40F0E280D847844B984700F0800365
:104E50009BB2ADF80E00002B00F0C080804E33886E
:104E6000D80740F1BB807F4F0026B7F800904FF283
:104E70009E773B467C4ACD20142100960195A047A1
:104E8000DFF844E27949BEF90000D04709F004098F
:104E90001FFA89F9B14514BFB9464FF01F09024600
:104EA0001421F7204B4600960195A0473B46CD20A4
:104EB00024216F4A00960195A0476E4A6B49B2F9CA
:104EC0000000D047242102464B46F720009601956A
:104ED000A047694A3B46CD20342100960195A04762
:104EE000664B6249B3F90000D047342102464B4675
:104EF000F72000960195A0473B46614ACD2044210A
:104F000000960195A047DFF8C4E15849BEF90000BA
:104F1000D047442102464B46F72000960195A04712
:104F20003B46CD205421574A00960195A047564A4A
:104F30004E49B2F90000D047542102464B46F720B3
:104F400000960195A0473B460F2014214F4A00963A
:104F50000195A0473B460F2024214D4A009601951C
:104F6000A0473B460F2034214A4A00960195A047AE
:104F70003B463C4F484A009601950F204421A047EC
:104F80003B8803F0020292B2002A40F0A18003F0B5
:104F900008039BB2002B00F03A810026392014212F
:104FA0003E4A4FF29E7300960195A0473920242176
:104FB0003A4A4FF29E7300960195A047392034215A
:104FC000364A4FF29E7300960195A04700960195D0
:104FD00039204421314A4FF29E73A047304F3B782D
:104FE0002BBBB8F80030D9071AD4B8F806308BB903
:104FF0002C4F3B88002B3FF41BAFBDF80E3003F065
:1050000008039BB2002B3FF41EAF274A9047274B63
:10501000984718E7264EB047264B0022DA80E7E78C
:10502000244A23F001031380234B9847DDE7002235
:105030003A70224A9047D4E71B4A9047204E0420FA
:10504000204B9847B04780B2122840F2EC80154AB6
:105050002821BDF80E301180EFE600BF8937000827
:10506000CC020020E802002090950008D002002029
:1050700098950008C6020020A0950008B8020020FC
:10508000A8950008B0950008C2020020B895000855
:10509000C0950008C8950008CC950008D895000870
:1050A000AC020020AE020020A1770008E532000823
:1050B00049740008EC020020C1680008AD20000817
:1050C000F134000871380008B0020020E602002028
:1050D000DFF884E203210A468C4BDEF800008C4F97
:1050E000B847DFF878E28B4ABEF80030874852F8BC
:1050F0002310894B9847894F8448B847DFF860E20E
:1051000087B2BEF800209742C0F09B80DFF850E2E3
:105110004FF00009392014217C4A4FF29E73CDF8DC
:10512000009001957E4EAEF80070A04703210A461C
:10513000764B3068764FB847DFF828E2754ABEF8FC
:105140000030724852F82310734B9847734E6F48E3
:10515000B047744F86B23A88964269D3DFF8C4E10B
:105160004FF0000939202421684A4FF29E73CDF890
:1051700000900195AEF800606B4EA04703210A46EF
:10518000624B3068624FB847DFF8D8E1614ABEF839
:1051900000305E4852F823105F4B98475F4E5B48E3
:1051A000B047624F3A8887B2974252D3DFF87CE12A
:1051B000002600960195AEF800705D4F392034212D
:1051C000524A4FF29E73A0470321504B0122386888
:1051D0004F4FB847514A4D489047564B4B4AB3F84A
:1051E000009093F802C0009602EB000E0746524E64
:1051F00001954FF29E7322F80790392044218EF8D2
:1052000002C0A047338823F008033380E6E600930A
:105210003920462314217822484EB0473B8843F07A
:1052200008033B80B9E6464FB847BDF80E30E6E6C6
:10523000CDF8009039202421D20010233F4FB847E9
:105240008CE7009639201421D20010233B4EB04742
:105250005CE7CDF8009039203421D2001023374E7E
:10526000B047A3E7DFF80091DFF80081C847C047E7
:1052700049F225339842044638D049F228339842FF
:10528000304F314E3FF42AADB847B04749F2413371
:1052900080B2984217D12D4C00212080ADF80E101D
:1052A000BAF81A002A4B984720881DE5254F264E4C
:1052B000B847B04783B243450446DFF8AC90DFF807
:1052C000AC80E1D10AE5C847C04749F2253398428E
:1052D00015D049F2283398420BD01E4EB0476424B3
:1052E0004FF6E850A847013CFAD1F7E7154F164EA4
:1052F000F4E4164C02212080ADF80E10D0E7134CD8
:1053000001212080ADF80E10CAE700BFD0020020B6
:10531000217D000844020020110100081902000844
:105320000003002030200020B40200202C200020A8
:10533000C8020020D4950008E8020020BD650008DE
:10534000AD200008415900082D610008AA02002084
:105350006D810008856E0008BC020020C402002098
:105360002E200020C002002079560008AD58000809
:105370001C4B1D4910B519601C49002259601521AC
:105380009A60DA601A6159610721D96144F63D617A
:1053900099611A625A621A6812F4003F5A681DD065
:1053A00022F003025A605A6842F001025A605A68B9
:1053B00042F480325A600B4C0D4B4CF2503023605B
:1053C0000C4B984723689B0107D5636823F00303C0
:1053D0006360636843F00203636010BD22F48032AF
:1053E0005A60E8E7001002408100010000841D00BF
:1053F000810001013D62000830B41048104D114990
:105400000560114D4FF6FF724560C2604FF03330BA
:1054100008600E480E4C4860CA600E490E4B616031
:10542000E2600E4A442111605A6822F0E0625A603C
:105430005A6842F000725A6030BC70470008014060
:10544000404444B4000C0140B4444434BB33888825
:105450000010014000003033000001400014014002
:1054600010B5002384B00C4CADF80430ADF8063014
:10547000ADF80830ADF80C300C23694620464FF4E7
:105480001642ADF80A30054B00929847204601219C
:10549000034B984704B010BD003801401184000848
:1054A000D585000870B5064D06460C46204680217D
:1054B000A8470028FAD020463146024B984770BDD5
:1054C000A18600084586000870B5044600780D46A0
:1054D00030B1044E2946B04714F8010F0028F9D125
:1054E00070BD00BFA5540008104B8020188000221A
:1054F0004FF440509A801A819A811A829A821883B6
:1055000010209A83188440F60F609A84052118852C
:1055100009209885998619879A87A3F84020A3F8CF
:105520004820A3F84C2081221A80704700040040D4
:10553000124B80211980002246F260019A801A8164
:105540001A829A821A8399834FF48851198440F6FB
:10555000FF719A841A859985A1F500619A861A8748
:105560009987A1F58061A3F84010A3F84820A3F81B
:105570004C209A8181221A80704700BF00080040A9
:10558000034B00229A6007221A60024A5A60704751
:1055900010E000E040190100104B002240F6FF71BE
:1055A0001A605A609A60DA601A615A619A61DA6127
:1055B0001A6259629A62DA621A635A639A639A6843
:1055C000194642F004029A608B68044A5807FBD5DA
:1055D000936843F001039360704700BF00280140C7
:1055E0004163836843F00103836003689B07FCD534
:1055F000C06C80B2704700BF2DE9F84F1B4C1C4DAA
:105600004FF400574FF480498246DFF8688002204B
:105610006761C4F814908B46C047EB684FF40046AE
:1056200003F47F4343EA1A23EB6066612661EB686B
:10563000022003F47F434AEA0303EB6066612661BC
:10564000C4F81090C047EB6803F47F4343EA1B2380
:10565000EB6066612661EB6803F47F434BEA03036A
:10566000EB60666126612761BDE8F88F001001409C
:10567000000C01403D620008F8B5724E4FF400671F
:10568000714D41F288303761A8474FF6E850776195
:10569000A8474FF6FF70A8474FF6FF70A8470A24A7
:1056A0003761013C4FF6FF70A4B2A847664E002C4C
:1056B000F7D141F28830654DB04701204FF4807139
:1056C000A84702204FF4E061A84703203821A847EB
:1056D00004202146A847082040F20721A8470920B6
:1056E0002146A8470A202146A8470C202146A84762
:1056F0000D202146A8470F202146A847102021460B
:10570000A84711200721A84712202146A8471320A7
:105710002146A84707200121A84720210720A847A4
:105720004CF25030B0474CF25030B047102041F2AC
:105730009021A84740F221211120A8474CF2503077
:10574000B0474CF25030B04781211220A8474CF2AC
:105750005030B0474CF25030B04713204FF4A851AE
:10576000A84729200C21A8470D212B20A8474CF23F
:105770005030B0474CF25030B04720202146A84767
:1057800021204FF48071A847302040F20331A84710
:1057900031200621A84732200121A84735204FF4A7
:1057A0000171A84736200421A847372040F207415D
:1057B000A84738202146A847392040F20441A8478D
:1057C0003C2040F20241A8473D200421A847502038
:1057D0002146A8475120EF21A84752202146A8473B
:1057E000532040F23F11A84760204FF41C51A847B6
:1057F00061200121A8476A202146A8478020214630
:10580000A84781202146A84782202146A847832017
:105810002146A84784202146A84785202146A8473D
:1058200090201021A84792204FF4C061A84707207C
:1058300040F23311A8474CF25030B0474CF2503090
:10584000B047F8BD000C01403D620008F955000862
:10585000F8B50F4C4FF400530E4E63614FF4804384
:1058600002200D4F6361B847F3684FF4004503F41D
:105870007F43F360022065612561B847F36803F454
:105880007F4343F02203F36065612561F8BD00BFEB
:1058900000100140000C01403D620008024B4FF433
:1058A00000521A61704700BF001001402DE9F84313
:1058B000204D214C4FF400584FF480491F4E0220D8
:1058C000C5F81480C5F81490B047E3684FF400475A
:1058D00003F47F43E36002206F61B0472F61E36808
:1058E000022003F47F43E3606F61B04702202F6121
:1058F000B0474FF044334FF48067C5F81090022052
:105900002360B04702206761B047D4F808900220B6
:1059100027616761B047A0681FFA89F9C0B240EA01
:1059200009204FF03333276180B22360C5F810801F
:10593000BDE8F88300100140000C01403D62000802
:10594000F8B59C4E4FF4006741F288309A4D3761AC
:10595000A8474FF6E8507761A8470A2437614FF609
:10596000FF70A847631E13F0FF04F8D1934B4FF468
:10597000005290484FF480465A615E61C4684FF40B
:10598000004104F47F4444F0CF04C46059611961BC
:105990001E611A615A611E61C768642407F47F475B
:1059A000C760596119611A615A611E61C76807F4BD
:1059B0007F4747F0C107C760596119611A615A6191
:1059C0001E61C76807F47F4747F03007C760596119
:1059D00019611A615A615E61C76807F47F4747F031
:1059E000ED07C760596119611E611A615A611E6134
:1059F000C76807F47F4747F06707C76059611961B7
:105A00001A615A611E61C76807F47F4747F00307B0
:105A1000C760596119611A615A611E61C76807F44C
:105A20007F4747F01207C760596119611A615A61CF
:105A30001E61C76807F47F4747F08107C760596157
:105A400019611A615A615E61C76807F47F4747F0C0
:105A5000CB07C760596119611E611A615A611E61E5
:105A6000C76807F47F4747F03907C7605961196174
:105A70001A615A611E61C76807F47F4747F02C0717
:105A8000C760596119611A615A611E61C76807F4DC
:105A90007F47C760596119611A615A611E61C76801
:105AA00007F47F4747F03407C760596119611A61ED
:105AB0005A611E61C76807F47F4747F00207C76055
:105AC000596119611A615A615E61C76807F47F47BD
:105AD00047F0EA07C760596119611E611A615A618E
