:020000040800F2
:1000000000500020ED490008597200085D72000898
:100010006172000865720008697200080000000043
:100020000000000000000000000000006D720008E9
:1000300071720008000000007572000879720008F3
:10004000314A0008314A0008314A0008314A0008A4
:10005000314A0008314A0008314A0008314A000894
:10006000314A0008314A0008314A0008D5460008E4
:10007000314A0008314A0008314A0008314A000874
:10008000314A0008314A000845460008314A000854
:10009000314A0008314A0008314A0008314A000854
:1000A000314A0008314A0008314A0008E544000896
:1000B000314A0008314A0008314A0008314A000834
:1000C000314A0008314A0008314A0008314A000824
:1000D000314A0008314A0008314A0008314A000814
:1000E000314A0008314A0008314A00080000000087
:1000F0000000000000000000000000000000000000
:0C01000000000000000000005FF808F1A3
:1001100010F0030F38B5044612D10368A3F1013281
:1001200022EA030313F0803F0AD1031D184653F857
:10013000042BA2F1013525EA020212F0803FF5D02E
:1001400003782BB1431C184613F8012B002AFAD16F
:1001500000F002F8204638BD80EA0102844612F021
:10016000030F4FD111F0030F32D14DF8044D11F0B0
:10017000040F51F8043B0BD0A3F101329A4312F063
:10018000803F04BF4CF8043B51F8043B16D100BF3C
:1001900051F8044BA3F101329A4312F0803FA4F1CD
:1001A00001320BD14CF8043BA24312F0803F04BF54
:1001B00051F8043B4CF8044BEAD023460CF8013BC1
:1001C00013F0FF0F4FEA3323F8D15DF8044B70476B
:1001D00011F0010F06D011F8012B0CF8012B002AA9
:1001E00008BF704711F0020FBFD031F8022B12F098
:1001F000FF0F16BF2CF8022B8CF8002012F47F4F53
:10020000B3D1704711F8012B0CF8012B002AF9D15A
:10021000704700BF20F0030110F00300C0F10000A0
:1002200051F8043B00F1040C4FEACC0C6FF00002D3
:100230001CBF22FA0CF213434FF0010C4CEA0C2CB9
:100240004CEA0C4CA3EB0C0222EA030212EACC1299
:1002500004BF51F8043B0430F4D013F0FF0F1FBF6C
:10026000013013F47F4F013013F47F0F18BF0130BA
:10027000704700BF2DE9704F8AB004460D4600F06C
:100280004FF840F20006C2F2000696F90030B3F1D2
:10029000FF3F8046894631D02046294600F020F9AC
:1002A00000282BD04FF0000A4FF0000B20462946C3
:1002B00052465B4600F08EFD00B3367849F6EC43BB
:1002C000C0F6000301220193002300920893CDE9B8
:1002D0000445CDE90245B6B15046594652465B4603
:1002E00000F030FC022ECDE906010ED100F042F9FB
:1002F00021230360089B73B9DDE90689404649461E
:100300000AB0BDE8708FCDE906AB684600F030F961
:100310000028EFD1EAE700F02DF9089B0360EBE736
:100320004FF0000C02462DE9F843E046C7F6F07C9A
:10033000C7F6F07801EA0C0C0446C4450D460B469E
:100340000E46074600F0B080002940F3A0800A1551
:100350007ED026F07F4312F0010FA2F57E7C23F4BD
:100360007003ACF1070C43F4801362D0FA0F00263F
:1003700002EB43034FEA6C0C7F00162031464FF42A
:1003800000128C18FD0F9C424FEA4707DEBFC4EBFA
:100390000303A118B6185208013805EB4303F0D146
:1003A000202580464FF00042994202EB08040EDB04
:1003B0008B4214BF4FF000094FF00109BC428CBFC3
:1003C0004FF0000909F00109B9F1000F0ED004F057
:1003D000004904EB0208B9F1004F23D089465B1AAB
:1003E000BC4288BF013B3F1B80184946FC0F5208A6
:1003F0007F00013D04EB4303D6D13B431ED14008AF
:100400004FEA0C52731002F17E5216F0010F18BF22
:1004100040F0004002F5C002D518044620462946A7
:10042000BDE8F883B8F1000FA8BF01F10109D6DAE1
:10043000D4E7FA0F7F0002EB430397E7B0F1FF3FE9
:100440001CBF00F001031818D9D101362846D7E7A0
:10045000012216F4801335D17600013316F4801F83
:10046000FAD0C3F1200137FA01F1D21A0E439F40AE
:1004700026F07F4312F0010FA2F57E7C23F4700377
:10048000ACF1070C43F480137FF470AFD1E721F097
:10049000004C5CEA000CC1D0B9B9FE0A153B7F05DF
:1004A000002EFAD05A1CD4E700F022FA02460B467E
:1004B0002046294600F06AF804460D4620462946A3
:1004C000BDE8F88320210023CDE702460B4600F06B
:1004D0005BF802460B4600F035FB04460D469DE7EF
:1004E00050EA010310B43CD0D0F1010238BF002221
:1004F000B1F1004F14BF002302F00103002B30D1F3
:100500004FF6FF73A1F58010C7F6DF7301F1FE44CB
:10051000984204F570048CBF002001209C428CBFDF
:10052000034640F00103002B20D1B1F5801F01F1FB
:1005300000402CBF00230123B0F5801F38BF43F0DB
:1005400001038BB911F5801FC7F6F07314BF0020AB
:100550000120994214BF014640F0010102EA010066
:1005600000E0022010BC70470320FBE70420F9E7FD
:100570000020704740F20403C2F20003186870477D
:1005800081F0004102E000BF83F0004330B54FEA44
:1005900041044FEA430594EA050F08BF90EA020FB1
:1005A0001FBF54EA000C55EA020C7FEA645C7FEA44
:1005B000655C00F0E2804FEA5454D4EB5555B8BF67
:1005C0006D420CDD2C4480EA020281EA030382EAD8
:1005D000000083EA010180EA020281EA0303362D6A
:1005E00088BF30BD11F0004F4FEA01314FF4801C3D
:1005F0004CEA113102D0404261EB410113F0004F4F
:100600004FEA03334CEA133302D0524263EB430305
:1006100094EA050F00F0A780A4F10104D5F1200EA3
:100620000DDB02FA0EFC22FA05F2801841F10001FE
:1006300003FA0EF2801843FA05F359410EE0A5F1D2
:1006400020050EF1200E012A03FA0EFC28BF4CF003
:10065000020C43FA05F3C01851EBE37101F00045B9
:1006600007D54FF0000EDCF1000C7EEB00006EEBC6
:100670000101B1F5801F1BD3B1F5001F0CD3490850
:100680005FEA30004FEA3C0C04F101044FEA4452A7
:1006900012F5800F80F09A80BCF1004F08BF5FEA2E
:1006A000500C50F1000041EB045141EA050130BD0E
:1006B0005FEA4C0C404141EB010111F4801FA4F1B1
:1006C0000104E9D191F0000F04BF01460020B1FA06
:1006D00081F308BF2033A3F10B03B3F120020CDA3E
:1006E0000C3208DD02F1140CC2F10C0201FA0CF01C
:1006F00021FA02F10CE002F11402D8BFC2F1200C81
:1007000001FA02F120FA0CFCDCBF41EA0C01904036
:10071000E41AA2BF01EB0451294330BD6FEA04047F
:100720001F3C1CDA0C340EDC04F11404C4F120026A
:1007300020FA04F001FA02F340EA030021FA04F37C
:1007400045EA030130BDC4F10C04C4F1200220FAD3
:1007500002F001FA04F340EA0300294630BD21FA11
:1007600004F0294630BD94F0000F83F4801306BFD7
:1007700081F480110134013D4EE77FEA645C18BFCB
:100780007FEA655C29D094EA050F08BF90EA020F62
:1007900005D054EA000C04BF1946104630BD91EA5A
:1007A000030F1EBF0021002030BD5FEA545C05D15D
:1007B0004000494128BF41F0004130BD14F580049C
:1007C0003CBF01F5801130BD01F0004545F0FE4110
:1007D00041F470014FF0000030BD7FEA645C1ABF45
:1007E000194610467FEA655C1CBF0B46024650EA7C
:1007F000013406BF52EA033591EA030F41F40021A8
:1008000030BD00BF90F0000F04BF0021704730B52D
:100810004FF4806404F132044FF000054FF0000102
:1008200050E700BF90F0000F04BF0021704730B5C3
:100830004FF4806404F1320410F0004548BF404298
:100840004FF000013EE700BF42004FEAE2014FEAED
:1008500031014FEA02701FBF12F07F4393F07F4FC8
:1008600081F06051704792F0000F14BF93F07F4FFA
:10087000704730B54FF4607401F0004521F000413D
:1008800020E700BF50EA010208BF704730B54FF0C3
:1008900000050AE050EA010208BF704730B511F0C8
:1008A000004502D5404261EB41014FF4806404F100
:1008B00032045FEA915C3FF4DCAE4FF003025FEA82
:1008C000DC0C18BF03325FEADC0C18BF033202EB0A
:1008D000DC02C2F1200300FA03FC20FA02F001FA64
:1008E00003FE40EA0E0021FA02F11444C1E600BF03
:1008F00070B54FF0FF0C4CF4E06C1CEA11541DBFB6
:100900001CEA135594EA0C0F95EA0C0F00F0DEF880
:100910002C4481EA030621EA4C5123EA4C5350EA65
:10092000013518BF52EA033541F4801143F48013B6
:1009300038D0A0FB02CE4FF00005E1FB02E506F047
:100940000042E0FB03E54FF00006E1FB03569CF09C
:10095000000F18BF4EF0010EA4F1FF04B6F5007FA2
:1009600064F5407404D25FEA4E0E6D4146EB060614
:1009700042EAC62141EA55514FEAC52040EA5E509D
:100980004FEACE2EB4F1FD0C88BFBCF5E06F1ED847
:10099000BEF1004F08BF5FEA500E50F1000041EB7E
:1009A000045170BD06F0004646EA010140EA02002B
:1009B00081EA0301B4EB5C04C2BFD4EB0C0541EA4D
:1009C000045170BD41F480114FF0000E013C00F362
:1009D000AB8014F1360FDEBF002001F0004170BD86
:1009E000C4F10004203C35DA0C341BDC04F114049F
:1009F000C4F1200500FA05F320FA04F001FA05F22B
:100A000040EA020001F0004221F0004110EBD370F7
:100A100021FA04F642EB06015EEA430E08BF20EA23
:100A2000D37070BDC4F10C04C4F1200500FA04F3C6
:100A300020FA05F001FA04F240EA020001F0004158
:100A400010EBD37041F100015EEA430E08BF20EACB
:100A5000D37070BDC4F1200500FA05F24EEA020E13
:100A600020FA04F301FA05F243EA020321FA04F042
:100A700001F0004121FA04F220EA020000EBD370F9
:100A80005EEA430E08BF20EAD37070BD94F0000FF9
:100A90000FD101F00046400041EB010111F4801F2D
:100AA00008BF013CF7D041EA060195F0000F18BFDE
:100AB000704703F00046520043EB030313F4801F1A
:100AC00008BF013DF7D043EA0603704794EA0C0FD4
:100AD0000CEA135518BF95EA0C0F0CD050EA4106EA
:100AE00018BF52EA4306D1D181EA030101F0004167
:100AF0004FF0000070BD50EA410606BF104619468F
:100B000052EA430619D094EA0C0F02D150EA01369A
:100B100013D195EA0C0F05D152EA03361CBF1046DB
:100B200019460AD181EA030101F0004141F0FE417A
:100B300041F470014FF0000070BD41F0FE4141F4FE
:100B4000780170BD70B54FF0FF0C4CF4E06C1CEAFE
:100B500011541DBF1CEA135594EA0C0F95EA0C0FB3
:100B600000F0A7F8A4EB050481EA030E52EA03356E
:100B70004FEA013100F088804FEA03334FF080558F
:100B800045EA131343EA12634FEA022245EA1115BC
:100B900045EA10654FEA00260EF000419D4208BF6D
:100BA000964244F1FD0404F5407402D25B084FEA1A
:100BB0003202B61A65EB03055B084FEA32024FF4C6
:100BC00080104FF4002CB6EB020E75EB030E22BF23
:100BD000B61A754640EA0C005B084FEA3202B6EBE3
:100BE000020E75EB030E22BFB61A754640EA5C0092
:100BF0005B084FEA3202B6EB020E75EB030E22BF22
:100C0000B61A754640EA9C005B084FEA3202B6EB22
:100C1000020E75EB030E22BFB61A754640EADC00E1
:100C200055EA060E18D04FEA051545EA16754FEA43
:100C300006164FEAC30343EA52734FEAC2025FEA61
:100C40001C1CC0D111F4801F0BD141EA00014FF0F0
:100C500000004FF0004CB6E711F4801F04BF0143C1
:100C60000020B4F1FD0C88BFBCF5E06F3FF6AFAEDD
:100C7000B5EB030C04BFB6EB020C5FEA500C50F16D
:100C8000000041EB045170BD0EF0004E4EEA1131F0
:100C900014EB5C04C2BFD4EB0C0541EA045170BDF7
:100CA00041F480114FF0000E013C90E645EA060E3B
:100CB0008DE60CEA135594EA0C0F08BF95EA0C0F69
:100CC0003FF43BAF94EA0C0F0AD150EA01347FF4B1
:100CD00034AF95EA0C0F7FF425AF104619462CE788
:100CE00095EA0C0F06D152EA03353FF4FDAE1046EB
:100CF000194622E750EA410618BF52EA43067FF43C
:100D0000C5AE50EA41047FF40DAF52EA43057FF4CB
:100D1000EBAE12E74FF0FF3C06E000BF4FF0010CD6
:100D200002E000BF4FF0010C4DF804CD4FEA410C3A
:100D30007FEA6C5C4FEA430C18BF7FEA6C5C1BD007
:100D400001B050EA410C0CBF52EA430C91EA030F88
:100D500002BF90EA020F0020704710F1000F91EAE5
:100D6000030F58BF994208BF90422CBFD8176FEAB3
:100D7000E37040F0010070474FEA410C7FEA6C5C81
:100D800002D150EA013C07D14FEA430C7FEA6C5C88
:100D9000D6D152EA033CD3D05DF8040B704700BFB4
:100DA0008446104662468C461946634600E000BF02
:100DB00001B5FFF7B7FF002848BF10F1000F01BDD4
:100DC0004DF808EDFFF7F4FF0CBF012000205DF89F
:100DD00008FB00BF4DF808EDFFF7EAFF34BF012024
:100DE00000205DF808FB00BF4DF808EDFFF7E0FFBD
:100DF00094BF012000205DF808FB00BF4DF808ED0E
:100E0000FFF7CEFF94BF012000205DF808FB00BF74
:100E10004DF808EDFFF7C4FF34BF012000205DF856
:100E200008FB00BF4FEA410212F5001215D211D59E
:100E30006FF47873B3EB625212D94FEAC12343F0D7
:100E4000004343EA505311F0004F23FA02F018BF59
:100E5000404270474FF00000704750EA013005D122
:100E600011F0004008BF6FF0004070474FF00000E5
:100E7000704700BF4FEA4102B2F1E04324BFB3F52F
:100E8000001CDCF1FE5C0DD901F0004C4FEAC00201
:100E90004CEA5070B2F1004F40EB830008BF20F0E5
:100EA0000100704711F0804F21D113F13872BCBF9F
:100EB00001F00040704741F480114FEA5252C2F1F4
:100EC0001802C2F1200C10FA0CF320FA02F018BF3D
:100ED00040F001004FEAC1234FEAD32303FA0CFC90
:100EE00040EA0C0023FA02F34FEA4303CCE77FEA1F
:100EF000625307D150EA01331EBF4FF0FE4040F469
:100F00004000704701F0004040F0FE4040F4000017
:100F1000704700BF80F0004002E000BF81F0004158
:100F200042001FBF5FEA410392EA030F7FEA226C8F
:100F30007FEA236C6AD04FEA1262D2EB1363C1BF1F
:100F4000D218414048404140B8BF5B42192B88BF8E
:100F5000704710F0004F40F4000020F07F4018BFB1
:100F6000404211F0004F41F4000121F07F4118BFD1
:100F7000494292EA030F3FD0A2F1010241FA03FC79
:100F800010EB0C00C3F1200301FA03F100F0004361
:100F900002D5494260EB4000B0F5000F13D3B0F129
:100FA000807F06D340084FEA310102F10102FE2A98
:100FB00051D2B1F1004F40EBC25008BF20F0010008
:100FC00040EA03007047490040EB000010F4000FB6
:100FD000A2F10102EDD1B0FA80FCACF1080CB2EB49
:100FE0000C0200FA0CF0AABF00EBC25052421843A8
:100FF000BCBFD0401843704792F0000F81F400014D
:1010000006BF80F400000132013BB5E74FEA41031F
:101010007FEA226C18BF7FEA236C21D092EA030F8B
:1010200004D092F0000F08BF0846704790EA010F05
:101030001CBF0020704712F07F4F04D1400028BF32
:1010400040F00040704712F100723CBF00F5000014
:10105000704700F0004343F0FE4040F4000070474A
:101060007FEA226216BF08467FEA236301464202F6
:1010700006BF5FEA412390EA010F40F48000704709
:101080004FF0000304E000BF10F0004348BF4042AF
:101090005FEA000C08BF704743F0964301464FF0EB
:1010A00000001CE050EA010208BF70474FF0000347
:1010B0000AE000BF50EA010208BF704711F0004388
:1010C00002D5404261EB41015FEA010C02BF844658
:1010D0000146002043F0B64308BFA3F18053A3F5B7
:1010E0000003BCFA8CF2083AA3EBC25310DB01FAFE
:1010F00002FC634400FA02FCC2F12002BCF1004F82
:1011000020FA02F243EB020008BF20F00100704712
:1011100002F1200201FA02FCC2F1200250EA4C0066
:1011200021FA02F243EB020008BF20EADC707047AC
:101130004FF0FF0C1CEAD0521EBF1CEAD15392EABA
:101140000C0F93EA0C0F6FD01A4480EA010C400296
:1011500018BF5FEA41211ED04FF0006343EA5010F0
:1011600043EA5111A0FB01310CF00040B1F5000F32
:101170003EBF490041EAD3715B0040EA010062F1E1
:101180007F02FD2A1DD8B3F1004F40EBC25008BFCB
:1011900020F00100704790F0000F0CF0004C08BFE9
:1011A00049024CEA502040EA51207F3AC2BFD2F1B6
:1011B000FF0340EAC250704740F400004FF00003C4
:1011C000013A5DDC12F1190FDCBF00F000407047FE
:1011D000C2F10002410021FA02F1C2F1200200FA3C
:1011E00002FC5FEA310040F1000053EA4C0308BF03
:1011F00020EADC70704792F0000F00F0004C02BF54
:10120000400010F4000F013AF9D040EA0C0093F0CE
:10121000000F01F0004C02BF490011F4000F013B28
:10122000F9D041EA0C018FE70CEAD15392EA0C0F96
:1012300018BF93EA0C0F0AD030F0004C18BF31F001
:10124000004CD8D180EA010000F00040704790F0D7
:10125000000F17BF90F0004F084691F0000F91F07B
:10126000004F14D092EA0C0F01D142020FD193EA41
:101270000C0F03D14B0218BF084608D180EA0100C9
:1012800000F0004040F0FE4040F40000704740F0A5
:10129000FE4040F4400070474FF0FF0C1CEAD05273
:1012A0001EBF1CEAD15392EA0C0F93EA0C0F69D0CF
:1012B000A2EB030280EA010C49024FEA402037D03A
:1012C0004FF0805343EA111143EA10130CF0004031
:1012D0008B4238BF5B0042F17D024FF4000C8B4221
:1012E00024BF5B1A40EA0C00B3EB510F24BFA3EB01
:1012F000510340EA5C00B3EB910F24BFA3EB9103D1
:1013000040EA9C00B3EBD10F24BFA3EBD10340EA2A
:10131000DC001B0118BF5FEA1C1CE0D1FD2A3FF670
:1013200050AF8B4240EBC25008BF20F00100704725
:101330000CF0004C4CEA50207F32C2BFD2F1FF03C8
:1013400040EAC250704740F400004FF00003013AF9
:1013500037E792F0000F00F0004C02BF400010F49D
:10136000000F013AF9D040EA0C0093F0000F01F0B1
:10137000004C02BF490011F4000F013BF9D041EAD3
:101380000C0195E70CEAD15392EA0C0F08D1420206
:101390007FF47DAF93EA0C0F7FF470AF084676E7D9
:1013A00093EA0C0F04D14B023FF44CAF08466EE7B2
:1013B00030F0004C18BF31F0004CCAD130F0004280
:1013C0007FF45CAF31F000437FF43CAF5FE700BFD8
:1013D0004FF0FF3C06E000BF4FF0010C02E000BF01
:1013E0004FF0010C4DF804CD4FEA40024FEA4103A3
:1013F0007FEA226C18BF7FEA236C11D001B052EA59
:10140000530C18BF90EA010F58BFB2EB030088BF1E
:10141000C81738BF6FEAE17018BF40F0010070478D
:101420007FEA226C02D15FEA402C05D17FEA236C6F
:10143000E4D15FEA412CE1D05DF8040B704700BFB6
:10144000844608466146FFE70FB5FFF7C9FF00284D
:1014500048BF10F1000F0FBD4DF808EDFFF7F4FF86
:101460000CBF012000205DF808FB00BF4DF808ED1F
:10147000FFF7EAFF34BF012000205DF808FB00BF42
:101480004DF808EDFFF7E0FF94BF012000205DF864
:1014900008FB00BF4DF808EDFFF7D2FF94BF012015
:1014A00000205DF808FB00BF4DF808EDFFF7C8FF0E
:1014B00034BF012000205DF808FB00BF42000ED2BF
:1014C000B2F1FE4F0BD34FF09E03B3EB126209D47F
:1014D0004FEA002343F0004323FA02F070474FF035
:1014E0000000704712F1610F01D1420202D14FF0AA
:1014F000FF3070474FF00000704700BF0000000051
:1015000090B583B000AF041C081C111C1A1CBB1D35
:101510001C803B1D1880BB1C19803B1C1A802A2094
:1015200004F08EFABB1D1B881B0A1B041B0C181C25
:1015300004F0A0FABB1D1B88181C04F09BFABA1D0E
:101540003B1D12881B88D3181B041A0CBB1D013AC3
:101550001A80BB1D1B881B0A1B041B0C181C04F0E3
:1015600089FABB1D1B88181C04F084FA2B2004F098
:1015700067FABB1C1B881B0A1B041B0C181C04F0FD
:1015800079FABB1C1B88181C04F074FABA1C3B1CAB
:1015900012881B88D3181B041A0CBB1C013A1A8032
:1015A000BB1C1B881B0A1B041B0C181C04F062FAD2
:1015B000BB1C1B88181C04F05DFABD4603B090BC30
:1015C00001BC004790B587B000AF041C081C111C7B
:1015D0001A1CBB1D1C803B1D1880FB1C19703B1C7A
:1015E0001A80FB6A1A68FB1C1978FB6A1B7AC91AF5
:1015F000FB6A1B790733002B00DA0733DB104B4300
:10160000F96A49794B43D3183B61FB6A1B79191C72
:10161000FB6A5B79BA1D10883A1D1288FFF770FFCC
:101620004D4B802292015A614B4B8022D2015A616C
:101630004A4B4A4AD168FF2212020A402C210A432F
:10164000DA60454B802212025A61434B802212021B
:101650001A61414B8022D2011A61414B414A1A80E2
:10166000FB6A1B79FA6A52795343002B00DA07337D
:10167000DB101A1C3B1C14331A805FE03B1C173331
:101680003A6912781A703B1C163308221A7046E029
:101690003B1C17331B781B061B16002B02DA3B1C66
:1016A0001B8802E03B1C28331B883A1C0E32138037
:1016B0002A4B2A4AD168FF22120211403A1C0E32EC
:1016C0001288120A1204120C0A43DA60224B80229A
:1016D00012025A61204B802212021A611F4B1F4ACC
:1016E000D168FF22120211403A1C0E3212880A43BE
:1016F000DA60194B802212025A61174B80221202C3
:101700001A613B1C17333A1C1732127852001A70B8
:101710003B1C16333A1C16321278013A1A703B1CE5
:1017200016331B78002BB3D13B6901333B613B1C63
:1017300014333A1C14321288013A1A803B1C1433B9
:101740001B88002B9AD1044B802292011A61BD465E
:1017500007B090BC01BC004700100140000C0140E4
:101760009A0200204AECFFFF90B585B002AF041C3E
:10177000081C111C1A1CBB1D1C803B1D1880BB1CA7
:1017800019803B1C1A80BB1C1B88013B1B041B0CD3
:101790001B041B0CBA1D0020115E3A1D0020125EB6
:1017A0001B041B14381C183000880090081C111CE6
:1017B0001A1C012304F0FCF93B1D1A883B1C1B88F2
:1017C000D3181B041B0C013B1B041B0C1B041B0C20
:1017D000BA1D0020115E1B041B14BA1C0020125EEF
:1017E000381C183000880090081C191C012304F0D4
:1017F000DFF93B1C1B88013B1B041B0C1B041B0C4F
:10180000BA1D0020115E3A1D0020125E1B041B143D
:10181000381C183000880090081C111C012204F0AC
:10182000C7F9BB1D1A88BB1C1B88D3181B041B0CD3
:10183000013B1B041B0C1B041A0C3B1C1B88013BAB
:101840001B041B0C1B041B0C12041214391D00205A
:10185000095E1B041B14381C183000880090101CF3
:10186000012204F0A5F9BD4603B090BC01BC0047BD
:1018700080B500AF204B80221A801F4B00229A8037
:101880001D4B17221A811C4B00229A811A4B0022F1
:101890001A82194B00229A82174B184A1A83164B48
:1018A00000229A83144B11221A84134B00229A842B
:1018B000114B00221A85104B012252429A850E4B81
:1018C0000F4A9A860C4B02221A870B4B00229A87EA
:1018D000094A40230021D152074A48230021D1520E
:1018E000054A4C230021D152034B81221A80BD4668
:1018F00080BC01BC0047C046002C01400130000004
:101900008813000080B500AF8023DB0580221A8099
:101910008023DB0550229A808023DB0500221A8178
:101920008023DB0500229A818023DB0500221A82B6
:101930008023DB0500229A828023DB05C022D201AE
:101940001A838023DB0500229A838023DB05102283
:101950001A848023DB0500229A848023DB05082279
:101960001A858023DB0509229A858023DB05104A2E
:101970009A868023DB0505221A878023DB05002257
:101980009A878023DA0540230021D1528023DA058B
:1019900048230021D1528023DA054C230021D15263
:1019A0008023DB0580221A80BD4680BC01BC004735
:1019B0008813000080B500AF214B00221A60204B35
:1019C00000225A601E4B1F4A9A601D4B0022DA60AB
:1019D0001B4B00221A611A4B00225A61184B00223D
:1019E0009A61174B0022DA61154B00221A62144BE0
:1019F000154A5A62124B00229A62114B0022DA6297
:101A00000F4B00221A630E4B00225A630C4B00222C
:101A10009A630B4B0A4A926804210A439A60C046B3
:101A2000074B9A6804231340002BF9D0044B044A57
:101A3000926801210A439A60BD4680BC01BC004700
:101A40000024014000011600FF0F000080B500AF28
:101A50000A4B181C06F01AFA084B094A128A5A60F7
:101A6000064B084A9A60054B074ADA60034B074A5F
:101A70001A60BD4680BC01BC0047C0460800024059
:101A8000FC0200204C24014010030020A52500008A
:101A900080B582B000AF3B1D1B221A703B1D002297
:101AA0005A703B1D00229A703B1D0022DA703B1DCC
:101AB000181C05F0BBFE3B1D12221A703B1D0022B4
:101AC0005A703B1D00229A703B1D0022DA703B1DAC
:101AD000181C05F0ABFE3B1D0B221A703B1D0022AB
:101AE0005A703B1D00229A703B1D0022DA703B1D8C
:101AF000181C05F09BFEBD4602B080BC01BC00472F
:101B000080B584B002AFBB1D00221A80A0235B0009
:101B1000BA1D12880092002000211A1CF02304F044
:101B200047F8414BBA1D12880092404A0192182092
:101B30003221002204F0C6F83B4BBA1D12880092F5
:101B40003B4A01926E203421002204F0BBF8364B50
:101B5000BA1D12880092374A019218204B210022A8
:101B6000FFF730FD344B0022DA80334B07221A7125
:101B7000314B00225A71304B12221A702E4B002228
:101B80009A722D4B0022DA722B4B00229A812A4B3B
:101B90008022D2001A82284BB52252005A80264B4E
:101BA0001B8A5B081B041B0C1B041A0C224BDA81DA
:101BB000214B00221A81214B214A9A611F4B00229E
:101BC0005A801E4B00221A711C4B00221A801A4B9D
:101BD0005A881A4BDA80184B1B8A1B041A0C174BB5
:101BE0009A81184B00221A70174B184A1A60184B2A
:101BF000134A1A60174B184A1A80184B00221A8091
:101C0000174B184A1A80184B00221A70FFF730FE43
:101C1000FFF778FEFFF7CEFEFFF718FFBD4602B0D4
:101C200080BC01BC0047C046E0FF0000440100202A
:101C3000500100202C010020FC020020701C00201C
:101C40003C1400209E0200201C200020A5F3000070
:101C5000901C002020200020102700008C1C002059
:101C6000A4020020B80B0000A202002080B582B0C0
:101C700000AF0A1CBB1D011C19803B1D1A80BA1D38
:101C80003B1D0021525E00215B5E9A4202DABB1DC1
:101C90001B8801E03B1D1B881B041B14181CBD4640
:101CA00002B080BC02BC084780B582B000AF0A1CFD
:101CB000BB1D011C19803B1D1A80BA1D3B1D002154
:101CC000525E00215B5E9A4202DDBB1D1B8801E073
:101CD0003B1D1B881B041B14181CBD4602B080BC96
:101CE00002BC084780B584B000AF021C3960BB1D40
:101CF0001A80BB1D1B88181C5C4902F039FD031CAF
:101D00001B041A0C3B1C0F331A703B1C0F331B783F
:101D1000302213431B061A0E3B681A703B1C0F330C
:101D20001B781B041B0C1A1CD200D21A111C49016F
:101D30008A1A1201D31A1B011B04190CBB1DBA1DF0
:101D400012888A181A80BB1D1B88181CFA23990058
:101D500002F00EFD031C1B041A0C3B1C0F331A70FF
:101D60003B6801333A1C0F32127830210A431206C5
:101D7000120E1A703B1C0F331B781B041B0C1A1C11
:101D80009201D21A9201D2185200D318DB001B0420
:101D9000190CBB1DBA1D12888A181A80BB1D1B881E
:101DA000181C642102F0E4FC031C1B041A0C3B1CED
:101DB0000F331A703B6802333A1C0F32127830210D
:101DC0000A431206120E1A703B1C0F331B781B04B9
:101DD0001B0C1A1C5202D21A9200D218D200D31A2B
:101DE0009B001B04190CBB1DBA1D12888A181A808F
:101DF000BB1D1B88181C0A2102F0BAFC031C1B0423
:101E00001A0C3B1C0F331A703B6803333A1C0F3219
:101E1000127830210A431206120E1A703B1C0F333F
:101E20001B781B041B0C1A1C5203D21A9200D31AE3
:101E30005B001B04190CBB1DBA1D12888A181A807E
:101E40003B680433BA1D12881206120E30210A4371
:101E50001206120E1A703B68053300221A703B6896
:101E6000181CBD4604B080BC02BC08471027000007
:101E700080B500AF8023DB05144A127812061216D3
:101E8000511E134A49008A5A013A1204120C1A854B
:101E90008023DB050D4A127812061216511E0D4AD8
:101EA00049008A5A013A1204120C9A858023DB05F4
:101EB0008022D205928D1204120C52081204120CC8
:101EC0001A87BD4680BC01BC0047C046FC0200200A
:101ED000D00100200002002080B584B002AFB74BD3
:101EE0001B882B2293431B041A0CB44B1A80B34B50
:101EF0001B881A1C04231340002B00D056E18023BA
:101F0000DB058022D20512881204120C01218A43BB
:101F10001204120C1A80AA4BA94A92891204120CBC
:101F200006218A431204120C9A81A64BA54A126814
:101F300001218A431A60A34BA24A126806218A43F0
:101F40001A60A14BA04A52680F210A435A609F4B66
:101F50009E4A526820218A435A609C4B9B4A1268D1
:101F600002218A431A609A4B1B781B061B160D2B05
:101F700006DC944B974ADA60904B964A5A6105E02A
:101F8000904B954ADA608D4B934A5A618D4B904A3B
:101F9000128A5A608B4B8B4A126804210A431A60DA
:101FA000874B8B4A128A1A87854B854A928912047D
:101FB000120C06218A431204120C9A81804B804A2B
:101FC000128A1204120C06218A431204120C1A827D
:101FD0007F4B1B781B061B160D2B0DDD7C4B9B7A54
:101FE000002B09D1764B764A92891204120C0421F7
:101FF0000A431204120C9A81784B1A68784B9A4261
:102000005DD1764B734A1A60BB1D012252421A8081
:10201000A0235B00BA1D12880092002000211A1C28
:10202000F02303F0C5FDBB1D1B8800936D4B01938E
:102030001420502100221F2303F044FEBB1D1B88E7
:102040000093694B0193182073210022002303F0B1
:1020500039FEF8231B02BA1D12880092634A0192CE
:102060001420B421002203F02DFEF8231B02BA1D18
:10207000128800925E4A01925A20B221002203F097
:1020800021FEF8231B02BA1D12880092594A0192C0
:102090005A20C821002203F015FE574B574A1A80D8
:1020A0004B4B1B781B061A0E554B1A70554B0022D2
:1020B0001A70554B00221A80404B00225A80FFF7BD
:1020C000D7FE434B1B781B061B160D2B0CDC3F4B1E
:1020D0003E4A526820210A435A603C4B3B4A916871
:1020E0004A4A0A409A6006E0384B384A9268802192
:1020F00049000A439A60364BDB7A1B061B16012BFC
:102100000AD12F4B2E4A128C1204120C02218A4340
:102110001204120C1A8409E0294B294A128C120469
:10212000120C02210A431204120C1A84354B1B783C
:10213000002B3DD0344B1A88354B9A4212D1324B8A
:1021400000221A80334B1B78002B03D11B4BFF223C
:102150005A8007E0194B5B88082213431B041A0CB2
:10216000164B5A80154B1B88802213431B041A0CF4
:10217000124B1A80164B1B781B061B160D2B05DD08
:10218000104B104A126801210A431A600C4B0022BE
:102190009A848023DB058022D20512881204120C57
:1021A00001210A431204120C1A8002E0C04600E02A
:1021B000C046BD4602B080BC01BC0047701C002078
:1021C000002C0140080002400000024000240140B1
:1021D000FC0200203C140020100300201C200020E2
:1021E000A5F30000380100202C0100200801002088
:1021F0001401002020010020A4020020B80B0000E0
:102200009E0200209F020020EC1E0020FFFEFFFF28
:10221000DC05000098020020F0B5474680B486B087
:1022200000AF8F4B802212021A618E4B1B881A1C42
:1022300002231340002B43D008E08A4B1A8A8A4BB2
:102240001B8AD31A1B041A0C864B1A82854B1A8AD6
:10225000854B1B8A9A42F0D2844BDA68824B1B8AE8
:10226000191C814BDB891B041B14CB1A191C7D4BD9
:102270001B8ACB185B00D3181A1C7A4B5A61794B16
:102280005A697A4BD968784B1B8A5B00CB189A4203
:1022900008D3744B5A69744B1B8A5B005B42D2189B
:1022A000704B5A61704B9B7A1B061B16022B07D191
:1022B0006C4B1B88202213431B041A0C694B1A8099
:1022C000684B1B881A1C04231340002B01D000F01C
:1022D000D1FE654B1B781B061B16162B3CDC614B95
:1022E0005B697B61624B3B610023BB603B1C0E332F
:1022F0005D4A128A1A801FE07B691A883B691A803E
:102300007B691B88BA68D318BB603B6902333B61A9
:102310007B6902337B61544B1B8A5A00554BD218A0
:102320007B699A4201D8534B7B613B1C0E333A1CAC
:102330000E321288013A1A803B1C0E331B88002B88
:10234000DAD1494B1B8AB868191C02F011FA031C38
:102350001B041A0C434BDA81434B1B781B061B16DC
:10236000172B07D0404B1B781B061B16182B01D0D0
:1023700000F07DFE3F4B7B610023BB603B1C0E33B6
:1023800000221A800EE07B691B88BA68D318BB60F4
:102390007B6902337B613B1C0E333A1C0E32128880
:1023A00001321A80304B1B8A3A1C0E3212889A4234
:1023B000E9D32D4B1B8AB868191C02F0D9F9031C0C
:1023C0001A1CBB1C1A80BB1C1A88264BDA81254BB1
:1023D0005B697B61284B7B603B1C0E3300221A80BB
:1023E00023E07B691A88BB1C1B88D31A1B041B0CB7
:1023F0001B041A0C7B681A807B6802337B607B6944
:1024000002337B61184B1B8A5B001A1C194BD318D3
:102410001A1C7B699A4201D8164B7B613B1C0E3318
:102420003A1C0E32128801321A800F4B1B8A3A1C5A
:102430000E3212889A42D4D30F4B7B600C4B3B6117
:10244000094B1B781B061B16172B04D0182B00D129
:1024500005E300F00CFE3B1C0E3300221A80EEE276
:1024600000080140701C0020FC020020080002400F
:102470003C14002010030020100B00207B68043364
:102480001B881B041A0CBB1C1B88D3181B041A0CBA
:102490003B691A803B69023398467B681B881B04A2
:1024A0001B14181CFEF7F0FD031C181CFEF7CCF9DA
:1024B000031C0C1C181C211CEE4BED4AFEF718FAED
:1024C000031C0C1C1D1C261C7B6802331B881B0470
:1024D0001B14181CFEF7D8FD031C181CFEF7B4F9DA
:1024E000031C0C1C181C211CE34AE44BFEF700FAE9
:1024F000031C0C1C281C311C1A1C231CFEF746F85C
:10250000031C0C1C1D1C261C7B6804331B881B042D
:102510001B14181CFEF7B8FD031C181CFEF794F9D9
:10252000031C0C1C181C211CD54AD64BFEF7E0F9E5
:10253000031C0C1C281C311C1A1C231CFEF726F83B
:10254000031C0C1C1D1C261C7B6806331B881B04EB
:102550001B14181CFEF798FD031C181CFEF774F9D9
:10256000031C0C1C181C211CC74AC84BFEF7C0F9E1
:10257000031C0C1C281C311C1A1C231CFEF706F81B
:10258000031C0C1C1D1C261C7B6808331B881B04A9
:102590001B14181CFEF778FD031C181CFEF754F9D9
:1025A000031C0C1C181C211CB94ABA4BFEF7A0F9DD
:1025B000031C0C1C281C311C1A1C231CFDF7E6FFF5
:1025C000031C0C1C181C211CFEF72CFC031C1B04F8
:1025D0001B0C1B041A0CBB1C1B88D3181B041B0CE4
:1025E000424613803B69043398467B6802331B885C
:1025F0001B041B14181CFEF747FD031C181CFEF7D8
:1026000023F9031C0C1C181C211CA14AA14BFEF72A
:102610006FF9031C0C1C1D1C261C7B6804331B88D3
:102620001B041B14181CFEF72FFD031C181CFEF7BF
:102630000BF9031C0C1C181C211C974A974BFEF726
:1026400057F9031C0C1C281C311C1A1C231CFDF7F9
:102650009DFF031C0C1C1D1C261C7B6806331B885D
:102660001B041B14181CFEF70FFD031C181CFEF79F
:10267000EBF8031C0C1C181C211C894A894BFEF723
:1026800037F9031C0C1C281C311C1A1C231CFDF7D9
:102690007DFF031C0C1C1D1C261C7B6808331B883B
:1026A0001B041B14181CFEF7EFFC031C181CFEF780
:1026B000CBF8031C0C1C181C211C7B4A7B4BFEF71F
:1026C00017F9031C0C1C281C311C1A1C231CFDF7B9
:1026D0005DFF031C0C1C1D1C261C7B680A331B8819
:1026E0001B041B14181CFEF7CFFC031C181CFEF760
:1026F000ABF8031C0C1C181C211C5E4B5C4AFEF73B
:10270000F7F8031C0C1C281C311C1A1C231CFDF799
:102710003DFF031C0C1C181C211CFEF783FB031C33
:102720001B041B0C1B041A0CBB1C1B88D3181B049A
:102730001B0C424613803B69063398467B68023384
:102740001B881B041B14181CFEF79EFC031C181C82
:10275000FEF77AF8031C0C1C181C211C454B444A3C
:10276000FEF7C6F8031C0C1C1D1C261C7B680433DA
:102770001B881B041B14181CFEF786FC031C181C6A
:10278000FEF762F8031C0C1C181C211C464A474B20
:10279000FEF7AEF8031C0C1C281C311C1A1C231C51
:1027A000FDF7F4FE031C0C1C1D1C261C7B68063365
:1027B0001B881B041B14181CFEF766FC031C181C4A
:1027C000FEF742F8031C0C1C181C211C344A354B24
:1027D000FEF78EF8031C0C1C281C311C1A1C231C31
:1027E000FDF7D4FE031C0C1C1D1C261C7B68083343
:1027F0001B881B041B14181CFEF746FC031C181C2A
:10280000FEF722F8031C0C1C181C211C224A234B27
:10281000FEF76EF8031C0C1C281C311C1A1C231C10
:10282000FDF7B4FE031C0C1C1D1C261C7B680A3320
:102830001B881B041B14181CFEF726FC031C181C09
:10284000FEF702F8031C0C1C181C211C094B084A3B
:10285000FEF74EF8031C0C1C281C311C1A1C231CF0
:10286000FDF794FE031C0C1C22E0C046C046C04687
:102870000000000000000000AF946588635DB4BFF5
:102880000E2DB29DEFA7E63F4772F90FE9B7DB3F88
:102890000E2DB29DEFA7A6BF0E2DB29DEFA7C63F8E
:1028A000738577B988EFED3F4F232D95B723B4BFDC
:1028B000181C211CFEF7B6FA031C1B041B0C1B047E
:1028C0001A0CBB1C1B88D3181B041B0C424613801C
:1028D0003B690822D21890467B6804331B881B048E
:1028E0001B14181CFEF7D0FB031C181CFDF7ACFFD3
:1028F000031C0C1C181C211C5C4B5B4AFDF7F8FFE9
:10290000031C0C1C1D1C261C7B6806331B881B0427
:102910001B14181CFEF7B8FB031C181CFDF794FFD2
:10292000031C0C1C181C211C514A524BFDF7E0FFE4
:10293000031C0C1C281C311C1A1C231CFDF726FE32
:10294000031C0C1C1D1C261C7B6808331B881B04E5
:102950001B14181CFEF798FB031C181CFDF774FFD2
:10296000031C0C1C181C211C434A444BFDF7C0FFE0
:10297000031C0C1C281C311C1A1C231CFDF706FE12
:10298000031C0C1C1D1C261C7B680A331B881B04A3
:102990001B14181CFEF778FB031C181CFDF754FFD2
:1029A000031C0C1C181C211C354A364BFDF7A0FFDC
:1029B000031C0C1C281C311C1A1C231CFDF7E6FDF3
:1029C000031C0C1C1D1C261C7B680C331B881B0461
:1029D0001B14181CFEF758FB031C181CFDF734FFD2
:1029E000031C0C1C181C211C274A284BFDF780FFD8
:1029F000031C0C1C281C311C1A1C231CFDF7C6FDD3
:102A0000031C0C1C181C211CFEF70CFA031C1B04D5
:102A10001B0C1B041A0CBB1C1B88D3181B041B0C9F
:102A2000424613807B6804337B603B690A333B6119
:102A30003B1C0E333A1C0E32128801321A80144BA2
:102A40001B8A181C052101F093FE031C1B041B0CA0
:102A50003A1C0E3212889A4200D20FE507E33B1C63
:102A60000E3300221A80F2E20E2DB29DEFA7A6BF10
:102A70004772F90FE9B7DB3F0E2DB29DEFA7E63F96
:102A8000AF946588635DB4BF0000000000000000E3
:102A9000FC0200207B6804331B881B041A0CBB1C3F
:102AA0001B88D3181B041A0C3B691A803B6902333C
:102AB00098467B681B881B041B14181CFEF7E4FA5D
:102AC000031C181CFDF7C0FE031C0C1C181C211C49
:102AD000EC4BEB4AFDF70CFF031C0C1C1D1C261CC9
:102AE0007B6802331B881B041B14181CFEF7CCFAEE
:102AF000031C181CFDF7A8FE031C0C1C181C211C31
:102B0000E14AE24BFDF7F4FE031C0C1C281C311CAF
:102B10001A1C231CFDF73AFD031C0C1C1D1C261C53
:102B20007B6804331B881B041B14181CFEF7ACFACB
:102B3000031C181CFDF788FE031C0C1C181C211C10
:102B4000D34AD44BFDF7D4FE031C0C1C281C311CAB
:102B50001A1C231CFDF71AFD031C0C1C1D1C261C33
:102B60007B6806331B881B041B14181CFEF78CFAA9
:102B7000031C181CFDF768FE031C0C1C181C211CF0
:102B8000C54AC64BFDF7B4FE031C0C1C281C311CA7
:102B90001A1C231CFDF7FAFC031C0C1C1D1C261C14
:102BA0007B6808331B881B041B14181CFEF76CFA87
:102BB000031C181CFDF748FE031C0C1C181C211CD0
:102BC000B74AB84BFDF794FE031C0C1C281C311CA3
:102BD0001A1C231CFDF7DAFC031C0C1C181C211CFE
:102BE000FEF720F9031C1B041B0C1B041A0CBB1C56
:102BF0001B88D3181B041B0C424613803B6904330B
:102C000098467B681B881B041B14181CFEF73CFAB3
:102C1000031C181CFDF718FE031C0C1C181C211C9F
:102C2000984B974AFDF764FE031C0C1C1D1C261CC8
:102C30007B6802331B881B041B14181CFEF724FA44
:102C4000031C181CFDF700FE031C0C1C181C211C87
:102C5000954A964BFDF74CFE031C0C1C281C311C9E
:102C60001A1C231CFDF792FC031C0C1C1D1C261CAB
:102C70007B6804331B881B041B14181CFEF704FA22
:102C8000031C181CFDF7E0FD031C0C1C181C211C68
:102C9000874A884BFDF72CFE031C0C1C281C311C9A
:102CA0001A1C231CFDF772FC031C0C1C1D1C261C8B
:102CB0007B6806331B881B041B14181CFEF7E4F901
:102CC000031C181CFDF7C0FD031C0C1C181C211C48
:102CD000794A7A4BFDF70CFE031C0C1C281C311C96
:102CE0001A1C231CFDF752FC031C0C1C1D1C261C6B
:102CF0007B6808331B881B041B14181CFEF7C4F9DF
:102D0000031C181CFDF7A0FD031C0C1C181C211C27
:102D1000634A644BFDF7ECFD031C0C1C281C311CA2
:102D20001A1C231CFDF732FC031C0C1C181C211C54
:102D3000FEF778F8031C1B041B0C1B041A0CBB1CAD
:102D40001B88D3181B041B0C424613803B690633B7
:102D500098467B6802331B881B041B14181CFEF763
:102D600093F9031C181CFDF76FFD031C0C1C181CA9
:102D7000211C4B4A4B4BFDF7BBFD031C0C1C1D1CBF
:102D8000261C7B6804331B881B041B14181CFEF7CD
:102D90007BF9031C181CFDF757FD031C0C1C181CA9
:102DA000211C454A454BFDF7A3FD031C0C1C281CA8
:102DB000311C1A1C231CFDF7E9FB031C0C1C1D1CF9
:102DC000261C7B6806331B881B041B14181CFEF78B
:102DD0005BF9031C181CFDF737FD031C0C1C181CA9
:102DE000211C334A334BFDF783FD031C0C1C281CAC
:102DF000311C1A1C231CFDF7C9FB031C0C1C1D1CD9
:102E0000261C7B6808331B881B041B14181CFEF748
:102E10003BF9031C181CFDF717FD031C0C1C181CA8
:102E2000211C214A214BFDF763FD031C0C1C281CAF
:102E3000311C1A1C231CFDF7A9FB031C0C1C1D1CB8
:102E4000261C7B680A331B881B041B14181CFEF706
:102E50001BF9031C181CFDF7F7FC031C0C1C181CA9
:102E6000211C084B064AFDF743FD031C0C1C281CC3
:102E7000311C1A1C231CFDF789FB031C0C1C1FE0D2
:102E800000000000000000004F232D95B723B4BFC1
:102E9000738577B988EFED3F0E2DB29DEFA7C63F42
:102EA0000E2DB29DEFA7A6BFAF946588635DB4BF3A
:102EB0000E2DB29DEFA7E63F4772F90FE9B7DB3F52
:102EC000181C211CFDF7AEFF031C1B041B0C1B046C
:102ED0001A0CBB1C1B88D3181B041B0C4246138006
:102EE0003B690822D21890467B6802331B881B047A
:102EF0001B14181CFEF7C8F8031C181CFDF7A4FCD3
:102F0000031C0C1C181C211C6E4B6D4AFDF7F0FCB9
:102F1000031C0C1C1D1C261C7B6804331B881B0413
:102F20001B14181CFEF7B0F8031C181CFDF78CFCD2
:102F3000031C0C1C181C211C634A644BFDF7D8FCB5
:102F4000031C0C1C281C311C1A1C231CFDF71EFB27
:102F5000031C0C1C1D1C261C7B6806331B881B04D1
:102F60001B14181CFEF790F8031C181CFDF76CFCD2
:102F7000031C0C1C181C211C554A564BFDF7B8FCB1
:102F8000031C0C1C281C311C1A1C231CFDF7FEFA08
:102F9000031C0C1C1D1C261C7B6808331B881B048F
:102FA0001B14181CFEF770F8031C181CFDF74CFCD2
:102FB000031C0C1C181C211C474A484BFDF798FCAD
:102FC000031C0C1C281C311C1A1C231CFDF7DEFAE8
:102FD000031C0C1C1D1C261C7B680A331B881B044D
:102FE0001B14181CFEF750F8031C181CFDF72CFCD2
:102FF000031C0C1C181C211C394A3A4BFDF778FCA9
:10300000031C0C1C281C311C1A1C231CFDF7BEFAC7
:10301000031C0C1C181C211CFDF704FF031C1B04C3
:103020001B0C1B041A0CBB1C1B88D3181B041B0C89
:10303000424613807B6802337B603B690A333B6105
:103040003B1C0E333A1C0E32128801321A80264B7A
:103050001B8A181C052101F08BFB031C1B041B0C95
:103060003A1C0E3212889A4200D213E5C0461F4B1A
:103070001F4A9A611D4B1B881A1C20231340002BEA
:1030800017D01A4B1B88042213431B041A0C174B2E
:103090001A80164B1B88202293431B041A0C134BD7
:1030A0001A80124B5B88022213431B041A0C0F4B2D
:1030B0005A80BD4606B004BC9046F0BC01BC004737
:1030C0000E2DB29DEFA7A6BF0E2DB29DEFA7C63F56
:1030D000738577B988EFED3F4F232D95B723B4BFA4
:1030E0000000000000000000FC020020701C002016
:1030F0003C14002080B500AF114B1B88082293437D
:103100001B041A0C0E4B1A800E4B9B7A002B06D018
:103110000B4B1B881A1C02231340002B0BD0084BAF
:103120005A69074B9A61064B5B88042213431B04C0
:103130001A0C034B5A80BD4680BC01BC0047C046F8
:10314000701C0020FC02002080B500AF8023DB054E
:103150008022D20512881204120C01218A43120423
:10316000120C1A80BD4680BC01BC004780B582B0FD
:1031700000AF021CFB1D1A70FB1D1B781B061B16E3
:103180000C2B02DDFB1D0C221A70FB1D1B781B068D
:103190001B16032B02DCFB1D04221A70064BFA1DC2
:1031A00012781A71044B1B791B061B16181CBD469E
:1031B00002B080BC02BC0847FC02002080B500AF12
:1031C000044B1B791B061B16181CBD4680BC02BC99
:1031D0000847C046FC02002080B582B000AF021C48
:1031E000FB1D1A70FB1D1B781B061B16022B02DD34
:1031F000FB1D02221A70FB1D1B787F2B02D9FB1DC1
:1032000000221A70064BFA1D12785A71044B5B7932
:103210001B061B16181CBD4602B080BC02BC08472A
:10322000FC02002080B500AF044B5B791B061B1627
:10323000181CBD4680BC02BC0847C046FC020020EA
:1032400080B582B000AF021CBB1D1A80BB1D0022DE
:103250009B5E1A1CFF3203DABB1DFF2252421A800A
:10326000BB1D00229B5EFF2B02DDBB1DFF221A80CF
:10327000064BBA1D1288DA80BB1D1B881B041B1469
:10328000181CBD4602B080BC02BC0847FC020020EE
:1032900080B500AF044BDB881B041B14181CBD4613
:1032A00080BC02BC0847C046FC02002080B582B04A
:1032B00000AF021CFB1D1A70FB1D1B781B061B16A2
:1032C000002B02DCFB1D01221A70FB1D1B781B0664
:1032D0001B16182B02DDFB1D18221A70064BFA1D57
:1032E00012781A70044B1B781B061B16181CBD465F
:1032F00002B080BC02BC0847FC02002080B500AFD1
:10330000044B1B781B061B16181CBD4680BC02BC58
:103310000847C046FC02002080B582B000AF021C06
:10332000BB1D1A80BB1D00215B5E002B02DABB1D9A
:1033300000221A80BB1D00215A5E0E4B1B8A2E3BB9
:10334000FF3B9A4207DD0B4B1B8A2E3BFF3B1B04C6
:103350001A0CBB1D1A80074BBA1D12885A80054BE8
:103360005B881B041B14181CBD4602B080BC02BC49
:103370000847C046FC02002080B500AF044B5B88C4
:103380001B041B14181CBD4680BC02BC0847C04669
:10339000FC02002080B582B000AF021CFB1D1A7039
:1033A000FB1D1B787F2B02D9FB1D00221A70FB1D11
:1033B0001B781B061B16022B02DDFB1D02221A7056
:1033C000064BFA1D12789A72044B9B7A1B061B1649
:1033D000181CBD4602B080BC02BC0847FC0200209D
:1033E00080B500AF044B9B7A1B061B16181CBD460C
:1033F00080BC02BC0847C046FC02002080B582B0F9
:1034000000AF021CFB1D1A70FB1D1B787F2B02D91D
:10341000FB1D00221A70FB1D1B781B061B16012BBF
:1034200002DDFB1D01221A70064BFA1D1278DA72BA
:10343000044BDB7A1B061B16181CBD4602B080BC71
:1034400002BC0847FC02002080B500AF044BDB7AC9
:103450001B061B16181CBD4680BC02BC0847C04694
:10346000FC02002080B582B000AF021CBB1D1A8098
:10347000BB1D00215A5E0F4B9A4202DABB1D0D4A5A
:103480001A80BB1D00215A5E96235B009A4203DD21
:10349000BB1D962252001A80074BBA1D12889A81D2
:1034A000054B9B891B041B14181CBD4602B080BC35
:1034B00002BC0847D4FEFFFFFC02002080B500AF2D
:1034C000044B9B891B041B14181CBD4680BC02BC0A
:1034D0000847C046FC02002080B582B000AF021C45
:1034E000BB1D1A80BB1D1A880E4B9A4203D8BB1D08
:1034F000802292001A80BB1D1A888023DB009A422A
:1035000003D9BB1D8022D2001A80074BBA1D128836
:103510001A82054B1B8A181CBD4602B080BC02BC37
:103520000847C046FF010000FC02002080B500AF44
:10353000034B1B8A181CBD4680BC02BC0847C04612
:10354000FC02002080B582B000AF021CFB1D1A7087
:10355000FB1D1B78052B02D9FB1D05221A70064B9B
:10356000FA1D12781A71044B1B79181CBD4602B063
:1035700080BC02BC0847C046701C002080B500AF6C
:10358000034B1B79181CBD4680BC02BC0847C046D3
:10359000701C002080B500AF034B1B88181CBD4673
:1035A00080BC02BC0847C046701C002080B500AF3C
:1035B000054B1B88042213431B041A0C024B1A8070
:1035C000BD4680BC01BC0047701C002080B500AF28
:1035D000054B1B88042293431B041A0C024B1A80D0
:1035E000BD4680BC01BC0047701C002080B500AF08
:1035F000044BDB891B041B14181CBD4680BC02BC99
:103600000847C046701C002080B582B000AF021C85
:10361000BB1D1A80BB1D00229B5E1A1CFF3203DA01
:10362000BB1DFF2252421A80BB1D00229B5EFF2B56
:1036300002DDBB1DFF221A80064BBA1D12881A81BB
:10364000BB1D1B881B041B14181CBD4602B080BC8C
:1036500002BC0847FC02002080B500AF044B1B8968
:103660001B041B14181CBD4680BC02BC0847C04686
:10367000FC02002080B582B000AF021CBB1D1A8086
:10368000064B5A88BB1D1B8813431B041A0C034BA3
:103690005A80BD4602B080BC01BC0047701C0020AF
:1036A00080B500AFBD4680BC01BC0047F0B587B017
:1036B00002AF8E4B1B78002B23D18D4B1A688023D1
:1036C0005B021340002B1CD08A4B1B8801331B0468
:1036D0001A0C884B1A80884B00225A80854B1A8816
:1036E000864B9A420DD1864B1B781B061A0E7F4BD8
:1036F0001A70814B1B88012213431B041A0C7E4B4A
:103700001A80804B1B78002B02D17B4B00225A8001
:10371000794B5B881A1C08231340002B09D0764B89
:103720005B88082293431B041A0C734B5A8002F0E7
:10373000B9FA714B5B881A1C012313401B061B0E40
:10374000002B0BD06C4B5B88012293431B041A0C9B
:10375000694B5A8002F0A6FA00F0E0FB664B5B88EA
:103760001A1C02231340002B00D1A4E3624B5B8898
:10377000022293431B041A0C5F4B5A80A0235B0068
:10378000002200920020DA211A1C162302F010FAFF
:103790005D495B4B1B791B061A16131C9B009B187B
:1037A000143BCA18594B002100915949019110202E
:1037B000E12102F0B1FB574A514B5B791B061B1606
:1037C0009B00D218514B00210091514901913C209E
:1037D000E12102F0A1FB5049494B1B781B061B1647
:1037E0005A1E131C5B009B185B00CA18FC23DB00ED
:1037F00000210091464901917320E12102F08CFBE8
:1038000046493F4B9B7A1B061A16131C9B009B18BC
:10381000CA18434B002100913D490191C320E12189
:1038200002F07AFB364BDB7A1B061A0E8223590014
:103830003B4B002000903B480190081CE32102F024
:1038400041FA2D4B1B79022B31D83B1C0F332A4AEE
:1038500012791A703B1C0F331A78334BD200D05AAE
:103860003B1C0F331A7830490223D2008A18D31830
:1038700019883B1C0F331A782B4C0423D200A21852
:10388000D3181A883B1C0F331C78274D0623E400FD
:103890002C19E3181B8800040014090409141204ED
:1038A00012141B041B14214C0094FDF75DFF204BE8
:1038B00000220092164A01920E2000211A1C0023B9
:1038C00002F02AFB0C4B1B881A1C04231340002B0C
:1038D00032D0184B002200920D4A01920E20002196
:1038E0001A1C1F2302F018FB31E0C0469F02002083
:1038F00010E000E0EC1E0020701C0020DC05000041
:10390000FC0200209E020020A0890008FF070000A2
:1039100030020020F4890008008A0008988A000814
:103920005FB30000AC010020B8010020E0FF000000
:10393000A88A0008B48A0008D14AFC23DB000021D1
:103940000091D04901910E20002102F0E5FACE4B02
:103950001A88CE4B9A4258D0CD4B1B8801331B049A
:103960001A0CCB4B1A80CA4B1B88462B4DD13B1CE3
:103970000C3300221A803B1C0C331A88A0235B00F6
:103980000092002000211A1CF02302F011F93B1CC8
:103990000C331B880093BF4B01931420502100224D
:1039A0001F2302F08FF93B1C0C331A88BA4B00928C
:1039B000BA4A019218207321002202F083F93B1CBD
:1039C0000C331A88B44B0092B54A01921420B421EA
:1039D000002202F077F93B1C0C331A88AE4B0092A0
:1039E000B04A01925A20B221002202F06BF93B1C2E
:1039F0000C331A88A84B0092AB4A01925A20C82176
:103A0000002202F05FF900F0AFFEA84B1B891B04F7
:103A10001B0C033B1B041B0C00220092A44A0192C6
:103A20000220191C0122002302F04CF9A14BDB8873
:103A30001B041A0C9F4B1B891B041B0CD3181B0463
:103A40001B0C7522D31A1B041A0C3B1C0C331A8056
:103A50003B1C0C3300229B5E102B03DC3B1C0C3305
:103A600011221A803B1C0C3300229B5ED92B03DDF4
:103A70003B1C0C33D9221A808C4B1B79052B01D1AE
:103A8000854B00E08C4B3A1C0A3213803B1C0C33F4
:103A90001B88033B1B041A0C3B1C0A331B880021A8
:103AA0000091834901910220111C012202F00AF9C0
:103AB0007E4B3A1C0C3212881A817C4BDA887B4B85
:103AC0005B79120412141B041B1400210091101CBA
:103AD00008211A1C052302F06BF8FC23DB0000937D
:103AE0006B2006210122082302F062F8FC23DB0090
:103AF00000936B2006210422012302F059F8FC23D5
:103B0000DB0000936B200E210422012302F050F809
:103B1000FC23DB000093D52006210122082302F0BC
:103B200047F8FC23DB000093D22006210422012366
:103B300002F03EF8FC23DB000093D2200E21042289
:103B4000012302F035F8FC23DB0000936E200A21EC
:103B50006522012302F02CF8564B5B881B041B14D2
:103B6000652253431A1C534B1B8A101C191C00F06E
:103B7000FFFD031C1B061A0E3B1C0F336E321A701E
:103B80004C4B1B8A4D48191C00F0F2FD031C1B0412
:103B90001A0C3B1C0E331A70444B1B79042B01D1B9
:103BA0003D4B01E0FC23DB003A1C0A3213803B1C36
:103BB0000F331B781B041A0C3B1C0E331B781B04A1
:103BC0001B0C120412141B041B14391C0A31098823
:103BD0000091101C08211A1C052301F0E9FF3B1C71
:103BE0000F331B781B041A0C304BDA802F4B3A1C16
:103BF0000E3212785A712D4B5B891B041B0C033B50
:103C00001B041B0C2E4A0021009129490191101C14
:103C1000191C0222002302F055F8264B9B891B0435
:103C20001A0C244BDB881B041B0CD3181B041A0C26
:103C3000204B1B891B041B0CD3181B041B0C752267
:103C4000D31A1B041A0C3B1C0C331A803B1C0C337C
:103C500000229B5E102B03DC3B1C0C3311221A80CC
:103C60003B1C0C3300229B5ED92B03DD3B1C0C3329
:103C7000D9221A800D4B1B79032B23D1064B22E04E
:103C8000BC8A0008300200209A0200204AEC0000A2
:103C90009C02002038010020E0FF00002C010020E1
:103CA000080100201401002020010020701C0020C9
:103CB0008C010020FC020020FF0700005C76000061
:103CC000370100008A4B3A1C0A3213803B1C0C332C
:103CD0001B88033B1B041A0C86493B1C0A331B88B8
:103CE0000020009084480190081C111C022201F061
:103CF000E9FF824B3A1C0C3212885A81804B9B8917
:103D00001B041B14181CFDF7BFF9031C181CFCF73F
:103D10009BFD031C0C1C181C211C744B724AFCF7E5
:103D2000E7FD031C0C1C1D1C261C754B1B791B0678
:103D30001B161A1F734B9200D358181CFCF784FDF6
:103D4000031C0C1C281C311C1A1C231CFCF7D0FD66
:103D5000031C0C1C181C211CFDF78CF8031C7B6039
:103D600001231C1C78686849FDF794FB031C002B99
:103D700001D100231C1C23061B0E002B0BD03B1C67
:103D80000F3320221A703C1C0A347868FDF796FB2A
:103D9000031C23800EE03B1C0F332D221A707B681E
:103DA0008022120653403C1C0A34181CFDF786FB87
:103DB000031C23803B1C0A331A88544B101C191C0B
:103DC000FDF790FF4E4B1B791B061B16092B1DDCC4
:103DD0004F4B1A794E4B5A714D4BDA784C4B1A7146
:103DE0004B4B2E22DA704A4B56229A71484B0022D6
:103DF000DA71474B3A1C0F3212781A70444B5B78D9
:103E0000302B4ED1424B20225A704AE0404B2022A8
:103E10001A703F4B9A783E4B5A703D4BDA783C4BC8
:103E20009A703B4B1A793A4BDA70394B5A79384BC6
:103E30001A71374B6D225A71354B56229A71344B99
:103E40000022DA713B1C0E3301221A7013E03B1C76
:103E50000E331B782E4AD35C302B12D13B1C0E3311
:103E60001B782B4A2021D1543B1C0E333A1C0E32B6
:103E7000127801321A703B1C0E331B78032BE6D9E3
:103E800000E0C0463B1C0E333A1C0E321278013A59
:103E90001A703B1C0E331B781D4A391C0F310978F0
:103EA000D1541B4A1B4B002100911B490191F0206A
:103EB000002102F031F8114B5B881A1C04231340D7
:103EC000002B09D00D4B5B88042293431B041A0C72
:103ED0000A4B5A8000F0F4F8BD4605B0F0BC01BCB6
:103EE0000047C046C046C0460000000000C8E93F89
:103EF0005FB30000370100008C010020701C00201F
:103F0000FC020020D0890008000000003D1C0020B9
:103F10003C1C00201E8400003002002080B584B0CC
:103F200002AFFB1D01221A7021E0FB1D1B781B0450
:103F30001B0C1A1C9200D3181A1C91001A1C0B1C83
:103F4000D3181B041B0C0A331B041B0C1B041B0C77
:103F50001B041B14584A0092181C11210122C8236B
:103F600001F026FEFB1DFA1D127801321A70FB1DAE
:103F70001B780B2BD9D9FB1D01221A7022E0FB1DE7
:103F80001B781B041B0C1A1C9200D3181A1C9100DE
:103F90001A1C0B1CD3181B041B0C11331B041B0C09
:103FA0001B041B0C1B041B14962252004249009157
:103FB0000A20191C012301F0FBFDFB1DFA1D1278DC
:103FC00001321A70FB1D1B78072BD8D996235B0092
:103FD0003A4A00920A2011211A1C012301F0E8FD3F
:103FE00096235B00354A00920A20D9211A1C01232E
:103FF00001F0DEFD314B00930A2011210122C8237C
:1040000001F0D6FD9B235B002C4A0092181C112165
:104010000122C82301F0CCFDFB1D01221A701CE017
:10402000FB1D1B781B041B0C1A1C9200D3181B04CD
:104030001B0C0A331B041B0C1B041B0C1B041B1442
:104040001D4A0092181C73210122052301F0B0FDC6
:10405000FB1DFA1D127801321A70FB1D1B783B2BD9
:10406000DED9FB1D01221A701CE0FB1D1B781B040E
:104070001B0C1A1C9200D3181B041B0C11331B04BD
:104080001B0C1B041B0C1B041B140B4A00929E20D0
:10409000191C0522012301F08BFDFB1DFA1D12786E
:1040A00001321A70FB1D1B78272BDED9BD4602B0EA
:1040B00080BC01BC0047C046CB5A0000FBDE0000BC
:1040C00090B58BB002AFA34B1B881A1C4023134042
:1040D000002B04D0A04B7B61A04B3B6103E0A04BC5
:1040E0007B61A04B3B619B4B9A699F4B5B881B0498
:1040F0001B145B00D318FB609B4B1B8A5A009B4B25
:10410000D218FB689A4206D8974B1B8A5B005B4229
:10411000FA68D318FB603B1C0A33934AD2881A8092
:10412000FB681A883B1C0A331B88D3181B041A0C23
:104130003B1C1A331A803B1C1A3300215A5E8C4BED
:104140009A4203DD3B1C1A33894A1A803B1C1A33FE
:1041500000215A5E874B9A4203DC3B1C1A33864A85
:104160001A803B1C1E330B221A8080E0FB681A88E1
:104170003B1C1C331A803B1C1C331A883B1C0A3323
:104180001B88D3181B041A0C3B1C1C331A803B1CC5
:104190001C3300215A5E764B9A4203DD3B1C1C33D4
:1041A000734A1A803B1C1C3300215A5E714B9A42A1
:1041B00003DC3B1C1C33704A1A803C1C08343B1C3B
:1041C0001C3300215A5E3B1C1A3300215B5E101C1D
:1041D000191CFDF74BFD031C2380BC1D3B1C1C332D
:1041E00000215A5E3B1C1A3300215B5E101C191C17
:1041F000FDF75AFD031C23803B1C1A333A1C1C326A
:1042000012881A80BB1D1B881B061B0E7522D31A31
:104210001B061A0E7B691A707B6901337B61BB1D1B
:104220001B881B061A0E3B1C08331B881B061B0E23
:10423000D31A1B061B0E01331B061A0E3B691A709C
:104240003B6901333B61FB680233FB60464B1B8AD1
:104250005A00464BD218FB689A4201D8434BFB6088
:104260003B1C1E333A1C1E32128801321A803B1C42
:104270001E331A88414B9A4200D877E7404B1B887F
:10428000002B16D03E4B1B88013B1B041A0C3C4BE9
:104290001A803B4B1B88002B0BD12E4B1B88102206
:1042A00013431B041A0C2B4B1A80364BFA22520074
:1042B0001A80002000F06EF8FFF730FE254B1B88B7
:1042C000402253401B041A0C224B1A802E4B181C00
:1042D00000F060F82B4B1B88002B2AD0294B1B8841
:1042E000013B1B041A0C274B1A80264B1B88002B02
:1042F0001FD1184B1B88102293431B041A0C154B1B
:104300001A8000230093214B01930B20CC21002223
:10431000002301F0D7FC002300931D4B0193C42020
:10432000CD210022002301F0CDFC154BFA22920092
:104330001A80134B1B88002B07D1124B1B88002BB4
:1043400003D10F4BFA2292001A80BD4609B090BCEF
:1043500001BC0047701C0020C01D0020101300206D
:10436000F01E0020941C0020FC0200203C140020C1
:10437000630800009B0700009C0700003501000057
:10438000202000208C1C0020FF0700005C01002082
:104390006801002080B588B002AF021CBB1D1A80E6
:1043A000474B1B881A1C40231340002B51D0454B10
:1043B0003B61454BFB603B1C16330B221A8022E00D
:1043C0003B1C163319883B691B781A1C3B69013367
:1043D0003B61FB681B78F8680130F8600904091438
:1043E000120412141B041B14B81D00880090081C32
:1043F000111C012201F0DCFB3B1C16333A1C163267
:10440000128801321A803B1C16331A882F4B9A42AD
:10441000D6D92B4B1B881A1C10231340002B4AD0D3
:10442000BB1D1B88002B46D0294B00220092294A35
:1044300001920B20CC21002201F044FC244B0022ED
:104440000092254A0192C420CD21002201F03AFCBD
:1044500031E0224B3B61224BFB603B1C16330B22AD
:104460001A8022E03B1C163319883B691B781A1C02
:104470003B6901333B61FB681B78F8680130F860E9
:1044800009040914120412141B041B14B81D00881B
:104490000090081C111C012201F08AFB3B1C163302
:1044A0003A1C1632128801321A803B1C16331A88C5
:1044B000064B9A42D6D9BD4606B080BC01BC004727
:1044C000701C0020F01E0020941C0020350100000C
:1044D000CB5A00005C01002068010020C01D0020B4
:1044E0001013002080B500AF514B1B8A1B041B0C1E
:1044F0001A1C02231340002B5DD04D4B9B8E1B04D6
:104500001A0C4C4B1A824A4B494A92891204120CDB
:1045100002218A431204120C9A81454B444A128CA0
:104520001204120C01218A431204120C1A84404B0B
:10453000404A118A404A108A3F4AD2891204120C1A
:10454000821A1204120C8A181204120C1A87384BA1
:10455000374A128A1204120C04218A431204120CE4
:104560001A82354B1B781B061B160D2B03DC324BB6
:104570009B7A002B09D02E4B2D4A92891204120CE3
:1045800004210A431204120C9A812A4B1B8802222E
:1045900013431B041A0C274B1A80254B244A128AFA
:1045A0001204120C02218A431204120C1A82234BA9
:1045B000802212025A611E4B1B8A1B041B0C1A1C00
:1045C00004231340002B2FD01D4B1D4A12680121DC
:1045D0008A431A60164B164A128A1204120C0421DE
:1045E0008A431204120C1A82114B114A9289120446
:1045F000120C04218A431204120C9A818023DB05D9
:104600008022D20512881204120C01218A4312045E
:10461000120C1A80FDF700FE064B1B880122134383
:104620001B041A0C034B1A80BD4680BC01BC00471A
:10463000002C0140701C0020FC02002000080140FA
:104640000800024080B500AF1D4B1A6802231340DA
:10465000002B30D01A4B1A4A126802218A431A6082
:10466000184B5A69164BDB6C1B041B0C1380154B43
:104670005A69154B1A60134B5B699A1C114B5A61AE
:10468000104B5A69114BD968114B1B8A5B00CB1830
:104690009A4208D30B4B5A690D4B1B8A5B005B4255
:1046A000D218084B5A61074B1B88082213431B047E
:1046B0001A0C044B1A80BD4680BC01BC0047C046A2
:1046C00000240140701C0020901C002008000240C3
:1046D000FC02002080B500AF1F4B1A680223134074
:1046E000002B05D01C4B1C4A526802210A435A6019
:1046F000194B1A6804231340002B29D0174B174A73
:10470000128A1204110C164A0A401204120C1A8260
:10471000114B114A526804210A435A60114B114A45
:10472000126804218A431A600C4B0C4A92891204C5
:10473000120C02210A431204120C9A81074B074AF9
:10474000128C1204120C01210A431204120C1A8456
:10475000BD4680BC01BC004700000240002C014067
:10476000FDFDFFFF0800024080B500AFFEE7C04638
:104770004A1E08BF7047C0F02481884240F216816B
:10478000114200F01781B0FA80F3B1FA81F2A2EB86
:104790000303C3F11F0304A202EB03134FF0000253
:1047A0009F4600BFAFF30080B0EBC17F00BF42EB7C
:1047B000020228BFA0EBC170B0EB817F00BF42EBCB
:1047C000020228BFA0EB8170B0EB417F00BF42EB3B
:1047D000020228BFA0EB4170B0EB017F00BF42EBAB
:1047E000020228BFA0EB0170B0EBC16F00BF42EB2B
:1047F000020228BFA0EBC160B0EB816F00BF42EBAB
:10480000020228BFA0EB8160B0EB416F00BF42EB1A
:10481000020228BFA0EB4160B0EB016F00BF42EB8A
:10482000020228BFA0EB0160B0EBC15F00BF42EB0A
:10483000020228BFA0EBC150B0EB815F00BF42EB8A
:10484000020228BFA0EB8150B0EB415F00BF42EBFA
:10485000020228BFA0EB4150B0EB015F00BF42EB6A
:10486000020228BFA0EB0150B0EBC14F00BF42EBEA
:10487000020228BFA0EBC140B0EB814F00BF42EB6A
:10488000020228BFA0EB8140B0EB414F00BF42EBDA
:10489000020228BFA0EB4140B0EB014F00BF42EB4A
:1048A000020228BFA0EB0140B0EBC13F00BF42EBCA
:1048B000020228BFA0EBC130B0EB813F00BF42EB4A
:1048C000020228BFA0EB8130B0EB413F00BF42EBBA
:1048D000020228BFA0EB4130B0EB013F00BF42EB2A
:1048E000020228BFA0EB0130B0EBC12F00BF42EBAA
:1048F000020228BFA0EBC120B0EB812F00BF42EB2A
:10490000020228BFA0EB8120B0EB412F00BF42EB99
:10491000020228BFA0EB4120B0EB012F00BF42EB09
:10492000020228BFA0EB0120B0EBC11F00BF42EB89
:10493000020228BFA0EBC110B0EB811F00BF42EB09
:10494000020228BFA0EB8110B0EB411F00BF42EB79
:10495000020228BFA0EB4110B0EB011F00BF42EBE9
:10496000020228BFA0EB0110B0EBC10F00BF42EB69
:10497000020228BFA0EBC100B0EB810F00BF42EBE9
:10498000020228BFA0EB8100B0EB410F00BF42EB59
:10499000020228BFA0EB4100B0EB010F00BF42EBC9
:1049A000020228BFA0EB0100104670470CBF012097
:1049B00000207047B1FA81F2C2F11F0220FA02F022
:1049C000704708B14FF0FF3000F00EB80029F8D062
:1049D0002DE90340FFF7CCFEBDE8064002FB00F3E3
:1049E000A1EB0301704700BF704700BF002103E047
:1049F0000A4B5B584350043109480A4B42189A420B
:104A0000F6D3094A02E0002342F8043B074B9A42DE
:104A1000F9D302F089FE00F00DF87047F89C000809
:104A2000000000209802002098020020242000208E
:104A3000FEE700002DE9F04F234A85B09047234957
:104A400088472348836813F4004F01D1214CA047C5
:104A5000214DA8472149884721488047214B984745
:104A6000214E22482249234F234CB047234DB847BB
:104A7000A047234A9047A847224D0026224988474D
:104A8000224C18207821224A4FF6FF730096019598
:104A9000A04718208C211F4A4FF6FF7300960195FE
:104AA000A047B4211C4A4FF6FF73182000960195C9
:104AB000A0471A4F1A4880471A4B9847DFF868906A
:104AC000DFF868B03E8049E00D50000879500008DA
:104AD000000C014029680008217D0008517400087D
:104AE00085520008E55000084D510008C48A0008AE
:104AF000003801400D5200086D5100082552000891
:104B0000B951000830020020795F0008195F0008E1
:104B1000D08A0008F8000020E48A0008E0020020A3
:104B2000AD670008AD5A0008E4020020696E000875
:104B3000B9F8003013F0010F40F0EC80B9F80660CE
:104B4000002E40F0F4808D4803881BB917F0010F48
:104B500040F0F68017F0080F40F00881884FB84702
:104B6000884A904710F0800F074600F0C180DFF8B8
:104B70005CA2BAF8008018F0010F00F0B980DFF8ED
:104B80003882814AB8F800604FF29E7816F0040F20
:104B90004FF0000643464FF0CD004FF01401009651
:104BA00001950CBF4FF01F0AC246A047DFF820E274
:104BB0007649BEF90000D847142102465346F72033
:104BC00000960195A0474346CD202421704A0096C7
:104BD0000195A0476F4A6D49B2F90000D8472421DA
:104BE00002465346F72000960195A0476A4A43467D
:104BF000CD20342100960195A04768486349B0F95B
:104C00000000D847342102465346F720009601950C
:104C1000A047634A4346CD20442100960195A04712
:104C2000DFF8B0C15949BCF90000D8474421024619
:104C30005346F72000960195A0475A4A4346CD2097
:104C4000542100960195A047DFF88CE14F49BEF949
:104C50000000D847542102465346F720009601959C
:104C6000A0470F20504A1421434600960195A047C3
:104C70000F2024214D4A434600960195A0470F205E
:104C800034214B4A434600960195A0470F2044210A
:104C90004346484A00960195A047474B1B8813F0AE
:104CA000020F40F0A78013F0080600F0598100269B
:104CB00039201421414A4FF29E7300960195A04776
:104CC000392024213D4A4FF29E7300960195A0475A
:104CD00039203421394A4FF29E7300960195A0473E
:104CE00039204421354A4FF29E7300960195A04722
:104CF000DFF8E8C09CF80020002A3FF419AF00203C
:104D00002F4B8CF800009847B9F8003013F0010FD2
:104D10003FF414AF2B4923F0010CA1F800C0DFF8D9
:104D2000C0A0D047B9F80660002E3FF40CAFDFF802
:104D3000B480C047234A4FF0000EA2F806E002E715
:104D4000DFF8A480C0470420DFF8A0C0E0471E4978
:104D500088471FFA80FABAF1120F40F21181074A10
:104D6000282317F0080F13803FF4F8AEDFF878C05F
:104D7000DFF87CA0E047D047F0E600BFA4020020A7
:104D8000AD36000895350008F08A0008C8020020FA
:104D9000F88A0008BE020020008B0008B002002044
:104DA000088B0008108B0008188B0008208B000867
:104DB000288B00082C8B0008E0020020388B0008AC
:104DC000D91E0008E4020020FD320008C4020020C1
:104DD000A8020020DE020020BA020020A202002069
:104DE0008161000849670008F96800087536000805
:104DF000F5300008DFF8F4A103210A46714BDAF818
:104E00000000DFF8CC81C047DFF8E4E16E49BEF86E
:104E100000206E4B51F822106A4898476948DFF825
:104E2000B4C1E047DFF8CCA11FFA80F8BAF800203F
:104E30009045C0F0BE80DFF8BCE14FF0000AAEF84C
:104E40000080392014215F4A4FF29E73CDF800A0F4
:104E50000195A047DFF8A0C10321DFF8A0810A4631
:104E6000584BDCF800005A4EB047B8F800C0DFF8E5
:104E700058E1564E5EF82C105248B047554A5148FA
:104E80009047554986B20A889642C0F08780DFF87D
:104E900048C14FF00008ACF8006039202421494A8D
:104EA0004FF29E73CDF800800195A047DFF850E1E6
:104EB0000321DFF848A10A46424BDEF80000444EC9
:104EC000B047DFF804C1BAF800A0404E5CF82A10E1
:104ED0003C48B0473F4A3B489047404986B20A8821
:104EE000964250D3DFF8F4E04FF00008AEF80060CF
:104EF00039203421334A4FF29E73CDF8008001955A
:104F0000A047DFF800C1032101222E4BDCF800008E
:104F10002F4EB047DFF8BCA02A48D047304BDFF80F
:104F2000A4A09A78B3F800C0864603922AF80EC06F
:104F3000DDF80CE00AEB00065246DFF8CCA0392081
:104F40004421CDF800804FF29E7386F802E001956F
:104F5000A047BAF8001021F00800AAF80000C7E640
:104F6000DFF8A480392014210096782246231D4EB4
:104F7000B047B8F8001041F00800A8F8000096E625
:104F8000194EB047E6E5D3001AB2CDF800803920BB
:104F900034211023DFF84C80C047A3E7D3001AB2B6
:104FA000CDF800A0392024211023DFF838A0D04705
:104FB0006DE7D3001AB20096392014211023094E50
:104FC000B04738E7C80200203C0200201101000869
:104FD000FD6F000815020008282000202420002072
:104FE000348B0008B15B0008D91E0008B402002011
:104FF000BC02002026200020F8020020B802002079
:10500000AC020020C0020020E0020020164B174A2C
:1050100017491A60174A5960002015211A609860D4
:105020000722D8601861596144F63D61DA619961DF
:10503000186258621A6812F4003F07D0586820F0CE
:1050400003025A60596841F001005860064B196824
:1050500011F0007F07D05A6822F0030159605868A8
:1050600040F002025A6070470010024081000100C7
:1050700000841D008100010130B41348134D4FF628
:10508000FF72056005F10045743545601049C26046
:105090004FF0333000F1AA4C08600CF5AA008830BC
:1050A00048600C4C0C48CA600C4960600C4B4420B2
:1050B000E26008605A6822F0E0615960586840F088
:1050C00000725A6030BC704700080140404444B44C
:1050D000000C01400010014000003033001401407A
:1050E0000000014010B5002384B00C4CADF8043032
:1050F000ADF80630ADF80830ADF80C304FF416427C
:105100000C23694620460092ADF80A30044A9047C5
:1051100020460121034B984704B010BD00380140E0
:105120001D790008FD7A000870B5064D06460C464C
:1051300020468021A8470028FAD020463146024B5D
:10514000984770BDCD7B0008717B000870B50446A0
:1051500000780D4630B1044E2946B04714F8010FCF
:105160000028F9D170BD00BF29510008114B8020E3
:10517000188000224FF4405C10209A8005211A818B
:105180009A811A829A82A3F818C09A8340F60F6C0B
:10519000188409209A84A3F828C0988599861987CD
:1051A0009A87A3F84020A3F84820A3F84C20812236
:1051B0001A80704700040040134B80221A800020A0
:1051C00046F2600C4FF4885140F6FF7298801881C7
:1051D000188298821883A3F81CC0198440F2FF7CBF
:1051E000988440F2FF3118859A8581229886188725
:1051F000A3F83CC0A3F84010A3F84800A3F84C0063
:1052000098811A80704700BF00080040034B044A91
:1052100000210720996018605A60704710E000E094
:1052200040190100104B002240F6FF711A605A60CD
:105230009A60DA601A615A619A61DA611A62596297
:105240009A62DA621A635A639A639868194640F060
:1052500004029A608B68044A13F0040FFAD0916834
:1052600041F001009060704700280140416381686F
:1052700041F001038360026812F0020FFBD0C06CA2
:1052800080B27047F8B59E4C4FF400659D4E41F2D8
:1052900088302561B0474FF6E8506561B0474FF65A
:1052A000FF702561B0474FF6FF70B0474FF6FF70B3
:1052B000B0474FF6FF70B0474FF6FF70B0474FF65C
:1052C000FF70B0474FF6FF70B0474FF6FF70B04722
:1052D0004FF6FF70B0474FF6FF70B0478A4B4FF460
:1052E00000524FF480405A615861E7684FF4004122
:1052F00007F47F4C4CF0CF05E560596119611861E6
:105300001A615A611861E768642507F47F47E7600E
:10531000596119611A615A611861E76807F47F4C95
:105320004CF0C107E760596119611A615A6118614F
:10533000E76807F47F4C4CF03007E760596119616A
:105340001A615A615861E76807F47F4C4CF0ED0729
:10535000E7605961196118611A615A611861E7685B
:1053600007F47F4C4CF06707E760596119611A61D7
:105370005A611861E76807F47F4C4CF00307E76057
:10538000596119611A615A611861E76807F47F4C25
:105390004CF01207E760596119611A615A6118618E
:1053A000E76807F47F4C4CF08107E76059611961A9
:1053B0001A615A615861E76807F47F4C4CF0CB07DB
:1053C000E7605961196118611A615A611861E768EB
:1053D00007F47F4C4CF03907E760596119611A6195
:1053E0005A611861E76807F47F4C4CF02C07E760BE
:1053F000596119611A615A611861E76807F47F47BA
:10540000E760596119611A615A611861E76807F428
:105410007F4C4CF03407E760596119611A615A6199
:105420001861E76807F47F4C4CF00207E7605961A8
:1054300019611A615A615861E76807F47F4C4CF0B2
:10544000EA07E7605961196118611A615A611861C8
:10545000E76807F47F47E760596119611A615A618B
:105460001861E76807F47F47E760596119611A61BD
:105470005A615861E76807F47F4C4CF0E807E76031
:105480005961196118611A615A611861E76807F476
:105490007F4C4CF08507E760596119611A615A61C8
:1054A0001861E76807F47F4C4CF00A07E760596120
:1054B00019611A615A611861E76807F47F4C4CF072
:1054C0007807E760596119611A615A615861E768A4
:1054D00007F47F4C4CF0F707E760596119611861D8
:1054E0001A615A611861E76807F47F4C4CF0200795
:1054F000E760596119611A615A61586106E000BF9D
:10550000000C0140355B000800100140E76807F41B
:105510007F4C4CF0C007E7605961196118611A614E
:105520005A611861E76807F47F4C4CF02607E76082
:10553000596119611A615A615861E76807F47F4C33
:105540004CF0C107E7605961196118611A615A612D
:105550001861E76807F47F4C4CF00107E760596178
:1055600019611A615A615861E76807F47F4C4CF081
:10557000C507E7605961196118611A615A611861BC
:10558000E76807F47F4C4CF02B07E760596119611D
:105590001A615A611861E76807F47F4C4CF02F07D5
:1055A000E760596119611A615A615861E76807F447
:1055B0007F4C4CF0C707E7605961196118611A61A7
:1055C0005A611861E76807F47F4C4CF0C707E76041
:1055D000596119611A615A615861E76807F47F4C93
:1055E0004CF03A07E7605961196118611A615A6114
:1055F0001861E76807F47F4C4CF05507E760596184
:1056000019611A615A615861E76807F47F4C4CF0E0
:105610003607E7605961196118611A615A611861AA
:10562000E76807F47F4C4CF02007E7605961196187
:105630001A615A615861E76807F47F4C4CF0B10772
:10564000E7605961196118611A615A611861E76868
:1056500007F47F47E760596119611A615A6118615F
:10566000E76807F47F4C4CF01807E760596119614F
:105670001A615A615861E76807F47F4C4CF0B6072D
:10568000E7605961196118611A615A611861E76828
:1056900007F47F4C4CF00A07E760596119611A6101
:1056A0005A611861E76807F47F4C4CF0E207E76045
:1056B000596119611A615A615861E76807F47F4CB2
:1056C0004CF0F207E7605961196118611A615A617B
:1056D0001861E76807F47F47E760596119611A614B
:1056E0005A615861E76807F47F4C4CF02607E76081
:1056F0005961196118611A615A611861E76807F404
:105700007F4C4CF00107E760596119611A615A61D9
:105710005861E76807F47F4C4CF0E007E760596197
:10572000196118611A615A611861E76807F47F4CC2
:105730004CF00F07E760596119611A615A611861ED
:10574000E76807F47F4C4CF01D07E7605961196169
:105750001A615A611861E76807F47F4C4CF01A0728
:10576000E760596119611A615A611861E76807F4C5
:105770007F4C4CF00907E760596119611A615A6161
:105780001861E76807F47F4C4CF00F07E760596138
:1057900019611A615A611861E76807F47F4C4CF08F
:1057A0000907E760596119611A615A611861E76870
:1057B00007F47F4C4CF04607E760596119611A61A4
:1057C0005A611861E76807F47F4C4CF08807E7607E
:1057D000596119611A615A611861E76807F47F4CD1
:1057E0004CF03907E760596119611A615A61186113
:1057F000E76807F47F4C4CF00507E76059611961D1
:105800001A615A611861E76807F47F4C4CF00F0782
:10581000E760596119611A615A611861E76807F414
:105820007F4C4CF00307E760596119611A615A61B6
:105830001861E76807F47F4C4CF00707E76059618F
:1058400019611A615A611861E76807F47F4C4CF0DE
:105850000507E760596119611A615A611861E768C3
:1058600007F47F47E760596119611A615A6158610D
:10587000E76807F47F4C4CF0E107E7605961196174
:1058800018611A615A611861E76807F47F47E76099
:10589000596119611A615A611861E76807F47F4C10
:1058A0004CF02207E760596119611A615A61186169
:1058B000E76807F47F4C4CF02507E76059611961F0
:1058C0001A615A611861E76807F47F4C4CF00607CB
:1058D000E760596119611A615A611861E76807F454
:1058E0007F4C4CF01007E760596119611A615A61E9
:1058F0001861E76807F47F4C4CF00607E7605961D0
:1059000019611A615A611861E76807F47F4C4CF01D
:105910003907E760596119611A615A611861E768CE
:1059200007F47F4C4CF02207E760596119611A6156
:105930005A611861E76807F47F4C4CF04A07E7604A
:10594000596119611A615A611861E76807F47F4C5F
:105950004CF00A07E760596119611A615A611861D0
:10596000E76807F47F4C4CF01007E7605961196154
:105970001A615A611861E76807F47F4C4CF00C0714
:10598000E760596119611A615A611861E76807F4A3
:105990007F4C4CF03807E760596119611A615A6110
:1059A0001861E76807F47F4C4CF03A07E7605961EB
:1059B00019611A615A611861E76807F47F4C4CF06D
:1059C0000F07E760596119611A615A615861E76808
:1059D00007F47F4C4CF01107E760596119611861B9
:1059E0001A614CF25030B0476B1EDCB24CF25030B2
:1059F000B047621ED5B20F4C002DF2D10E4B4FF4C2
:105A000000524FF480410D4E5A615961F0684FF4D5
:105A1000004500F47F4E4EF02907F7604CF25030FD
:105A20005D611D6119611A61A0474CF25030A047B9
:105A3000F8BD00BF355B000800100140000C0140BC
:105A40000A4B70B44FF400524FF48041084D5A6134
:105A50005961EE684FF4004406F47F463043E86035
:105A60005C611C6119611A6170BC704700100140D3
:105A7000000C01400A4B30B44FF40052094C4FF473
:105A800080415A611961E5684FF4004105F47F4592
:105A90002843E060596119611A6130BC704700BF4A
:105AA00000100140000C0140704700BF70B500219C
:105AB00082B04FF00060144CA047012600241B2246
:105AC00001A8124D8DF804208DF805408DF8064090
:105AD0008DF80760A84701A812218DF804108DF8F1
